:020000040800F2
:1000000000000220C9600008B9060008BD0600080B
:10001000C1060008C5060008C90600080000000067
:10002000000000000000000000000000CD060008F5
:10003000D106000800000000D506000809070008E6
:1000400011610008116100081161000811610008C8
:1000500011610008116100081161000811610008B8
:1000600011610008116100081161000811610008A8
:100070001161000811610008116100081161000898
:100080001161000811610008116100081161000888
:100090001161000811610008116100081161000878
:1000A0001161000811610008116100081161000868
:1000B0001161000811610008116100081161000858
:1000C0001161000811610008116100081161000848
:1000D0001161000811610008116100081161000838
:1000E000116100081161000819070008116100087A
:1000F0001161000811610008116100081161000818
:100100001161000811610008116100081161000807
:1001100011610008116100081161000811610008F7
:1001200011610008116100081161000811610008E7
:1001300011610008116100081161000811610008D7
:1001400011610008116100081161000849070008E9
:1001500011610008116100081161000811610008B7
:1001600011610008116100081161000811610008A7
:100170001161000811610008116100081161000897
:08018000116100081161000883
:1001A000F0B5174D83B00820012101F007FB0224B0
:1001B00001232846002269464FF4704703268DF834
:1001C00007308DF8062000978DF804408DF8056003
:1001D00001F026FD284622460C2101F0C1FD2846EB
:1001E00022460D2101F0BCFD284622460E2101F0D9
:1001F000B7FD284622460F2101F0B2FD03B0F0BD45
:10020000000C024010B5042084B0012101F000FB75
:10021000184B194C1868A4FB0034240AB4F5803F2D
:1002200025D94FF4C8620121B0FBF2F3B3F5803F4A
:1002300001F1010102F54872F6D84A1E92B289B264
:10024000B4FBF1F10139002302910C48ADF8042010
:1002500001A9ADF80630ADF80C308DF80E3001F084
:100260007DFE0648012101F027FF04B010BD0121E9
:100270000022E5E7100000201F85EB510008004038
:1002800030B51B4C87B0002360220125204601A910
:100290000393ADF81030ADF80420ADF8065001F02E
:1002A00019FF2046082102F091F8204601A901F02B
:1002B00059FF2046082102F091F8204601A901F0DB
:1002C0009DFF2046082102F093F8204601A901F085
:1002D000E1FF2046082102F093F82046294601F06C
:1002E000C5FE2046294601F0E7FE07B030BD00BF3D
:1002F0000008004043890C3B032B16D8DFE803F0CD
:100300003E2A16028188C28890ED037A2548531A46
:1003100007EE903AF8EEE77A67EE877AFCEEE77A36
:1003200017EE903A11FA83F3036470478188C2880C
:1003300090ED037A1B48531A07EE903AF8EEE77AED
:1003400067EE877AFCEEE77A17EE903A11FA83F3BC
:10035000C36370478188C28890ED037A1148531AAD
:1003600007EE903AF8EEE77A67EE877AFCEEE77AE6
:1003700017EE903A11FA83F3836370478188C2883D
:1003800090ED037A0748531A07EE903AF8EEE77AB1
:1003900067EE877AFCEEE77A17EE903A11FA83F36C
:1003A00043637047000800400A4A0B4B11689942AA
:1003B0000DD94FF4C8620120B1FBF2F3B3F5803FD1
:1003C00000F1010002F54872F6D880B270470120B2
:1003D000704700BF100000201F0320032DE9F041EB
:1003E000234E244B34689C4205463ED94FF4C862E4
:1003F0000120B4FBF2F3B3F5803F00F1010002F5F8
:100400004872F6D880B24700DFF874806981A8FB93
:1004100004139B0CB3FBF7F303EB830303EB83039E
:1004200003EB03135B000022AB80EA60124800F08C
:1004300053F92846FFF75EFF104800F04DF9306889
:10044000A8FB0030800CB0FBF7F73B01FA18DB1B70
:10045000C3EB431307EB820707EB07179B00002250
:10046000AF80EB802A81BDE8F0810227CCE700BF96
:10047000100000201F03200320A10700A025260054
:1004800083DE1B4300B583B0084B00930848094A3C
:10049000094B012102F0B4FE084B1B68986800214B
:1004A00003B05DF804EB05F0B7BE00BF14000020F8
:1004B000B80A0020700000202C01002080050020D8
:1004C00070B5164C2368B3F5E17F24DB00230646A4
:1004D000086823600D4604F07DFD02460B46104877
:1004E00005F050FE686804F075FD02460B460D48A5
:1004F00005F048FE306804F06DFD02460B460A48E0
:1005000005F040FE706804F065FD02460B460748A2
:1005100005F038FE23680133236070BD140A002003
:1005200048BB000858BB00086CBB00087CBB000837
:1005300070B5164C63682C2B24DD0023054600683B
:1005400063600E4604F046FD02460B46104805F077
:1005500019FE686804F03EFD02460B460D4805F0A2
:1005600011FE306804F036FD02460B460A4805F0DD
:1005700009FE706804F02EFD02460B46074805F0A0
:1005800001FE63680133636070BD00BF140A002080
:1005900090BB0008A0BB0008B4BB0008C4BB0008A7
:1005A00090ED037AF7EE007AB4EEE77AF1EE10FA06
:1005B00002DDC0ED037A7047B5EEC07A0023F1EE9C
:1005C00010FA48BFC36070479FED397A77EE607AC2
:1005D00070EE870A77EE806A30EE807A77EEC07A26
:1005E00070EEC00A70B5C1ED036A80ED037AC3ED09
:1005F000030AC2ED037A90ED037AF7EE007AB4EEC7
:10060000E77AF1EE10FA0D461E46144647DDC0EDBE
:10061000037A95ED037AF7EE007AB4EEE77AF1EE1D
:1006200010FA34DDC5ED037A94ED037AF7EE007A23
:10063000B4EEE77AF1EE10FA21DDC4ED037A96ED1F
:10064000037AF7EE007AB4EEE77AF1EE10FA0EDDF7
:10065000C6ED037AFFF74EFE2846FFF74BFE204615
:10066000FFF748FE3046BDE87040FFF743BEB5EEE9
:10067000C07A0023F1EE10FA48BFF360EAE7B5EE66
:10068000C07A0023F1EE10FA48BFE360D7E7B5EE79
:10069000C07A0023F1EE10FA48BFEB60C4E7B5EE74
:1006A000C07A0023F1EE10FA48BFC360B1E700BF83
:1006B00014AE073F704700BF704700BFFEE700BFA2
:1006C000FEE700BFFEE700BFFEE700BF704700BFC8
:1006D000704700BF704700BF10B485B0064C019052
:1006E0002368039323680399019A5B1A9342F9D311
:1006F00005B05DF8044B7047AC0A0020014B186848
:10070000704700BFAC0A0020024A1368013313602F
:10071000704700BFAC0A002010B5094CA37A4BB15A
:10072000084A136823F00603136000F013F820460C
:1007300003F084FE4FF48020BDE8104001F0D6B9EC
:10074000B80A002010ED00E0014804F07DB800BFB9
:10075000B80A002039493A4BD1F88820394842F488
:100760007002C1F888201A68002142F001021A6064
:1007700099601A6822F0847222F480321A605860FC
:100780001A6882B022F480221A60D9600091019127
:100790001A6842F480321A601A4603E0009BB3F5EF
:1007A000A06F09D0136803F400330193009B013359
:1007B0000093019B002BF1D0214B1B6813F40033F5
:1007C00018BF01230193019B012B05D01B4B4FF058
:1007D00000629A6002B07047194B1B491A6C1B48A3
:1007E00042F080521A640A6842F480420A609A68B1
:1007F0009A609A6842F400429A609A6842F4A05261
:100800009A6058601A6842F080721A601A4611683D
:100810000B4B8901FBD50E4A40F2056111609A68C5
:1008200022F003029A609A6842F002029A601A4625
:10083000936803F00C03082BFAD1C7E700ED00E042
:100840000038024010300024007000400854400777
:10085000003C02401848836803F00C03042B28D0A6
:10086000082B09D0154B144A15499268C2F303129C
:100870008A5CD3400B6170474368416813F4800F72
:10088000436818BF0F4801F03F020CBF0B49B0FB93
:10089000F2F1C3F3881308BFB1FBF2F101FB03F2DD
:1008A000054B5B68C3F3014301335B00B2FBF3F319
:1008B000D9E7044BD7E700BF003802400024F4001A
:1008C0000000002000127A000020704700207047CE
:1008D00001207047002070474FF0FF30704700BF85
:1008E00010B50C4648B9204600F0DEF80028FAD0D2
:1008F000207800F089F8012010BD002010BD00BF55
:10090000064B186838B101446A46914294BF196099
:100910004FF0FF30704702481860F4E71C0A0020CF
:10092000201A002010B508461146144600F0A2F81F
:10093000204610BD704700BF704700BF704700BF22
:10094000704700BF704700BF704700BF704700BFCF
:100950000020704700207047A1B1F0B40A4C0B4F43
:10096000014426460025236810F8012BFA54013370
:10097000B3F5006F08BF2B4688423360F3D10020E7
:10098000F0BC704700207047600A00201C12002055
:10099000D9B1F0B40E4A0F4C166823680E4D0144CD
:1009A000002701E088420DD010F8012BEA540133F2
:1009B000802B0ABF0023236027609E42F2D10220D1
:1009C000F0BC70470020F0BC70470020704700BFAB
:1009D0002C11002040110020AC10002021280FD144
:1009E000084B1A680A701A68120A4A705A888A7084
:1009F000DA78CA701A790A715A794A719B798B71BF
:100A00000020704730000020074A136810B4591CBA
:100A1000064CB1F5006FE0540ABF0023116013606B
:100A20005DF8044B704700BF600A00201C120020D4
:100A30000378CBB1F0B401460446002314F8012F2B
:100A40000133002AFAD1094D094F18442E462B686C
:100A500011F8014BFC540133B3F5006F08BF134686
:100A600081423360F3D1F0BC704700BF600A0020C0
:100A70001C12002091B1F0B4094C0A4F01442646E3
:100A80000025236810F8012BFA540133B3F5006FE9
:100A900008BF2B4688423360F3D1F0BC704700BFDB
:100AA000600A00201C120020094A0A4913680968DC
:100AB00099420AD00849CB5C037013680133802B3C
:100AC00008BF00231360012070470020704700BF5B
:100AD0002C11002040110020AC100020F0B41C4F5D
:100AE0001C4D3C682B689C420DD01B49CA5C1AB156
:100AF0000A2A01D00D2A09D10133802B08BF002317
:100B00009C42F3D12C600020F0BC70472B60002386
:100B100003E00A2A0FD00D2A0DD0C2542C683E687B
:100B200001331A19802A04BF002263429642EAD098
:100B30008A5C002AEDD10022C2542A6805491A4471
:100B40007F2A00D9803A18460A60F0BC704700BF7F
:100B5000401100202C110020AC100020704700BF75
:100B600012230B80004870474C00002004230B80A8
:100B7000004870476000002010B5044C04480A4645
:100B8000214602F007FE204610BD00BF5C11002088
:100B9000F8BB000808B50A4628B10648064902F025
:100BA000F9FD054808BD0548034902F0F3FD024878
:100BB00008BD00BF30BC00085C1100200CBC000860
:100BC00008B50A4628B10648064902F0E3FD054883
:100BD00008BD0548034902F0DDFD024808BD00BF1D
:100BE00064BC00085C11002054BC000810B5044C23
:100BF00004480A46214602F0CDFD204610BD00BF44
:100C00005C11002074BC000810B5044C04480A466E
:100C1000214602F0BFFD204610BD00BF5C11002040
:100C200080BC0008704700BF704700BF70B501204E
:100C3000284C82B0014600F0C1FD03260023204667
:100C4000694602224FF4D8558DF806308DF80730EA
:100C500000958DF804208DF8056000F0E1FF204636
:100C600008210A2201F07CF8204609210A2201F01D
:100C700077F820460B210A2201F072F820460A225A
:100C80000C2101F06DF801254FF480636946204680
:100C900000938DF805608DF806508DF8075000F030
:100CA000BFFF0A210A46204601F05AF829464FF4B0
:100CB000804000F0BBFD2946802000F08DFD2946D4
:100CC0004FF0805000F0EAFD284600F00FFF02B020
:100CD00070BD00BF0000024000B54FF4C06083B09B
:100CE00000F08CFB01234321032201A88DF804109E
:100CF0008DF805308DF807308DF8062000F088FB60
:100D000003B05DF804FB00BFC0EB0010064BC2004F
:100D1000A3FB0213D21A03EB520292080023013301
:100D20009A42FCD2704700BF25499224074A084BDB
:100D300002FB00F0A3FB0023C21A03EB520292084D
:100D4000002301339A42FCD2704700BFC0D4010097
:100D50002549922410B5044602F0AAF8204603491A
:100D600002F00CF90028F9D010BD00BF8400070084
:100D700010B50121044602F013F82046044902F0A0
:100D8000FDF80028F9D02046BDE8104002F092B8E6
:100D90004000030010B50021044602F001F820468F
:100DA000012101F0E5FF2046044902F0E7F80028A0
:100DB000F9D02046BDE8104002F07CB840000300A6
:100DC000012101F0D5BF00BF70B54FF4001086B00F
:100DD0001E4D1F4E012100F01BFD0220012100F0DD
:100DE000EDFC012402232846C02269468DF8043018
:100DF0008DF8053000928DF806408DF8074000F020
:100E00000FFF28460621042200F0AAFF28460721EA
:100E1000042200F0A5FF0F4B02934FF48042002301
:100E2000304602A94BF6FF75ADF80C30ADF8103026
:100E3000ADF81230ADF81420ADF80E5001F0F6FE0A
:100E40003046214601F078FF06B070BD0004024034
:100E500000540040801A060070B504460E46154640
:100E600020464FF4003102F09DF80028F8D12046CA
:100E7000012101F06FFF2046104902F07FF80028A1
:100E8000F9D0314620462A4601F080FF15B1012DE8
:100E900007D070BD20460A4902F070F80028F9D04A
:100EA00070BD2046074902F069F80028F1D12046BC
:100EB000044902F063F80028F3D0EAE701000300D8
:100EC000820007000200030070B50C4C00220646A9
:100ED0000D462046D021FFF7BFFF20463146FFF7E1
:100EE00039FF20462946FFF735FF2046FFF768FF08
:100EF0000348BDE87040FFF7EFBB00BF005400405F
:100F0000400D030010B5124C2046FFF7E5FB6B20A7
:100F10000321FFF7D9FF6A200021FFF7D5FF372013
:100F20000221FFF7D1FF19200221FFF7CDFF1A2080
:100F30000421FFF7C9FF1B200821FFF7C5FF1C2074
:100F40000021FFF7C1FF2046BDE81040FFF7C4BBFA
:100F500020A1070070B5002282B0D02105462748A5
:100F6000FFF77AFF3B212548FFF7F4FE2348FFF700
:100F700027FF2248D0210122FFF76EFF6C460DF1BA
:100F800005061E48FFF7F4FE04F8010BB442F8D141
:100F90001A48FFF7FFFE9DF804109DF802609DF8C7
:100FA00003209DF800409DF801309FED156A40EA4E
:100FB000012042EA062243EA042300B212B21BB225
:100FC000414252425B4206EE901A07EE102A07EEAB
:100FD000903AF8EEE66AB8EEC77AF8EEE77A66EE8F
:100FE000866A27EE067A67EE867AC5ED026A85ED97
:100FF000017AC5ED007A02B070BD00BF0054004018
:10100000FEFF7F3870B5002282B0D021054625480A
:10101000FFF722FF43212348FFF79CFE2148FFF7FB
:10102000CFFE2048D0210122FFF716FF6C460DF1BC
:1010300005061C48FFF79CFE04F8010BB442F8D1EA
:101040001848FFF7A7FE9DF802609DF803209DF861
:1010500004109DF800409DF801309FED136A42EAAC
:10106000062212B207EE902A40EA012043EA042346
:1010700001B21BB206EE901AB8EEE77A07EE903A8C
:10108000F8EEE66AF8EEE77A66EE866A27EE067A0A
:1010900067EE867AC5ED026A85ED017AC5ED007AC4
:1010A00002B070BD00540040FDB38B39194BDFED29
:1010B0001A7AD3ED006A93ED016A184A1849D2ED05
:1010C000003A91ED015A93ED024AD2ED014A76EED3
:1010D000A77AF7EE005A86EEA77AC6EE277A75EE63
:1010E000C75A25EE477A26EE256A35EE235AA7EE33
:1010F000C64AA3EEA57AE5EE674A66EEA56A83EDD9
:10110000016AC3ED006A83ED024A82ED007AC2ED06
:10111000014A70478C000020C3F57840200A002067
:1011200044110020174BDFED182AD3ED016AD3EDEF
:10113000007A164A164993ED027ADFED163A92EDDF
:10114000013AD1ED005A9FED145A92ED006A9FEDDD
:10115000134ADFED134AE6EEE27A75EEC35AE7EE84
:10116000237AE7EE456AA5EE856A77EE847A37EE54
:10117000247AC3ED007AC3ED016A83ED027A82ED31
:10118000006A70478C0000200E74DA3B200A0020B1
:1011900050110020DC693A370E745A3B1AF47B3543
:1011A00000000000194BDFED1A7AD3ED036A93EDCE
:1011B000046A184A1849D2ED023A91ED005A93EDAB
:1011C000054AD2ED034A76EEA77AF7EE005A86EE8C
:1011D000A77AC6EE277A75EEC75A27EE057A26EE6D
:1011E000256A35EE635AA7EEC64AA3EEA57AE5EE68
:1011F000274A66EEA56A83ED046AC3ED036A83EDB0
:10120000054A82ED027AC2ED034A70478C00002045
:10121000C3F57840200A002044110020174BDFED71
:10122000182AD3ED046AD3ED037A164A164993EDD2
:10123000057ADFED163A92ED033AD1ED015A9FEDB2
:10124000145A92ED026A9FED134ADFED134AE6EE5F
:10125000E27A75EEC35AE7EE237AE7EE456AA5EE29
:10126000856A77EE847A37EE247AC3ED037AC3ED8C
:10127000046A83ED057A82ED026A70478C000020D3
:101280000E74DA3B200A002050110020DC693A3746
:101290000E745A3B1AF47B350000000070B5204DE7
:1012A00006682E6046686E6080681E4CA8600868FC
:1012B0002060486860608968A16016461D46FFF797
:1012C000F5FEFFF72FFFFFF76DFFFFF7A7FF1649AA
:1012D00094ED007AD4ED017AD1ED014A91ED035AF3
:1012E000DFED126AD1ED005A91ED026A37EE647AB1
:1012F00077EEC57A65EEA65A67EE264A27EEA65A1D
:1013000066EE266A81ED047AC1ED057AC6ED014AE2
:10131000C6ED005A85ED015AC5ED006A70BD00BFEB
:101320004411002050110020200A0020E02E6542C8
:10133000094B0A4A93ED016A92ED007AD2ED017AE7
:10134000D3ED036A37EE467A77EEE67A83ED047AD8
:10135000C3ED057A704700BF200A0020501100201D
:10136000D0ED026A90ED007AD0ED037ADFED1B5AE2
:101370009FED1B6A36EEC77AF7EE006AE7EE257A34
:1013800027EE067AF4EEE67AF1EE10FACABFF0EE36
:10139000667AC0ED037AC0ED036A77EE277AD0ED66
:1013A000016A9FED107AE6EEC77AB7EE007AF4EEA6
:1013B000C77AF1EE10FA04DDF0EE477AC0ED047A58
:1013C0007047BFEE007AF4EE477AF1EE10FA48BFAC
:1013D000F0EE477AC0ED047A704700BF00000000CD
:1013E000A69BC43BFAEDEB3AE0BE000800000020EB
:1013F000140A0020140A0020201A00204FF46D4324
:1014000040F0BF60CEF2000340F40030D860704777
:10141000C37870B47BB902784FF46143510920312D
:1014200002F01F020120CEF2000300FA02F243F89C
:10143000212070BC70474FF46D43CEF20003467814
:10144000DA6884780378D243C2F30222C2F104013D
:101450000F25C9B206FA01F145FA02F2C9B22240DB
:101460000A4303F1604303F561431201D2B283F8EA
:10147000002302784FF4614302F01F01012052095A
:10148000CEF2000300FA01F143F8221070BC70475D
:1014900021F060414FF46D4321F07F01CEF2000353
:1014A00008439860704700BF4FF46D43CEF20003CD
:1014B0001A6919B922EA00001861704710431861CF
:1014C000704700BF4EF21003CEF2000304281A68E2
:1014D0000CBF42F0040222F004021A60704700BF01
:1014E0004FF46053C4F202030022196841F0010175
:1014F00019609A60186843F2100120F08470C2F2FB
:10150000004120F4803018605960196821F480216E
:101510001960DA60704700BF43F60203C4F20203A9
:1015200000221A701870704782B000234FF4605286
:101530000193C4F2020213689B030FD4019B013391
:101540000193019BB3F5A06FF5D14FF46053C4F242
:1015500002031868C0F3404002B07047019B01339A
:101560000193019BF1E700BF4FF46053C4F2020303
:101570001A6822F0F80242EAC0001860704700BF03
:101580000023C4F247231860704700BF43F670037E
:10159000C4F20203002201281A701A7005D0042830
:1015A00002D105221A70704770471870704700BF4B
:1015B0004FF46863C4F247231860704710B4019C6D
:1015C00040EA04605B0801434FF46054C4F2020433
:1015D000013B41EA821242EA034363605DF8044B37
:1015E000704700BF6023C4F247231860704700BFF4
:1015F0004FF460530907C4F2020341EA8010C3F8B4
:10160000840070476823C4F247231860704700BF06
:101610004C23C4F247231860704700BF4FF4605357
:10162000C4F202039A6822F0EC6211430843986006
:10163000704700BF4FF46053C4F202039A6822F06F
:101640007842114308439860704700BF4FF46053DD
:10165000C4F202039A6822F00302104398607047B4
:101660004FF46053C4F20203986800F00C00704716
:101670004FF46053C4F202039A6822F0F002104360
:10168000986070474FF46053C4F202039A6822F4E2
:10169000E0521043986070474FF46053C4F2020365
:1016A0009A6822F4604242EAC0009860704700BF26
:1016B0004FF46053C4F2020310B49A6802F00C02B3
:1016C000042A24D0082A28D04FF41051C0F2F40183
:1016D00001604FF46052C4F2020240F2A403946825
:1016E000C2F20003C4F303141C5DE140416094683E
:1016F000C4F382241C5D21FA04F4846092685DF8CE
:10170000044BC2F342329B5CD940C160704747F63C
:101710004001C0F27D110160DBE75C685A6814F497
:10172000800F5C6815BF47F640034FF41053C0F2BA
:101730007D13C0F2F40302F03F02B3FBF2F14FF469
:101740006053C4F20203C4F388145B68C3F301431B
:10175000013301FB04F15B00B1FBF3F10160B8E779
:1017600000F44073B3F5407F0CD14FF46053C4F2E2
:10177000020320F070419A6821F4407122F4F812BB
:101780000A439A604FF46053C4F20203C0F30B00A3
:101790001A6F10431867704740F63C63C4F2472342
:1017A000186070474FF46463C4F2472318607047B1
:1017B0004FF4AE73C4F24723186070474FF4605380
:1017C000C4F202031A6B19B922EA000018637047C9
:1017D00010431863704700BF4FF46053C4F2020314
:1017E0005A6B19B922EA00005863704710435863D6
:1017F000704700BF4FF46053C4F202039A6B19B9EB
:1018000022EA00009863704710439863704700BF56
:101810004FF46053C4F202031A6C19B922EA0000B3
:101820001864704710431864704700BF4FF460534A
:10183000C4F202035A6C19B922EA000058647047D6
:1018400010435864704700BF4FF46053C4F2020362
:101850001A6919B922EA000018617047104318612B
:10186000704700BF4FF46053C4F202035A6919B9BC
:1018700022EA00005861704710435861704700BF6A
:101880004FF46053C4F202039A6919B922EA0000C6
:101890009861704710439861704700BF4FF46053E0
:1018A000C4F202031A6A19B922EA000018627047EA
:1018B00010431862704700BF4FF46053C4F2020334
:1018C0005A6A19B922EA00005862704710435862F8
:1018D000704700BF4FF46053C4F202031A6D19B988
:1018E00022EA00001865704710431865704700BF72
:1018F0004FF46053C4F202035A6D19B922EA000092
:101900005865704710435865704700BF4FF46053E7
:10191000C4F202039A6D19B922EA00009865704773
:1019200010439865704700BF4FF46053C4F2020340
:101930001A6E19B922EA000018667047104318663B
:10194000704700BF4FF46053C4F202035A6E19B9D6
:1019500022EA00005866704710435866704700BF7F
:1019600043F60D03C4F202031A7819B922EA000003
:101970001870704710431870704700BF4309012B5F
:101980000ED0022B4FF46053C4F2020300F01F008C
:101990000CBF1B6F5B6F23FA00F000F00100704773
:1019A0004FF46053C4F2020300F01F001B6823FAD7
:1019B00000F000F0010070474FF46053C4F20203DE
:1019C0005A6F42F080725A67704700BF4FF46053FD
:1019D000C4F20203DB6818420CBF002001207047EC
:1019E00043F60E03C4F20203187070474FF47053AD
:1019F000C4F201034FF6FF710022C0F27F011A60AA
:101A00005A609A60DA605961704700BF837970B498
:101A100043B34FF47053C4F2010301681E680279A6
:101A20004579CC4326401E605E6802F1804202F593
:101A30009E3234405C6014682143116002689868EB
:101A4000D14308409860D868102D01EA0001D960A0
:101A500014D005F1804505F59E352B681A432A60A0
:101A600070BC70470379016803F1804303F59E332E
:101A700070BC1A6822EA01021A6070479968114323
:101A80009960D9680A43DA6070BC704700230C2261
:101A90004271036003718371704700BF4FF470534C
:101AA000C4F201031A691043186170474FF4705370
:101AB000C4F201035B6918420CBF0020012070478B
:101AC0004FF47053C4F20103586170474FF47053E0
:101AD000C4F201031A685B69034004D010420CBFD2
:101AE0000020012070471846704700BF4FF4705324
:101AF000C4F201035861704708B50023C4F2020321
:101B000098423CD04FF48063C4F20203984240D024
:101B10004FF40063C4F20203984244D04FF4406390
:101B2000C4F20203984248D04FF48053C4F2020337
:101B300098424CD04FF4A053C4F20203984250D0C4
:101B40004FF4C053C4F20203984254D04FF4E05310
:101B5000C4F20203984258D04FF40053C4F2020377
:101B6000984200D008BD4FF480700121FFF76CFE51
:101B70004FF480700021BDE80840FFF765BE0120EA
:101B80000146FFF761FE01200021BDE80840FFF794
:101B90005BBE02200121FFF757FE02200021BDE8B5
:101BA0000840FFF751BE04200121FFF74DFE04203D
:101BB0000021BDE80840FFF747BE08200121FFF7DC
:101BC00043FE08200021BDE80840FFF73DBE10207D
:101BD0000121FFF739FE10200021BDE80840FFF782
:101BE00033BE20200121FFF72FFE20200021BDE879
:101BF0000840FFF729BE40200121FFF725FE4020C5
:101C00000021BDE80840FFF71FBE80200121FFF73B
:101C10001BFE80200021BDE80840FFF715BE00BF75
:101C200000222DE9F04313460E6801274FF0030C04
:101C300004E00133102B02F102022ED007FA03F464
:101C400004EA0605A542F4D1D0F8008091F804E03A
:101C50000CFA02F4E44304EA0808C0F80080D0F863
:101C600000800EFA02F90EF1FF3E5FFA8EFE49EA9D
:101C70000808BEF1010FC0F8008010D9C56891F8BE
:101C800007E02C40C460C5680EFA02F401332C430F
:101C9000102BC46002F10202D0D1BDE8F083D0F86D
:101CA000089091F8058091F806E004EA0909C0F867
:101CB0000890D0F8089008FA02F848EA0908C0F835
:101CC0000880D0F8048028EA0505456045680EFACA
:101CD00003FE1FFA8EFE4EEA05054560CEE700BF03
:101CE00000234FF6FF720260037143718371C37169
:101CF000704700BF82B04FF480330193019B0B43C8
:101D00000193019BC361C161019BC361C3690193DD
:101D1000C369019302B07047036919420CBF0020E8
:101D200001207047006980B2704700BF43691942C3
:101D30000CBF002001207047406980B2704700BF8F
:101D400001837047418370470AB94183704701831B
:101D5000704700BF41617047436959404161704716
:101D6000CB0800EB830001F0070110B48900046A7E
:101D70000F238B4024EA03030362036A5DF8044BDC
:101D80008A4013430362704708B50023C4F201037D
:101D900098425BD0B0F1804F62D04FF48063C4F2C0
:101DA0000003984266D04FF40063C4F200039842E7
:101DB0006AD04FF44063C4F2000398426ED04FF4EF
:101DC0008053C4F20003984272D04FF4A053C4F27F
:101DD0000003984276D04FF48063C4F20103984226
:101DE0007AD04FF48043C4F2010398427ED04FF47E
:101DF0008843C4F20103984200F084804FF490437A
:101E0000C4F20103984200F089804FF4C053C4F239
:101E10000003984200F08E804FF4E053C4F20003B8
:101E2000984200F091804FF40053C4F200039842AE
:101E300000D008BD4FF480700121FFF72FFD4FF453
:101E400080700021BDE80840FFF728BD0120014651
:101E5000FFF732FD01200021BDE80840FFF72CBD4F
:101E600001200146FFF71AFD01200021BDE80840CE
:101E7000FFF714BD02200121FFF710FD0220002111
:101E8000BDE80840FFF70ABD04200121FFF706FD69
:101E900004200021BDE80840FFF700BD0820012113
:101EA000FFF7FCFC08200021BDE80840FFF7F6BC66
:101EB00010200121FFF7F2FC10200021BDE80840AE
:101EC000FFF7ECBC20200121FFF7E8FC20200021D7
:101ED000BDE80840FFF7E2BC02200121FFF7ECFC5F
:101EE00002200021BDE80840FFF7E6BC4FF4803037
:101EF0000121FFF7E1FC4FF480300021BDE80840EC
:101F0000FFF7DABC4FF400300121FFF7D5FC4FF4A6
:101F100000300021BDE80840FFF7CEBC4FF4802020
:101F20000121FFF7C9FC4FF480200021BDE80840E3
:101F3000FFF7C2BC40200121FFF7B0FC4020002188
:101F4000BDE80840FFF7AABC80200121FFF7A6FCEE
:101F500080200021BDE80840FFF7A0BC70B400223B
:101F60004FF48064C4F201020388C4F20104904279
:101F700018BFA0429BB214BF0022012208D04FF428
:101F80008064C4F20004A04218BFB0F1804F23D196
:101F90004FF68F754C881D4045EA04034FF4A05658
:101FA0004FF48055C4F20005C4F20006B04218BFD9
:101FB000A8421FBF0D894FF6FF441C4044EA0503A9
:101FC0004D680C880380C56204850AB18B7A03864C
:101FD0000123838270BC70474FF400654FF4406466
:101FE000C4F20005C4F20004A04218BFA842D5D133
:101FF000CEE700BF00234FF0FF3242600380038131
:1020000043808372704700BF01858282704700BFA2
:10201000038823F070031B041B0C194301807047D5
:1020200041627047C1627047406A7047008D80B25C
:10203000704700BF038829B923F002031B041B0C5F
:10204000038070479BB243F002030380704700BFD8
:10205000038829B923F004031B041B0C0380704779
:102060009BB243F004030380704700BF038829B983
:1020700023F080031B041B0C038070479BB243F0CA
:1020800080030380704700BF038823F008031B040C
:102090001B0C038003889BB219430180704700BF6B
:1020A000038823F440731B041B0C038003889BB23A
:1020B00019430180704700BF038829B923F0010349
:1020C0001B041B0C038070479BB243F00103038089
:1020D000704700BFF0B5048C8D89B1F802E00F881D
:1020E00024F001042404240C0484028C8488038BCF
:1020F0004EEA050E22F0020223F073034FF48066CD
:10210000002512041B04C4F20106C4F20105120CDE
:102110001FFA8EFE1B0CA84218BFB0424EEA020204
:10212000A4B243EA070317D14FF6F775B1F80EE0F2
:10213000B1F812C00E8A8F88154045EA0E0E4FF690
:10214000FB724CEA06064FF6FF450EEA0202B6B2F3
:1021500025403A4346EA0504896884800383416345
:102160000284F0BD2DE9F041048C8D89B1F802E0C4
:102170000F8824F010042404240C0484028C848826
:10218000038B22F02002120423F4E643120C42EAED
:1021900005121B044FF4806600251B0CC4F20106D7
:1021A000C4F2010542EA0E1243EA0723A84218BF0F
:1021B000B04292B2A4B29BB219D14FF67F76B1F879
:1021C0000E80B1F810C0B1F804E04F8A16404FF20B
:1021D000FF3546EA08164FF6BF722540324045EA01
:1021E0008C0442EA0E1244EA870492B2A4B28968CF
:1021F0008480038381630284BDE8F0812DE9F0418E
:10220000048C8D89B1F802E00F8824F480742404D2
:10221000240C0484028C8488838B22F400721204C0
:10222000120C42EA052223F073034FF48066002566
:102230001B04C4F20106C4F2010542EA0E221B0C83
:10224000A84218BFB04292B2A4B243EA070319D120
:102250004FF2FF76B1F80E80B1F810C0B1F804E08B
:102260004F8A16404CF6FF7546EA08264FF6FF32B5
:102270002540324045EA0C1442EA0E2244EA071493
:1022800092B2A4B2896884808383C1630284BDE86A
:10229000F08100BFF0B5048C8D89B1F802E00F88A1
:1022A00024F480542404240C0484028C8488838BBA
:1022B00022F400521204120C42EA05324FF48066F6
:1022C0000025C4F20105C4F20106A84218BFB042BD
:1022D00023F4E64308BF0E8A8968A4B208BF4BF610
:1022E000FF754FEA034308BF25404FEA134308BF79
:1022F00045EA861442EA0E3243EA072392B29BB2C1
:1023000008BFA4B28480838301640284F0BD00BF4F
:10231000002303804380838083608381C3810382A1
:102320004382704730B4058C0124ADB28C404FF627
:10233000F77325EA04040B400484183073B10439A0
:10234000C1F34E0148F6FF730C5823400B501202A4
:102350000B5892B21A430A5030BC704749084FF6E6
:102360008F7344582340435043581A43425030BC63
:10237000704700BF4163704781637047C163704716
:1023800001647047038B23F070031B041B0C19437B
:1023900001837047038B23F4E0431B041B0C43EAC7
:1023A00001218BB203837047838B23F070031B04DE
:1023B0001B0C194381837047838B23F4E0431B0478
:1023C0001B0C43EA01218BB283837047038B23F0FC
:1023D00008031B041B0C194301837047038B23F470
:1023E00000631B041B0C43EA01218BB2038370477B
:1023F000838B23F008031B041B0C19438183704754
:10240000838B23F400631B041B0C43EA01218BB272
:1024100083837047038B23F004031B041B0C1943B5
:1024200001837047038B23F480631B041B0C43EA76
:1024300001218BB203837047838B23F004031B04B9
:102440001B0C194381837047838B23F480631B0427
:102450001B0C43EA01218BB283837047038B23F06B
:1024600080031B041B0C194301837047038BC3F3C8
:102470000E0343EA01218BB203837047838B23F061
:1024800080031B041B0C194381837047838BC3F3A8
:102490000E0343EA01218BB283837047038C23F040
:1024A00002031B041B0C194301847047038C23F0A7
:1024B00008031B041B0C194301847047038C23F091
:1024C00020031B041B0C43EA01118BB203847047E9
:1024D000038C23F080031B041B0C43EA01118BB215
:1024E00003847047038C23F400731B041B0C43EA22
:1024F00001218BB203847047038C23F400631B0417
:102500001B0C43EA01218BB203847047038C23F434
:1025100000531B041B0C43EA01318BB20384704748
:10252000038C10B401248C409BB223EA040303847F
:10253000038C5DF8044B8A4013439BB203847047BD
:10254000038C10B404248C409BB223EA040303845C
:10255000038C5DF8044B8A4013439BB2038470479D
:102560000B88F0B4002B32D0042B59D0082B4E88A6
:10257000038C00F084808F880D89CC8823F48051EF
:102580000904090C0184828B038C22F4407223F429
:10259000005312055B04120D5B0C42EA072243EA6A
:1025A000063342EA05329BB243F4805392B28283EF
:1025B0000384838B23F440631B041B0C8383838B72
:1025C0009BB243EA04239BB28383F0BC7047038C25
:1025D0004E888D880F89CC8823F001010904090CED
:1025E0000184028B038C22F0F3021204120C23F0FC
:1025F0000A0342EA07121B0446F0010192B21B0CC7
:102600002A430B4302830384038B23F00C031B0434
:102610001B0C0383038B9BB223430383F0BC7047E3
:10262000038C4E888D880F89CC8823F01001090413
:10263000090C0184028B038C22F44072120523F0F2
:10264000A003120D1B0442EA07321B0C43EA0613D7
:1026500092B242EA05229BB243F0100392B2028387
:102660000384038B23F440631B041B0C0383038B41
:102670009BB243EA04239BB20383F0BC70478D886E
:102680000F89CC8823F480710904090C0184828BA2
:10269000038C22F0F30223F4206312041B04120CB7
:1026A0001B0C42EA071243EA062392B29BB243F4A0
:1026B00080732A4382830384838B23F00C031B04DF
:1026C0001B0C8383838B9BB2234383837DE700BFF3
:1026D00000230122828003804380C38003817047EE
:1026E0002DE9F0414B888E880A88002B0CBF022709
:1026F0000027012E14BF4FF0010E4FF0020E002AEA
:1027000055D0058CB1F80880B1F806C025F0100549
:102710002D042D0C0584048B018C24F440742405B5
:1027200021F0A001240D0904090C44EA083441EA0F
:102730000313A4B244EA06269BB243F01003B6B2D8
:1027400006830384018B21F440610904090C018391
:10275000038B9BB243EA0C239BB20383018C21F0D1
:1027600001010904090C0184028B038C22F0F3029D
:10277000120423F00A03120C1B0442EA08121B0C79
:1027800043F0010392B21F4342EA0E0EA0F818E094
:102790000784038B23F00C031B041B0C0383038BA4
:1027A0009BB243EA0C0CA0F818C0BDE8F081028C83
:1027B000B1F808C0CD8822F001021204120C028484
:1027C000018B048C21F0F3010904090C24F00A04A4
:1027D00041EA0C11240443F0010389B2240C1C4388
:1027E0000E4306830484038B23F00C031B041B0C91
:1027F0000383038B9BB22B430383038C23F01003CF
:102800001B041B0C0384028B038C22F44072120500
:1028100023F0A003120D1B0442EA0C321B0C43F000
:10282000100392B243EA071742EA0E2EA0F818E00E
:102830000784038B23F440631B041B0C0383038B6B
:102840009BB243EA0525ADB20583BDE8F08100BF28
:10285000406B7047806B7047C06B7047006C70476F
:10286000038B23F00C031B041B0C0383038B9BB211
:1028700019430183704700BF038B23F440631B049B
:102880001B0C0383038B9BB243EA01218BB20383AE
:10289000704700BF838B23F00C031B041B0C838346
:1028A000838B9BB219438183704700BF838B23F4D2
:1028B00040631B041B0C8383838B9BB243EA01217F
:1028C0008BB28383704700BFF0B50B88B1F802E08C
:1028D0008F88CE880D894C898A894EEA03033B4351
:1028E00033432B43234313439BB2A0F84430F0BD42
:1028F0000023038043808380C380038143818381DD
:10290000704700BFB0F8443021B9C3F30E03A0F8FC
:10291000443070476FEA43436FEA53439BB2A0F8D9
:1029200044307047838829B923F004031B041B0C2F
:10293000838070479BB243F004038380704700BFDD
:10294000838829B923F001031B041B0C8380704783
:102950009BB243F001038380704700BF83899BB221
:102960001AB923EA010181817047194381817047B7
:1029700081827047038A19420CBF002001207047F2
:10298000C94389B201827047038A828911420CBF10
:102990000020012019420CBF002000F00100704708
:1029A000C94389B2018270470A43A0F848207047A2
:1029B00083899BB21AB923EA0101818170471943C7
:1029C00081817047838829B923F008031B041B0CFD
:1029D000838070479BB243F008038380704700BF39
:1029E000038923F007031B041B0C0381704700BFFE
:1029F000038923F070031B041B0C19430181038915
:102A00009BB243F007030381704700BF602970B495
:102A100027D0068C26F001063604360C0684058B7A
:102A2000048C25F0F3052D0424F00A042D0C240455
:102A300045F00105240C45EA031344F001049BB260
:102A4000224303830284038923F070031B041B0CBD
:102A50000B43038103899BB243F00703038170BCDE
:102A60007047048C24F010042404240C0484058B87
:102A7000048C25F4407524F0A0042D0524042D0DAC
:102A8000240C45F4807544F0100445EA033344EA0D
:102A900002129BB292B203830284D4E710B4048979
:102AA00042EA0323E4B223439BB219430181038921
:102AB0005DF8044B23F077031B041B0C43F07703F2
:102AC0000381704710B4048942EA0323E4B223432C
:102AD0009BB21943018103895DF8044B9BB243F417
:102AE00080430381704700BF038923F070031B04F8
:102AF0001B0C194301817047838823F070031B046A
:102B00001B0C838083889BB219438180704700BF70
:102B1000038923F007031B041B0C038103899BB269
:102B200019430181704700BF038923F080031B0410
:102B30001B0C038103899BB219430181704700BFBD
:102B400010B40489E4B221430A4342EA03239CB24D
:102B500004815DF8044B704770B40589048B068CC2
:102B600024F4407426F0220624F003043604360CC4
:102B700025F00705240432432D04240C2D0C44F4C5
:102B8000807442EA0313294344F001049EB2018198
:102B90000483068470BC7047838829B923F08003BE
:102BA0001B041B0C838070479BB243F0800383801F
:102BB000704700BFA0F85010704700BF08B54FF431
:102BC000A843C4F20003984218D04FF4B043C4F2B3
:102BD000000398421ED04FF4B843C4F20003984259
:102BE00000D008BD4FF400000121FEF757FE4FF45E
:102BF00000000021BDE80840FEF750BE4FF4001071
:102C00000121FEF74BFE4FF400100021BDE8084003
:102C1000FEF744BE4FF480000121FEF73FFE4FF463
:102C200080000021BDE80840FEF738BEF0B504463C
:102C300085B068460D46A688FEF73AFD4DF68363DB
:102C400002992A68C4F21B33A3FB010326F03F0656
:102C50009F0C3604360C1FFA87FE4EEA0606A68045
:102C6000238848F2A06023F001031B04C0F2010096
:102C70001B0C8242238024D85300B1FBF3F39BB298
:102C80000EF1010E032B98BF0423A4F820E0A383C8
:102C900023886E89A8882989AA899BB243F00103F9
:102CA0002380238823F4816323F002031B04304331
:102CB0001B0C03430A439BB292B22380228105B0CE
:102CC000F0BDE8884BF6FF7398421DBF02EB82020D
:102CD00002EB8202B1FBF2F302EB42020BBFB1FB4B
:102CE000F2F39BB29BB243F48043C3F30B020AB9E5
:102CF00043F001034FF4967144F6D35201FB07F7FA
:102D0000C1F2620282FB07129209013243F40043CE
:102D10002284BCE7002310B44BF6FF7141F28834E3
:102D20004FF480420460C1808281838003814381AB
:102D30005DF8044B704700BF038829B923F00103F5
:102D40001B041B0C038070479BB243F001030380FC
:102D5000704700BF038829B923F480731B041B0C40
:102D6000038070479BB243F480730380704700BFB9
:102D7000038829B923F400731B041B0C03807047DC
:102D80009BB243F400730380704700BF1AB901F08F
:102D9000FE010182704741F001010182704700BFCE
:102DA000038829B923F480631B041B0C038070473C
:102DB0009BB243F480630380704700BF838923F094
:102DC000FE031B0401F0FE011B0C0B4383817047C3
:102DD000838929B923F001031B041B0C83817047ED
:102DE0009BB243F001038381704700BF038829B978
:102DF00023F040031B041B0C038070479BB243F07D
:102E000040030380704700BF038819B9C3F30E0362
:102E1000038070476FEA43436FEA53439BB20380DA
:102E2000704700BF038829B123F080031B041B0CEB
:102E3000038070479BB243F080030380704700BF5C
:102E4000838BB1F5804F1BBF23F480431B049BB2DF
:102E50001B0C08BF43F48043838370470388B1F59C
:102E6000006F15BF23F400639BB21B0443F400639F
:102E700018BF1B0C038070470388B1F5005F15BFB6
:102E800023F400539BB21B0443F4005318BF1B0CE4
:102E900003807047038829B923F010031B041B0C1F
:102EA000038070479BB243F010030380704700BF5C
:102EB00001827047008AC0B2704700BF038829B9F9
:102EC00023F480531B041B0C038070479BB243F414
:102ED00080530380704700BF0388B1F5006F15BFB2
:102EE00023F400639BB21B0443F4006318BF1B0C64
:102EF00003807047038829B923F020031B041B0CAF
:102F0000038070479BB243F020030380704700BFEB
:102F1000008BC0F307207047838829B923F400632E
:102F20001B041B0C838070479BB243F400638380B7
:102F3000704700BF838829B923F480531B041B0CFE
:102F4000838070479BB243F480538380704700BFF7
:102F500082B0002301930190019B19440191019BD0
:102F6000188880B202B0704783889BB21AB923EAEE
:102F7000010181807047194381807047828A038BE9
:102F800090B240EA034021F07F4318400B1A5842A8
:102F900058417047828A038B90B240EA034020F088
:102FA0007F40704782B000230A0F00930193019085
:102FB0000092009B21F07F4153B1019B1433019398
:102FC000019B1B6819420CBF0020012002B0704712
:102FD000019B1833090C0193F2E700BFC94389B282
:102FE000818270478388808A80B208409BB206D075
:102FF00001F0E06113EA11410CBF0020012070478D
:10300000C94389B28182704710B5D0F8E4350446CF
:103010001B699847032384F81231002010BD00BFBC
:1030200008B50422D0F8E43580F81221DB6898470F
:10303000002008BD08B5D0F8E035DB6903B198473A
:10304000002008BD08B5D0F8E0351B6A984700207D
:1030500008BD00BF08B5D0F8E0355B6A984700208E
:1030600008BD00BF002110B50B460446402201F008
:10307000E7FA802120464022002301F0E1FA0122F4
:10308000D4F8E43584F81221A0785B6898470020D2
:1030900010BD00BF10B582B06946044600F03AF991
:1030A0009DF8001001F01F03012B18D010D3022B44
:1030B00007D0204601F0800101F03CFB002002B067
:1030C00010BD2046694600F0F9FA002002B010BD9C
:1030D0002046694600F05AF9002002B010BD204693
:1030E000694600F0D1FA002002B010BD70B5044668
:1030F00029B990F81131022B0CD0002070BDD0F806
:10310000E0355B69002BF8D090F81221032AF4D146
:103110009847F2E7D0F83421D0F820319A4210D9FC
:10312000C1780129D0F82411C3EB020208BFC918E5
:10313000C0F8342108BFC0F8241192B200F0A2F800
:10314000DBE7D0F83851B5FBF3F603FB16565EB952
:10315000AB4209D8D0F83C319D4205D2324600F04E
:1031600091F8C4F83C61C8E7D4F8E035DB681BB1DE
:1031700094F81221032A03D0204600F0B3F8BCE7EC
:1031800020469847F8E700BF10B5044629B990F8E3
:103190001131032B0CD0002010BDD0F8E0359B6915
:1031A000002BF8D090F81221032AF4D19847F2E7C7
:1031B000D0F88C23D0F878339A4212D9C1780129FB
:1031C000D0F87C13C3EB020204BFC918C0F87C130B
:1031D000C0F88C239A4228BF1A4692B200F06AF8CF
:1031E000D9E7D0F8E0351B691BB190F81221032A0A
:1031F00003D0204600F066F8CDE79847F9E700BF16
:103200002DE9F041069D0446174698460E46FDF707
:103210000DFD20463146C4F8E085C4F8E455C4F8F5
:10322000E87501F0BFF9D4F8E4351B6898472046EB
:10323000BDE8F041FDF750BD00207047D0F8E03503
:1032400010B504461B689847D4F8E4359B68984746
:10325000002010BD08B5D0F8E0355B689847002025
:1032600008BD00BF38B5134602250A46C0F83831FC
:10327000C0F8343180F81151002101F03FFA0020EC
:1032800038BD00BF08B513460A46002101F036FAE2
:10329000002008BD38B5134603250A46C0F8903310
:1032A000C0F88C3380F81151002101F00BFA002096
:1032B00038BD00BF08B513460A46002101F002FAE6
:1032C000002008BD10B50021042304460A4680F8FA
:1032D00011310B4601F012FA204601F069F8002086
:1032E00010BD00BF10B50021052304460A4680F832
:1032F00011310B4601F0E6F9204601F059F80020A3
:1033000010BD00BF01EB810100EBC100B0F88803E4
:10331000704700BF90F8C8350B7090F8C9354B70F6
:1033200090F8CB2590F8CA3503EB02234B8090F838
:10333000CD2590F8CC3503EB02238B8090F8CF2578
:1033400090F8CE3503EB02239BB20122CB80C0F86C
:103350003C3180F81121704710B591F90030002BF5
:10336000044609DBCB883BB1002101F0E3F920469C
:10337000BDE8104001F01CB82046802101F0DAF9C8
:103380002046BDE8104001F013B800BF70B54B787F
:1033900082B00C460546092B0CD8DFE803F0354C0B
:1033A0000B600B05770B8D12A3881BB9E388002BEC
:1033B00000F0988028462146FFF7CEFF002002B09B
:1033C00070BDA17840F64026C2F200060129317096
:1033D000F0D890F81231022B00F09F80032BE9D136
:1033E000002900F03F8190F81011012900F032818E
:1033F000FFF730FF3178284685F81011FFF71EFFE0
:103400002846FFF75FFFD9E790F812310122023B0F
:1034100093424FF00301CDD8D0F81431002B5BD18B
:1034200040F64023C2F200039A60284694490122E4
:10343000FFF718FFC2E790F81231023B012BB9D811
:103440006388012BBAD1D0F8E03500229B68C0F820
:103450001421214698472846FFF734FFAEE76388DA
:10346000012B00F0F080022BA8D1A38813F0FF0FEE
:10347000A4D102691B0A5068013B0146042B00F2EB
:10348000FC80DFE803F09E9A92A6A2006288130AED
:10349000013B062B8ED801A151F823F08935000895
:1034A0004B35000839350008B5330008B53300083E
:1034B000B5330008B5330008E288012A7FF47AAFFB
:1034C00090F81231022B24D0032B7FF473AF00F558
:1034D0008871FFF7C7FE71E740F64023C2F2000390
:1034E0009960A2E790F81231A678032B06F07F06C8
:1034F0003FF460AF80F81361314601F065F928466A
:10350000FFF7E0FE002E00F0A980022385F81231BB
:1035100054E75C49FFF7A6FE50E7002900F09A80C7
:103520000121032380F8101180F81231FFF786FE85
:103530002846FFF7C7FE41E7D2B2052A3FF63AAF69
:10354000DFE802F0786F665D544BD0F8E0358078A4
:103550009B6A0DF106019847022343700146C5F8A6
:10356000EC05BDF80630002B3FF428AFE288002AB6
:103570003FF424AF934228BF13461A462846ADF8BD
:103580000630FFF76FFE19E7D0F8E83580781B6842
:103590000DF106019847E288402A014603D095F8CC
:1035A0001231012BDDD10823E1E7032363F3061178
:1035B00051602846FFF786FE00E7022363F30611F9
:1035C000F6E7012363F30611F2E7052363F306111F
:1035D000EEE7042363F30611EAE7D0F8E8358078D4
:1035E0009B690DF1060198470146BAE7D0F8E83526
:1035F00080785B690DF1060198470146B1E7D0F884
:10360000E83580781B690DF1060198470146A8E767
:10361000D0F8E8358078DB680DF10601984701465F
:103620009FE7D0F8E83580789B680DF10601984750
:10363000014696E7D0F8E83580785B680DF1060121
:10364000984701468DE7D0F8E025C0F814312146AF
:10365000936898472846FFF735FEAFE6012385F8C3
:103660001231ABE6022380F8101180F81231FFF717
:10367000F1FD2846FFF726FEA0E6014698E700BFC9
:10368000480A0020440A002038B590F81231032B74
:1036900004460D4602D10B79012B03D9FFF75CFEDE
:1036A000002038BDD0F8E0359B689847EB88002BA8
:1036B000F6D12046FFF706FEF2E700BF70B54B7863
:1036C0008A88012B0C460546D6B221D016D3032B8F
:1036D00012D190F81231022B14D0032B3ED14B881B
:1036E0000BB973064FD1D5F8E03521469B682846C3
:1036F00098472846FFF7E6FD002070BD90F812318C
:10370000022B14D17206F7D0314601F013F8F3E71B
:1037100090F81231022BF5D0032B1FD14B88002BD0
:10372000EAD17106E5D0314601F022F8DBE7032B40
:1037300014D1130616D406EB860600EBC60696F8DF
:103740007233CBB940F64023C2F200030022DA60A4
:1037500028460F490222FFF785FDCDE7FFF7FCFD64
:10376000002070BD06F07F0606EB860600EBC6065D
:1037700096F81A31002BE5D040F64023C2F2000340
:103780000122DA60E4E7314600F0D4FFABE700BF86
:103790004C0A002030B4F0B10378F3B104460023A2
:1037A00014F8015F0133DBB2002DF9D15B00023365
:1037B000DCB2032513800C704D7002785AB10223DD
:1037C00000255C1CE4B2CA540D5510F8012F0233D9
:1037D000DBB2002AF5D130BC704702242346E8E76B
:1037E00038B540F2E404C2F200042068FF2810D08B
:1037F00040F2380240F65023C2F20003C2F2000247
:1038000041F2142195681A68C2F20001A847FF230B
:103810002360002038BD00BF43230B800048704761
:10382000E800002070B540F65024C2F2000463683E
:103830005A1C052B626001D0002070BD227A002343
:10384000012A6360F8D0E1682569B1F5006F29D0DD
:10385000A9422CD098BF8EB221D9C1F5006565610F
:103860008EB2D0F8EC35B3F83930AB4224BF002229
:10387000626141F21C222EBF4919C918C3EB05052C
:10388000C2F2000239BFE1606561E160ABB232446F
:1038900001258121257200F031FF002070BD6D1AD5
:1038A0006561DEE7E3601E461946002DF7D100236F
:1038B0002372C1E738B501EB810140F2380300EB18
:1038C000C101C2F2000341F2D4140546C2F2000461
:1038D000B1F888131B6920469847D5F8EC35224685
:1038E000B3F840302846012100F0ECFE002038BD3E
:1038F00070B50B7813F060050C4606461ED0202DDF
:1039000018D1CD88002D54D01B0636D440F2E406E1
:1039100040F650234C78C2F20006C2F2000341F296
:1039200014212A46C2F2000134601D60FFF7B2FC88
:10393000002070BDFFF710FD022070BD4B780A2BF0
:1039400031D00B2B0FD0062BF2D14B881B0A212B29
:1039500003D1CA883A2A28BF3A2230461C49FFF7C9
:1039600081FC002070BD8B78002B2DD140F65022B9
:10397000C2F200021846936170BD40F23803C2F2F1
:10398000000341F214212A469B686078C2F20001CC
:10399000984741F214213046E288C2F20001FFF755
:1039A00061FC002070BD0B490122FFF75BFC28463B
:1039B00070BD40F23803C2F2000348789B68294684
:1039C0002A469847284670BDFFF7C6FC284670BDBA
:1039D000FA000020680A002010B58121044600F09A
:1039E00055FE2046012100F051FE8221204600F0C4
:1039F0004DFE40F23803C2F200035B689847002096
:103A000010BD00BFD0F8EC2538B504468121022353
:103A1000B2F8392000F014FED4F8EC352046B3F8A3
:103A200040200121022300F00BFE204682210822C3
:103A3000032300F005FE40F24C0340F23802C2F2CC
:103A40000003C2F200020221002519715D711368A2
:103A50009847D4F8EC3541F2D412B3F84030204600
:103A6000C2F20002012100F02DFE284638BD00BF41
:103A700038B540F65021C2F200010B7A012B01D07B
:103A8000002038BD4C69E4B1D0F8EC35CD68B3F80E
:103A900039309C420FD82B190022CB60ADB223469F
:103AA0004A6141F21C22C2F200022A44812100F044
:103AB00025FE002038BD5A19E41A4C61CA60ADB227
:103AC000EFE70C72002038BD30B5054683B0002307
:103AD00003200193FDF718F92B681A694FF4546419
:103AE0000192C0F2030406E0FDF70EF92B681A6993
:103AF000013C01921BD0019A002A4FF00300F3DA37
:103B0000019A42F001020192019A1A6119694FF477
:103B100054620191C0F2030203E01969013A019174
:103B200002D00199C907F8D40320FDF7EDF8002071
:103B300003B030BD30B4C5786DB900EB82000333FB
:103B40009B10D0F8D04006D02A4651F8040B013221
:103B500093422060F9D1002030BC7047033270B42A
:103B60009510D0F8D06009D00A460023346801339C
:103B70009D4242F8044BF9D101EB8501084670BC27
:103B8000704700BF2DE9F047012440220023A142E5
:103B900084708280C37068D0002945D04278C360A9
:103BA0004FF40061016190F80080002A7DD09C46AE
:103BB0004FF460674FF4886A4FF480694FEA421E01
:103BC000002302460CF510660CF53065F418E91870
:103BD000203373459461516502F10402F6D10CF56E
:103BE000A062C0F81490C0F8CCA002EB48140146C3
:103BF000B8F1000F13D0C1F890202032A24201F199
:103C00000401F8D10CF5805303EB08310246C2F8E9
:103C1000D03003F580538B4202F10402F7D1C0F893
:103C20000C710020BDE8F0870023C4F204034FF0BC
:103C30000C0806224FF4A0654FF460674FF4886AC1
:103C40004FF480694FF40064C1729C4680F8008094
:103C50004270C580C4F20407C4F2040AC4F2040925
:103C6000C4F20404C3600461A8E74FF0080804220A
:103C70004FF4A07602254FF460674FF4886A4FF442
:103C800080694FF400644FF0A043C17280F8008057
:103C90004270C6800572C5F20007C5F2000AC5F27F
:103CA0000009C5F200049C46DCE794464FF46067C7
:103CB0004FF4886A4FF4806991E700BF38B5037A02
:103CC000012B04464FF0000530D050F80C2FD3687C
:103CD00043F04003D360FFF7F7FE237A627A032BA9
:103CE00014BF4FF434134FF43C130AB143F4801360
:103CF000E26814209363FDF719F8E368227AD96823
:103D0000032A0CBF41F480320A46DA60227A032A81
:103D100037D0E378012B07D1E3689D68052262F371
:103D2000440545F020059D60002038BDC268417AF9
:103D3000936B65F3104309B143F480139363D36825
:103D400023F4800323F0500343F010036FF3C30305
:103D50006FF3C7136FF351436FF3D343D36004F191
:103D60000C00FFF7B1FEE378012BDDD1052363F3EF
:103D70004405E36845F020059D60E378012BCBD036
:103D8000D2E71D6B012262F39B656FF3D7552D229D
:103D900045F0805562F316451D63C820FCF7C6FF49
:103DA000E36845F400051D63C820FCF7BFFFB0E7DA
:103DB000C3689A6842F001029A600020704700BF11
:103DC000C3689A6822F001029A600020704700BF21
:103DD00000B583B000230193019B43F020030193BE
:103DE000019B61F38A130193019BC1680B610A690E
:103DF0004FF454630192C0F2030303E00A69013BEC
:103E0000019202D0019A9006F8D40320FCF77CFFBF
:103E1000002003B05DF804FB00B583B000230193DC
:103E2000019B43F010030193019BC1680B610A6978
:103E30004FF454630192C0F2030303E00A69013BAB
:103E4000019202D0019AD206F8D40320FCF75CFF5D
:103E5000002003B05DF804FBC26808B5D3686FF3B7
:103E60005D736FF39E73012908BF43F0005302D0C6
:103E700009B943F08043D3603220FCF757FF00209C
:103E800008BD00BFC368586900F00100704700BF5B
:103E9000C368586900F0010080F00100704700BF5E
:103EA000C368586900F00100704700BFC3685A69D1
:103EB00098691040704700BFC3685868704700BFDA
:103EC00003691A6861F301021A60704710B4C2688E
:103ED0004FF400644FF0FF310023C8F200049361F7
:103EE0005161516051619461C07891695DF8044BF2
:103EF000984208BF102343F4701343F4605343F017
:103F000008030B4300209361704700BFF8B50446D7
:103F1000D0F80C012269002101600B46116863F39F
:103F2000CC211160E17A01294DD010212046FFF704
:103F30004FFF2046FFF770FF256900224FF0FF3347
:103F40002A616A61AB61EA6163783BB31746214637
:103F5000FF268B6918680028B4BF4FF090400020FE
:103F600018601F619E6063780132934201F1040181
:103F7000EFD89BB1002217462146FF264B6D1868EB
:103F80000028B4BF4FF09040002018601F619E6071
:103F900063780132934201F10401EFD82B6943F4B5
:103FA00080732B61E378012B01BF03F58173C0F2AD
:103FB0000103402262F3594308BF2B632046FFF7F9
:103FC00085FF0020F8BD1768E068C021802561F3F7
:103FD0000F034FF4800165F31F4347F0030765F3B8
:103FE0000F014FF4A076176045628162C0F804317A
:103FF00066F30F036FF31F43C0F80831C0F80C31AC
:1040000093E700BF03699B68C3F34103022B07D00A
:10401000032B03D0012B01D00320704702207047EF
:10402000012070470369826998681168C0F34100F4
:10403000022806BF032060F30A016FF30A01116032
:104040005A6842F480725A600020704770B44B780E
:10405000012B4FF0000220D00B7800EB83040125E8
:1040600005FA03F3646D63F31F4223681D040DD446
:104070008E68CD78C98866F30A0365F3934361F3CC
:10408000995343F0805343F4004323600369D96993
:104090000A430020DA6170BC70470C7800EB84059D
:1040A000A34063F30F02AC69DFE700BF30B44A7886
:1040B0000023012A1C4613D00A7800EB8201012557
:1040C00005FA02F2496D62F31F4402696FF3CF33C0
:1040D0000B60D36923EA0404D461002030BC70472C
:1040E000097800EB81058A4062F30F04A969ECE7C7
:1040F000F0B54C780B784D69012C00EB83032ED082
:104100005C6D236822691DB38E683544013DB5FBA3
:10411000F6F5C5F3090765F3DC4206FB07F666F31F
:1041200012022261C278012A01BF0C780A6900EBF1
:104130008404646D08BF6261CA78012A55D00A7888
:1041400000EB820043F00443426D13600020F0BD99
:104150008D68012665F3120266F3DC42E1E79E6991
:1041600033683269002D45D08C68CF7805EB040E9A
:104170000EF1FF3E65F31202BEFBF4F464F3DC4281
:10418000012F08BF67F35E723261C278012A43D003
:10419000CA78012A36D055B102690C78566B0127CE
:1041A00007FA04F434435463CA78012A2AD00A78FF
:1041B00000EB820243F0044392691360CB78012B39
:1041C000C4D1C378CA680978002BBFD1ADB200EB67
:1041D00081000335AD10D0F8D000B7D052F8041BE1
:1041E00001339D420160F9D1B0E74A793AB143F019
:1041F0000053A4E765F3120264F3DC42C4E743F022
:1042000080539CE702699268D60558BF43F000537B
:10421000CDD543F08053CAE70C780A6900EB8404DB
:10422000A4696261C0E700BFF0B44A78012A82B095
:1042300031D00B784C698E6800EB83035A6D13689C
:10424000156900959DF8005014B39DF802404E6129
:10425000012767F3C40466F306058DF800508DF856
:104260000240009C1461C278012A02BF0C780A69DE
:1042700000EB840443F0044304BF646D62610A7878
:1042800000EB8200426D1360002002B0F0BC70476A
:104290009DF80240DCE784694D6923682669009631
:1042A000002D36D08A68954293BF9DF800209DF876
:1042B00000504A6165F306028CBF62F306058DF873
:1042C00000209DF8022088BF8DF80050012565F37D
:1042D000C4028DF80220009A2261C278012A02BF2E
:1042E0000D780A6900EB850543F0044304BFAD690E
:1042F0006A612360C378002BC6D14B69002BC3D001
:1043000003690A78596B012000FA02F20A435A63E2
:10431000BAE79DF800709DF8026065F3060762F346
:10432000C4068DF800708DF80260D4E74B78012B3D
:104330000B7800EB830006D0426D136843F4001342
:1043400013600020704782691368002BB8BF43F0E8
:10435000804343F400131360002070474B78012B17
:104360000B78C97800EB8300A1F102010CBF8269D0
:10437000426D1368C9B26FF35553012998BF43F0DA
:10438000805313600020704703699A69D869104010
:10439000000C704700EB810102694B6D9B6850690E
:1043A0001840704703699869DB69184080B270470C
:1043B00010B4012283B04FF0000362F3C403C021A4
:1043C0000024182200948DF802308DF803108DF827
:1043D0000020436D009A1A61C278012A01BF00F5DE
:1043E000B960586119684FF0802208BF1A6003B0A5
:1043F0005DF8044B704700BFD0F8143110B5044687
:104400001BB103699A68D20700D410BD827A42B109
:10441000D0F80C21D0F80C116FF341026FF30002B9
:104420000A605A6842F001025A600520FCF77EFCDF
:1044300023695A6822F001025A6010BD837A6BB179
:1044400003699B68D90741BFD0F80C31D0F80C2123
:104450006FF341036FF3000348BF1360704700BF61
:1044600038B543780122054680F8122163B103462E
:104470000022FF219C69A1605C6DA1606C78013213
:10448000944203F10403F5D82B6900224FF0FF3169
:104490001A6128465A61DA619961FFF7BDFC284626
:1044A0001021BDE83840FFF793BC00BF4B78012BCB
:1044B0000B7800EB83000BD0436D1B68980211D47E
:1044C00013F4003F0CBF4FF440504FF400507047BE
:1044D00083691B689A0208D413F4003F0CBF302094
:1044E000202070474FF4805070471020704700BF65
:1044F000F0B44D78012D0B4604461BD0087804EB30
:104500008000B2F5805F446D21680D4608BF41F41C
:1045100000110CD0B2F5005F08BF41F0006106D079
:10452000B2F5405F19D012B962F3CF352946216048
:10453000F0BC70470F7800EB8707102ABC6926682B
:1045400035462BD0202A08BF46F00061EFD0302A34
:1045500019D03146002AE7D0E9E78D025CBF41F06F
:10456000806545F08021E2D500215971426DD878EF
:1045700013680238C0B261F35553012898BF43F065
:1045800080531360D4E7B2025CBF46F0806545F00B
:104590008021CCD500215971BA69E8E7F0BCFFF75A
:1045A000C5BE00BF70B50446FFF7ECFA637801267C
:1045B000002284F8126184F813217BB3114623464C
:1045C000402583F81821A3F81E2183F8196183F888
:1045D0001B11C3F82051C3F82411C3F82C116078C3
:1045E0000132904203F12803EBD8B8B10022114602
:1045F0002346402583F87023A3F8762383F87113AC
:1046000083F87313C3F87853C3F87C13C3F8841387
:1046100060780132904203F12803EBD82046FFF77F
:10462000CFFB2046FFF74AFB20460021FFF714FC92
:104630002046FFF76BFC2046BDE87040FFF7B8BB93
:1046400070B50C0613D401EB8105ED0005F55C7522
:10465000441900264155A260E3706670022B04BF26
:10466000002323712146FFF7F1FC002070BD01F00B
:104670007F0101EB8105ED0005F58C7544190126DC
:104680004155A260E370E1806670E7E7CAB208B501
:10469000130645BF01F07F0101EB810301EB8103AC
:1046A00000EBC30356BF00EBC30303F58C7303F5A4
:1046B0005C73D20919705A701946FFF7F7FC002095
:1046C00008BD00BF70B501F07F0404EB8405ED0068
:1046D00005F55C7541190026CA604B618E614E700C
:1046E0004455C378012B08BF0A611CB1FFF700FDD8
:1046F000002070BDFFF798FD002070BDF8B501F0F7
:104700007F0404EB8405ED0005F58C7541194FF02D
:10471000010E002781F801E04455CA600A614B612F
:104720008F611CB1FFF7E4FC0020F8BDFFF77CFDB2
:104730000020F8BDCAB210B5140645BF01F07F01D4
:1047400001EB810301EB810300EBC30356BF00EBD8
:10475000C30303F58C7303F55C73D209012419704C
:104760005A709C701946FFF7E1FD002010BD00BF94
:10477000CAB2130646BF01F07F0101EB810301EBD2
:10478000810310B54BBF00EBC30300EBC30303F57C
:104790008C7303F55C73D209002419705A709C70F5
:1047A0001946FFF7DBFD204610BD00BF0A0608B51D
:1047B00003D4FFF731FB002008BD01F07F01FFF7B4
:1047C00007FB002008BD00BF03690022186861F3E1
:1047D0000A1202431A60704703695A686FF3410274
:1047E0005A600320FCF7A2BA03695A6842F0020239
:1047F0005A600320FCF79ABA0B0645BF01F07F010F
:1048000001EB810101EB810100EBC10156BF00EB1F
:10481000C10101F58C7101F55C71FFF747BE00BF66
:104820000B0645BF01F07F0101EB810101EB810126
:1048300000EBC10156BF00EBC10101F58C7101F520
:104840005C71FFF755BE00BF2DE9F04F83B0044601
:10485000FFF71EFB18B9002003B0BDE8F08F20461B
:10486000FFF724FB05460028F5D0C0F3C040002820
:104870002AD16F0300F16581AE0742BFE3680222CF
:104880005A61002DC0F23F81290500F116812B07E6
:1048900000F10681EF0600F1DC80EE0400F19D805E
:1048A000A9047DD4EA026DD4AB02D5D540F2B4039D
:1048B000C2F2000320461B681B6A9847E3684FF466
:1048C00000125A610120C7E72046FFF75DFD06464A
:1048D000002855D040F2B409C2F200092746A2468A
:1048E0004FF00008019507E0760808F1010807F18C
:1048F00004070AF1280A42D0F307F5D55FFA88F5D4
:1049000029462046FFF746FD10F0010F83461AD0D6
:104910007A6D01239360E178994201BF1169DAF859
:104920007823C1F31201C1EB020208BFCAF8882341
:10493000D9F800209B462946136820469847E3781B
:10494000012B00F0D5811BF0020F1FBF4FF0020BAF
:104950007B6D5A469A601BF0040F1FBF7B6D4FF0B2
:10496000040B5A469A601BF0080FBDD0D9F80030EE
:1049700020469B6898477B6D08229A60B4E7019DAA
:10498000012076E740F2B403C2F2000320461B6820
:10499000DB699847E3684FF480125A61012083E78E
:1049A0002046FFF73FFBE3682046DE68FFF72AFB5F
:1049B00003280BBF092305234FF40072402263F341
:1049C0008D26E368A2800CBF002101214FF4005224
:1049D000A1700120DE605A6164E723695A680027EC
:1049E00022F001025A6039462046FFF7F1F9637858
:1049F00063B123463A46FF2099698860596D886003
:104A0000617801328A4203F10403F5D30126236958
:104A100066F30F070F214FF0FF302F2266F31F4779
:104A20009861DF6159611A611A686FF30A121A609E
:104A30002046FFF7BDFC40F2B403C2F20003E26877
:104A40001B684FF480511B695161204698473046DE
:104A500026E7E3689A6922F010029A611E6A06F05E
:104A60000F0202EB8202C6F3434104EBC2070229A4
:104A700007F55C7700F0E88006290BD10822204674
:104A800004F5B961FFF76AF8BA69E368C6F30A1674
:104A90003244BA619A6942F010029A610120FCE640
:104AA00040F2B403C2F2000320461B68DB6898475B
:104AB000E36808225A610120ECE640F2B403C2F236
:104AC000000320461B685B6998472269E368916888
:104AD0004FF400625A61A37A9BB1CA0711D5D4F88A
:104AE0000C311A6842F001021A6019684FF46D42E5
:104AF000CEF2000241F003011960136943F006038E
:104B000013610120C3E6A37A43B1D4F80C31D4F881
:104B10000C216FF341036FF300031360226940F22D
:104B2000B403C2F2000351681B6821F00101516017
:104B30009B6920469847E3684FF000425A61012084
:104B4000A2E62046FFF72EFC804600287AD040F2ED
:104B5000B403C2F200030195274626464FF0000A2F
:104B60001D4637E01BF0040F1EBFBB694FF0040B5E
:104B7000C3F808B01BF0080F1EBFBB694FF0080B4D
:104B8000C3F808B01BF0100F1FBF1022BB6993467B
:104B90009A601BF0200F1FBF2022BB6993469A60CA
:104BA0001BF0400F1FBF4022BB6993469A601BF069
:104BB000020F1FBF0222BB6993469A601BF0800F51
:104BC00054D15FEA58080AF1010A07F1040706F117
:104BD000280636D018F0010FF3D023695FFA8AF95E
:104BE0001969586B04EB890220FA09FB92694FEAB4
:104BF000CB1B5FFA8BFB92684BEA010B0BEA020BB3
:104C00001BF0010FAED05A6B29684FF0010B0BFA65
:104C10000AF022EA00025A63BA694B68C2F808B087
:104C2000204649469847E3785B459BD1BAF1000F8F
:104C300098D194F81131042B94D12046FFF7B8FB9A
:104C400090E7019D012017E6C6F30A16002E3FF4F7
:104C500021AFF96832462046FEF780FFF968BA694D
:104C6000E36831443244F960BA6113E7D6F82C1195
:104C7000D6F830E1B869D6F82021D0F818C0CEEBCC
:104C80000103934234BF9B4693460BF1030B1FFA7B
:104C90008CFCBCEB9B0F28D9714526D929B3D6F8DB
:104CA000241106E0D6F82C219A421ED9D31AD6F840
:104CB00020219A4234BF93469B461FFA8BF34A4603
:104CC0002046FEF737FFD6F82411D6F83031594484
:104CD0005B44C6F82411C6F83031B86982690BF11B
:104CE000030B92B2B2EB9B0FDCD88023836068E7A2
:104CF000B8F1000F7FF427AE94F81131052B7FF443
:104D000022AE2046FFF754FB1DE600BF81F00041B4
:104D100002E000BF83F0004330B54FEA41044FEAA0
:104D2000430594EA050F08BF90EA020F1FBF54EA3B
:104D3000000C55EA020C7FEA645C7FEA655C00F0D7
:104D4000E2804FEA5454D4EB5555B8BF6D420CDDA8
:104D50002C4480EA020281EA030382EA000083EA2B
:104D6000010180EA020281EA0303362D88BF30BDCB
:104D700011F0004F4FEA01314FF4801C4CEA113121
:104D800002D0404261EB410113F0004F4FEA033380
:104D90004CEA133302D0524263EB430394EA050F0B
:104DA00000F0A780A4F10104D5F1200E0DDB02FA7A
:104DB0000EFC22FA05F2801841F1000103FA0EF20E
:104DC000801843FA05F359410EE0A5F120050EF1D4
:104DD000200E012A03FA0EFC28BF4CF0020C43FA05
:104DE00005F3C01851EBE37101F0004507D54FF012
:104DF000000EDCF1000C7EEB00006EEB0101B1F562
:104E0000801F1BD3B1F5001F0CD349085FEA3000A7
:104E10004FEA3C0C04F101044FEA445212F5800FB2
:104E200080F09A80BCF1004F08BF5FEA500C50F14F
:104E3000000041EB045141EA050130BD5FEA4C0C32
:104E4000404141EB010111F4801FA4F10104E9D1BB
:104E500091F0000F04BF01460020B1FA81F308BFB2
:104E60002033A3F10B03B3F120020CDA0C3208DD7E
:104E700002F1140CC2F10C0201FA0CF021FA02F159
:104E80000CE002F11402D8BFC2F1200C01FA02F1C9
:104E900020FA0CFCDCBF41EA0C019040E41AA2BFEE
:104EA00001EB0451294330BD6FEA04041F3C1CDAB6
:104EB0000C340EDC04F11404C4F1200220FA04F0D6
:104EC00001FA02F340EA030021FA04F345EA030180
:104ED00030BDC4F10C04C4F1200220FA02F001FA42
:104EE00004F340EA0300294630BD21FA04F02946C4
:104EF00030BD94F0000F83F4801306BF81F480115D
:104F00000134013D4EE77FEA645C18BF7FEA655CCF
:104F100029D094EA050F08BF90EA020F05D054EAA1
:104F2000000C04BF1946104630BD91EA030F1EBFA6
:104F30000021002030BD5FEA545C05D140004941AA
:104F400028BF41F0004130BD14F580043CBF01F59D
:104F5000801130BD01F0004545F0FE4141F4700183
:104F60004FF0000030BD7FEA645C1ABF194610465E
:104F70007FEA655C1CBF0B46024650EA013406BF5F
:104F800052EA033591EA030F41F4002130BD00BF1E
:104F900090F0000F04BF0021704730B54FF48064DB
:104FA00004F132044FF000054FF0000150E700BF5C
:104FB00090F0000F04BF0021704730B54FF48064BB
:104FC00004F1320410F0004548BF40424FF00001A8
:104FD0003EE700BF42004FEAE2014FEA31014FEAEB
:104FE00002701FBF12F07F4393F07F4F81F060513A
:104FF000704792F0000F14BF93F07F4F704730B5A9
:105000004FF4607401F0004521F0004120E700BF3B
:1050100050EA010208BF704730B54FF000050AE0C2
:1050200050EA010208BF704730B511F0004502D5C3
:10503000404261EB41014FF4806404F132045FEAC5
:10504000915C3FF4DCAE4FF003025FEADC0C18BF6A
:1050500003325FEADC0C18BF033202EBDC02C2F160
:10506000200300FA03FC20FA02F001FA03FE40EAF2
:105070000E0021FA02F11444C1E600BF844641EA61
:10508000000313F003036DD1403A41D351F8043BC0
:1050900040F8043B51F8043B40F8043B51F8043B12
:1050A00040F8043B51F8043B40F8043B51F8043B02
:1050B00040F8043B51F8043B40F8043B51F8043BF2
:1050C00040F8043B51F8043B40F8043B51F8043BE2
:1050D00040F8043B51F8043B40F8043B51F8043BD2
:1050E00040F8043B51F8043B40F8043B51F8043BC2
:1050F00040F8043B51F8043B40F8043B51F8043BB2
:1051000040F8043B51F8043B40F8043B403ABDD220
:10511000303211D351F8043B40F8043B51F8043BC2
:1051200040F8043B51F8043B40F8043B51F8043B81
:1051300040F8043B103AEDD20C3205D351F8043B51
:1051400040F8043B043AF9D2043208D0D2071CBF1D
:1051500011F8013B00F8013B01D30B880380604646
:10516000704700BF082A13D38B078DD010F00303BC
:105170008AD0C3F10403D21ADB071CBF11F8013B2C
:1051800000F8013B80D331F8023B20F8023B7BE77B
:10519000043AD9D3013A11F8013B00F8013BF9D2A6
:1051A0000B7803704B7843708B7883706046704740
:1051B00000000000000000000000000000000000EF
:1051C000A2EB0300704700BF02780B78012A28BFCA
:1051D0009A42F5D16DE9044540EA0104CDE9026740
:1051E0006FF0000C4FEA447212B380EA010414F02D
:1051F000070F6AD100F0070420F0070004F0030550
:1052000021F007014FEAC505F0E8042314F0040F6C
:10521000F1E804670CFA05F462EA040266EA04069F
:105220000AD063EA0403624667EA0407664603E0BD
:10523000F0E80423F1E8046782FA4CF582EA0604F8
:10524000A4FA8CF46CBB83FA4CF583EA0705A5FA43
:105250008CF595B950E9022351E9026782FA4CF5C1
:1052600082EA0604A4FA8CF483FA4CF583EA070573
:10527000A5FA8CF52543DBD09CB92DBAB5FA85F497
:1052800024F0070427FA04F1DDE9026723FA04F3A6
:1052900003F0FF0001F0FF01FDE80445A0EB010071
:1052A000704724BAB4FA84F424F0070426FA04F10F
:1052B000DDE9026722FA04F202F0FF0001F0FF01CB
:1052C000FDE80445A0EB0100704714F0030F3CD14A
:1052D00010F0030428D150F8082B51F8083B82FA4B
:1052E0004CF582EA0305A5FA8CF55DB950F8042C5B
:1052F00051F8043C82FA4CF582EA0305A5FA8CF5D4
:10530000002DE8D02DBAB5FA85F424F0070423FA6D
:1053100004F122FA04F202F0FF0001F0FF01FDE8BF
:105320000445A0EB010070474FEAC40420F00300DD
:1053300050F8082B21F0030151F8083B0CFA04F453
:1053400062EA040263EA0403C9E710F003041AD016
:10535000A1EB040120F00300E40750F8042B06D071
:105360000FD28B785FFAA2F4E41A06D12BB1CB7876
:105370005FFAB2F4E41A00D11BB920465DF8104B75
:10538000704701F1040150F8042BCC0721F0030110
:1053900051F8043B48D824D222F07F4482FA4CF5DD
:1053A00094EA1325A5FA8CF50AD165B951F8043BA6
:1053B00084EA0204B4EB036F0ED150F8042BEBE740
:1053C0004FEA132355E035F07F454DD10878FDE8CD
:1053D0000445C0F1000070474FEA126203F0FF037A
:1053E00047E002EA1C4482FA4CF594EA1345A5FA18
:1053F0008CF50AD165B951F8043B84EA0204B4EB98
:10540000034F0CD150F8042BEBE74FEA134330E085
:1054100015EA1C4528D10B884FEA124229E04FEAD1
:10542000124203EA1C4324E002F0FF0482FA4CF526
:1054300094EA1365A5FA8CF50AD165B951F8043BD5
:1054400084EA0204B4EB032F09D150F8042BEBE7F4
:105450004FEA13630DE015F0FF0F05D10B684FEA1B
:10546000122223F07F4304E04FF00000FDE80445E2
:10547000704712BA1BBA82FA4CF482EA0304A4FA07
:105480008CF5B5FA85F402FA04F203FA04F34FEA54
:105490001260FDE80445A0EB1360704770B54FF053
:1054A000FF0C4CF4E06C1CEA11541DBF1CEA1355B0
:1054B00094EA0C0F95EA0C0F00F0DEF82C4481EA18
:1054C000030621EA4C5123EA4C5350EA013518BF38
:1054D00052EA033541F4801143F4801338D0A0FB25
:1054E00002CE4FF00005E1FB02E506F00042E0FBD2
:1054F00003E54FF00006E1FB03569CF0000F18BFD8
:105500004EF0010EA4F1FF04B6F5007F64F540747F
:1055100004D25FEA4E0E6D4146EB060642EAC62112
:1055200041EA55514FEAC52040EA5E504FEACE2E7F
:10553000B4F1FD0C88BFBCF5E06F1ED8BEF1004F82
:1055400008BF5FEA500E50F1000041EB045170BDFE
:1055500006F0004646EA010140EA020081EA030142
:10556000B4EB5C04C2BFD4EB0C0541EA045170BD3E
:1055700041F480114FF0000E013C00F3AB8014F1B8
:10558000360FDEBF002001F0004170BDC4F1000401
:10559000203C35DA0C341BDC04F11404C4F1200582
:1055A00000FA05F320FA04F001FA05F240EA0200DD
:1055B00001F0004221F0004110EBD37021FA04F613
:1055C00042EB06015EEA430E08BF20EAD37070BDCD
:1055D000C4F10C04C4F1200500FA04F320FA05F02C
:1055E00001FA04F240EA020001F0004110EBD3702E
:1055F00041F100015EEA430E08BF20EAD37070BD9E
:10560000C4F1200500FA05F24EEA020E20FA04F376
:1056100001FA05F243EA020321FA04F001F0004125
:1056200021FA04F220EA020000EBD3705EEA430E96
:1056300008BF20EAD37070BD94F0000F0FD101F0C5
:105640000046400041EB010111F4801F08BF013CFE
:10565000F7D041EA060195F0000F18BF704703F03C
:105660000046520043EB030313F4801F08BF013DC3
:10567000F7D043EA0603704794EA0C0F0CEA13557F
:1056800018BF95EA0C0F0CD050EA410618BF52EA39
:105690004306D1D181EA030101F000414FF000003F
:1056A00070BD50EA410606BF1046194652EA43064D
:1056B00019D094EA0C0F02D150EA013613D195EAC1
:1056C0000C0F05D152EA03361CBF104619460AD109
:1056D00081EA030101F0004141F0FE4141F4700113
:1056E0004FF0000070BD41F0FE4141F4780170BD03
:1056F00070B54FF0FF0C4CF4E06C1CEA11541DBF68
:105700001CEA135594EA0C0F95EA0C0F00F0A7F869
:10571000A4EB050481EA030E52EA03354FEA013196
:1057200000F088804FEA03334FF0805545EA1313A9
:1057300043EA12634FEA022245EA111545EA106571
:105740004FEA00260EF000419D4208BF964244F108
:10575000FD0404F5407402D25B084FEA3202B61A27
:1057600065EB03055B084FEA32024FF480104FF4FB
:10577000002CB6EB020E75EB030E22BFB61A75466F
:1057800040EA0C005B084FEA3202B6EB020E75EB02
:10579000030E22BFB61A754640EA5C005B084FEA6A
:1057A0003202B6EB020E75EB030E22BFB61A754637
:1057B00040EA9C005B084FEA3202B6EB020E75EB42
:1057C000030E22BFB61A754640EADC0055EA060E03
:1057D00018D04FEA051545EA16754FEA06164FEA46
:1057E000C30343EA52734FEAC2025FEA1C1CC0D1F2
:1057F00011F4801F0BD141EA00014FF000004FF07F
:10580000004CB6E711F4801F04BF01430020B4F13F
:10581000FD0C88BFBCF5E06F3FF6AFAEB5EB030CF7
:1058200004BFB6EB020C5FEA500C50F1000041EBF4
:10583000045170BD0EF0004E4EEA113114EB5C04C1
:10584000C2BFD4EB0C0541EA045170BD41F4801194
:105850004FF0000E013C90E645EA060E8DE60CEA9C
:10586000135594EA0C0F08BF95EA0C0F3FF43BAFB9
:1058700094EA0C0F0AD150EA01347FF434AF95EA70
:105880000C0F7FF425AF104619462CE795EA0C0F54
:1058900006D152EA03353FF4FDAE1046194622E721
:1058A00050EA410618BF52EA43067FF4C5AE50EAFB
:1058B00041047FF40DAF52EA43057FF4EBAE12E7EB
:1058C0004FF0FF3C06E000BF4FF0010C02E000BFCC
:1058D0004FF0010C4DF804CD4FEA410C7FEA6C5CAF
:1058E0004FEA430C18BF7FEA6C5C1BD001B050EA52
:1058F000410C0CBF52EA430C91EA030F02BF90EA3D
:10590000020F0020704710F1000F91EA030F58BFFB
:10591000994208BF90422CBFD8176FEAE37040F05D
:10592000010070474FEA410C7FEA6C5C02D150EAFB
:10593000013C07D14FEA430C7FEA6C5CD6D152EAB6
:10594000033CD3D05DF8040B704700BF844610467B
:1059500062468C461946634600E000BF01B5FFF77A
:10596000B7FF002848BF10F1000F01BD4DF808ED4A
:10597000FFF7F4FF0CBF012000205DF808FB00BF1B
:105980004DF808EDFFF7EAFF34BF012000205DF875
:1059900008FB00BF4DF808EDFFF7E0FF94BF0120C2
:1059A00000205DF808FB00BF4DF808EDFFF7CEFFC3
:1059B00094BF012000205DF808FB00BF4DF808ED02
:1059C000FFF7C4FF34BF012000205DF808FB00BFD3
:1059D0004FEA410212F5001215D211D56FF4787317
:1059E000B3EB625212D94FEAC12343F0004343EABA
:1059F000505311F0004F23FA02F018BF4042704795
:105A00004FF00000704750EA013005D111F000401E
:105A100008BF6FF0004070474FF00000704700BFB4
:105A200053B94AB9002908BF00281CBF4FF0FF3105
:105A30004FF0FF3000F03CB882B0EC462DE900504A
:105A400000F01EF8DDF804E002B00CBC704700BFA7
:105A50002DE9F041069C154606460F46984600F093
:105A600029F805FB01F300FB0838A5FB0023B21A57
:105A7000434467EB0303C4E90023BDE8F08100BFA2
:105A80002DE9F041069C904606460F461D4600F063
:105A90005FF900FB05F5A0FB082308FB0155B21ACE
:105AA0002B4467EB0303C4E90023BDE8F08100BF8A
:105AB000704700BF00292DE9F043C0F2A680002600
:105AC000002BC0F29C80884694469E4615460446AC
:105AD0000F46002B3DD18A4259D9B2FA82F33BB12D
:105AE000C3F120029F4020FA02F29D4017439C40E0
