:020000040800F2
:1000000000000220B1400008A9040008AD04000867
:10001000B1040008B5040008B9040008000000009D
:10002000000000000000000000000000BD04000807
:10003000C104000800000000C5040008ED04000829
:10004000F9400008F9400008F9400008F9400008AC
:10005000F9400008F9400008F9400008F94000089C
:10006000F9400008F9400008F9400008F94000088C
:10007000F9400008F9400008F9400008F94000087C
:10008000F9400008F9400008F9400008F94000086C
:10009000F9400008F9400008F9400008F94000085C
:1000A000F9400008F9400008F9400008F94000084C
:1000B000F9400008F9400008F9400008F94000083C
:1000C000F9400008F9400008F9400008F94000082C
:1000D000F9400008F9400008F9400008F94000081C
:1000E000F9400008F9400008FD040008F940000844
:1000F000F9400008F9400008F9400008F9400008FC
:10010000F9400008F9400008F9400008F9400008EB
:10011000F9400008F9400008F9400008F9400008DB
:10012000F9400008F9400008F9400008F9400008CB
:10013000F9400008F9400008F9400008F9400008BB
:10014000F9400008F9400008F94000082D050008B2
:10015000F9400008F9400008F9400008F94000089B
:10016000F9400008F9400008F9400008F94000088B
:10017000F9400008F9400008F9400008F94000087B
:08018000F9400008F9400008F5
:10018800F0B5174D83B00820012100F0BBFE022412
:1001980001232846002269464FF4704703268DF84C
:1001A80007308DF8062000978DF804408DF805601B
:1001B80001F0DAF8284622460C2101F075F92846A4
:1001C80022460D2101F070F9284622460E2101F041
:1001D8006BF9284622460F2101F066F903B0F0BDFD
:1001E800000C024010B5042084B0012100F0B4FED8
:1001F800184B194C1868A4FB0034240AB4F5803F46
:1002080025D94FF4C8620121B0FBF2F3B3F5803F62
:1002180001F1010102F54872F6D84A1E92B289B27C
:10022800B4FBF1F10139002302910C48ADF8042028
:1002380001A9ADF80630ADF80C308DF80E3001F09C
:1002480031FA0648012101F0DBFA04B010BD0121A2
:100258000022E5E7100000201F85EB510008004050
:1002680030B51B4C87B0002360220125204601A928
:100278000393ADF81030ADF80420ADF8065001F046
:10028800CDFA2046082101F045FC204601A901F0DD
:100298000DFB2046082101F045FC204601A901F08C
:1002A80051FB2046082101F047FC204601A901F036
:1002B80095FB2046082101F047FC2046294601F01D
:1002C80079FA2046294601F09BFA07B030BD00BFF5
:1002D8000008004043890C3B032B16D8DFE803F0E5
:1002E8003E2A16028188C28890ED037A2548531A5F
:1002F80007EE903AF8EEE77A67EE877AFCEEE77A4F
:1003080017EE903A11FA83F3036470478188C28824
:1003180090ED037A1B48531A07EE903AF8EEE77A05
:1003280067EE877AFCEEE77A17EE903A11FA83F3D4
:10033800C36370478188C28890ED037A1148531AC5
:1003480007EE903AF8EEE77A67EE877AFCEEE77AFE
:1003580017EE903A11FA83F3836370478188C28855
:1003680090ED037A0748531A07EE903AF8EEE77AC9
:1003780067EE877AFCEEE77A17EE903A11FA83F384
:1003880043637047000800400A4A0B4B11689942C2
:100398000DD94FF4C8620120B1FBF2F3B3F5803FE9
:1003A80000F1010002F54872F6D880B270470120CA
:1003B800704700BF100000201F0320032DE9F04103
:1003C800244E254B34689C42054640D94FF4C862F8
:1003D8000120B4FBF2F3B3F5803F00F1010002F510
:1003E8004872F6D880B24700DFF870806981A8FBB0
:1003F80004139B0CB3FBF7F303EB830303EB8303B7
:1004080003EB03135B000022AB80EA604FF4FA7041
:1004180000F056F82846FFF75DFF40F6C41000F0DC
:100428004FF83068A8FB0030800CB0FBF7F7C7EB3B
:100438000713C7EB830707EB8707C3EB4313BF001B
:100448009B000022AF80EB802A81BDE8F081022763
:10045800CAE700BF100000201F03200383DE1B43F0
:1004680000B583B0084B00930848094A094B01219D
:1004780002F044F8084B1B689868002103B05DF847
:1004880004EB03F05FBE00BF14000020E809002061
:10049800700000201401002068050020704700BF8C
:1004A800704700BFFEE700BFFEE700BFFEE700BFE2
:1004B800FEE700BF704700BF704700BF704700BF2E
:1004C80010B485B0064C0190236803932368039900
:1004D800019A5B1A9342F9D305B05DF8044B704753
:1004E800D80F0020024A136801331360704700BF19
:1004F800D80F002010B5094CA37A4BB1084A1368ED
:1005080023F00603136000F013F8204603F014F9F3
:100518004FF48020BDE8104000F08CBEE8090020B0
:1005280010ED00E0014803F00DBB00BFE809002012
:1005380039493A4BD1F88820394842F47002C1F859
:1005480088201A68002142F001021A6099601A682E
:1005580022F0847222F480321A6058601A6882B0DD
:1005680022F480221A60D960009101911A6842F43D
:1005780080321A601A4603E0009BB3F5A06F09D0D9
:10058800136803F400330193009B01330093019B2C
:10059800002BF1D0214B1B6813F4003318BF012343
:1005A8000193019B012B05D01B4B4FF000629A6011
:1005B80002B07047194B1B491A6C1B4842F0805215
:1005C8001A640A6842F480420A609A689A609A68D3
:1005D80042F400429A609A6842F4A0529A605860C5
:1005E8001A6842F080721A601A4611680B4B89012A
:1005F800FBD50E4A40F2056111609A6822F00302A9
:100608009A609A6842F002029A601A46936803F068
:100618000C03082BFAD1C7E700ED00E000380240D0
:10062800103000240070004008544007003C02408D
:100638001848836803F00C03042B28D0082B09D032
:10064800154B144A15499268C2F303128A5CD340C9
:100658000B6170474368416813F4800F436818BF03
:100668000F4801F03F020CBF0B49B0FBF2F1C3F396
:10067800881308BFB1FBF2F101FB03F2054B5B687D
:10068800C3F3014301335B00B2FBF3F3D9E7044B37
:10069800D7E700BF003802400024F4000000002023
:1006A80000127A0000207047002070470120704730
:1006B800002070474FF0FF30704700BF10B50C4660
:1006C80048B9204600F0DEF80028FAD0207800F07B
:1006D80089F8012010BD002010BD00BF064B186826
:1006E80038B101446A46914294BF19604FF0FF3017
:1006F800704702481860F4E77C0900203C19002084
:1007080010B508461146144600F0A2F8204610BD60
:10071800704700BF704700BF704700BF704700BFF9
:10072800704700BF704700BF704700BF0020704788
:1007380000207047A1B1F0B40A4C0B4F0144264683
:100748000025236810F8012BFA540133B3F5006F24
:1007580008BF2B4688423360F3D10020F0BC7047B5
:1007680000207047A009002038110020D9B1F0B44A
:100778000E4A0F4C166823680E4D0144002701E00D
:1007880088420DD010F8012BEA540133802B0ABFA0
:100798000023236027609E42F2D10220F0BC7047FC
:1007A8000020F0BC70470020704700BF6010002098
:1007B80074100020E00F002021280FD1084B1A6880
:1007C8000A701A68120A4A705A888A70DA78CA70E7
:1007D8001A790A715A794A719B798B71002070478E
:1007E80030000020074A136810B4591C064CB1F5B4
:1007F800006FE0540ABF0023116013605DF8044BDA
:10080800704700BFA0090020381100200378CBB141
:10081800F0B401460446002314F8012F0133002ADE
:10082800FAD1094D094F18442E462B6811F8014B8F
:10083800FC540133B3F5006F08BF1346814233609F
:10084800F3D1F0BC704700BFA00900203811002088
:1008580091B1F0B4094C0A4F01442646002523689B
:1008680010F8012BFA540133B3F5006F08BF2B467B
:1008780088423360F3D1F0BC704700BFA009002064
:1008880038110020094A0A491368096899420AD0B0
:100898000849CB5C037013680133802B08BF002321
:1008A8001360012070470020704700BF60100020CF
:1008B80074100020E00F0020F0B41C4F1C4D3C6861
:1008C8002B689C420DD01B49CA5C1AB10A2A01D078
:1008D8000D2A09D10133802B08BF00239C42F3D194
:1008E8002C600020F0BC70472B60002303E00A2A2C
:1008F8000FD00D2A0DD0C2542C683E6801331A1946
:10090800802A04BF002263429642EAD08A5C002A09
:10091800EDD10022C2542A6805491A447F2A00D919
:10092800803A18460A60F0BC704700BF7410002077
:1009380060100020E00F0020704700BF12230B80DA
:10094800004870474C00002004230B800048704783
:100958006000002010B5044C04480A46214602F005
:1009680097F8204610BD00BF781000203C510008C1
:1009780008B50A4628B10648064902F089F805482C
:1009880008BD0548034902F083F8024808BD00BFC6
:1009980074510008781000205051000808B50A4624
:1009A80028B10648064902F073F8054808BD05480D
:1009B800034902F06DF8024808BD00BFA8510008BD
:1009C800781000209851000810B5044C04480A46D5
:1009D800214602F05DF8204610BD00BF78100020C7
:1009E800B851000810B5044C04480A46214602F0E4
:1009F8004FF8204610BD00BF78100020C4510008F1
:100A0800704700BF704700BF70B50120284C82B006
:100A1800014600F077FA03260023204669460222A1
:100A28004FF4D8558DF806308DF8073000958DF8BD
:100A380004208DF8056000F097FC204608210A2262
:100A480000F032FD204609210A2200F02DFD204643
:100A58000B210A2200F028FD20460A220C2100F072
:100A680023FD01254FF480636946204600938DF8E5
:100A780005608DF806508DF8075000F075FC0A21C6
:100A88000A46204600F010FD29464FF4804000F049
:100A980071FA2946802000F043FA29464FF0805029
:100AA80000F0A0FA284600F0C5FB02B070BD00BFF8
:100AB8000000024000B54FF4C06083B000F042F877
:100AC80001234321032201A88DF804108DF8053075
:100AD8008DF807308DF8062000F03EF803B05DF879
:100AE80004FB00BFC0EB0010064BC200A3FB0213BF
:100AF800D21A03EB52029208002301339A42FCD225
:100B0800704700BF25499224074A084B02FB00F0B2
:100B1800A3FB0023C21A03EB5202920800230133FD
:100B28009A42FCD2704700BFC0D4010025499224E4
:100B3800DC510008000000207C0900207C0900200E
:100B48003C1900204FF46D4340F0BF60CEF2000323
:100B580040F40030D8607047C37870B47BB902782D
:100B68004FF461435109203102F01F020120CEF2F7
:100B7800000300FA02F243F8212070BC70474FF4DA
:100B88006D43CEF200034678DA6884780378D2435E
:100B9800C2F30222C2F104010F25C9B206FA01F11B
:100BA80045FA02F2C9B222400A4303F1604303F551
:100BB80061431201D2B283F8002302784FF46143F3
:100BC80002F01F0101205209CEF2000300FA01F1E0
:100BD80043F8221070BC704721F060414FF46D4318
:100BE80021F07F01CEF2000308439860704700BFF0
:100BF8004FF46D43CEF200031A6919B922EA0000D6
:100C08001861704710431861704700BF4EF2100317
:100C1800CEF2000304281A680CBF42F0040222F046
:100C280004021A60704700BF4FF46053C4F2020315
:100C38000022196841F0010119609A60186843F2AE
:100C4800100120F08470C2F2004120F48030186056
:100C58005960196821F480211960DA60704700BF73
:100C680043F60203C4F2020300221A701870704798
:100C780082B000234FF460520193C4F20202136859
:100C88009B030FD4019B01330193019BB3F5A06F24
:100C9800F5D14FF46053C4F202031868C0F3404022
:100CA80002B07047019B01330193019BF1E700BF3C
:100CB8004FF46053C4F202031A6822F0F80242EAC1
:100CC800C0001860704700BF0023C4F247231860B3
:100CD800704700BF43F67003C4F2020300220128E4
:100CE8001A701A7005D0042802D105221A707047AC
:100CF80070471870704700BF4FF46863C4F2472309
:100D08001860704710B4019C40EA04605B08014316
:100D18004FF46054C4F20204013B41EA821242EAF1
:100D2800034363605DF8044B704700BF6023C4F25F
:100D380047231860704700BF4FF460530907C4F297
:100D4800020341EA8010C3F8840070476823C4F2A4
:100D580047231860704700BF4C23C4F2472318602C
:100D6800704700BF4FF46053C4F202039A6822F040
:100D7800EC62114308439860704700BF4FF460531A
:100D8800C4F202039A6822F078421143084398603B
:100D9800704700BF4FF46053C4F202039A6822F010
:100DA80003021043986070474FF46053C4F2020383
:100DB800986800F00C0070474FF46053C4F20203C7
:100DC8009A6822F0F0021043986070474FF460531D
:100DD800C4F202039A6822F4E05210439860704704
:100DE8004FF46053C4F202039A6822F4604242EA64
:100DF800C0009860704700BF4FF46053C4F202030C
:100E080010B49A6802F00C02042A24D0082A28D0C8
:100E18004FF41051C0F2F40101604FF46052C4F273
:100E2800020240F28C039468C2F20003C4F3031474
:100E38001C5DE14041609468C4F382241C5D21FA82
:100E480004F4846092685DF8044BC2F342329B5C00
:100E5800D940C160704747F64001C0F27D1101607A
:100E6800DBE75C685A6814F4800F5C6815BF47F6C6
:100E780040034FF41053C0F27D13C0F2F40302F0A4
:100E88003F02B3FBF2F14FF46053C4F20203C4F320
:100E980088145B68C3F30143013301FB04F15B0071
:100EA800B1FBF3F10160B8E700F44073B3F5407F9C
:100EB8000CD14FF46053C4F2020320F070419A68D9
:100EC80021F4407122F4F8120A439A604FF46053F7
:100ED800C4F20203C0F30B001A6F1043186770477F
:100EE80040F63C63C4F24723186070474FF46463CC
:100EF800C4F24723186070474FF4AE73C4F2472317
:100F0800186070474FF46053C4F202031A6B19B9A2
:100F180022EA00001863704710431863704700BF47
:100F28004FF46053C4F202035A6B19B922EA000065
:100F38005863704710435863704700BF4FF46053BD
:100F4800C4F202039A6B19B922EA00009863704749
:100F580010439863704700BF4FF46053C4F2020314
:100F68001A6C19B922EA0000186470471043186413
:100F7800704700BF4FF46053C4F202035A6C19B9AA
:100F880022EA00005864704710435864704700BF55
:100F98004FF46053C4F202031A6919B922EA000037
:100FA8001861704710431861704700BF4FF46053D1
:100FB800C4F202035A6919B922EA0000586170475D
:100FC80010435861704700BF4FF46053C4F20203E6
:100FD8009A6919B922EA000098617047104398612C
:100FE800704700BF4FF46053C4F202031A6A19B97C
:100FF80022EA00001862704710431862704700BF69
:101008004FF46053C4F202035A6A19B922EA000085
:101018005862704710435862704700BF4FF46053DE
:10102800C4F202031A6D19B922EA00001865704764
:1010380010431865704700BF4FF46053C4F20203B1
:101048005A6D19B922EA000058657047104358656F
:10105800704700BF4FF46053C4F202039A6D19B988
:1010680022EA00009865704710439865704700BFF2
:101078004FF46053C4F202031A6E19B922EA000051
:101088001866704710431866704700BF4FF46053E6
:10109800C4F202035A6E19B922EA00005866704772
:1010A80010435866704700BF43F60D03C4F20203AD
:1010B8001A7819B922EA000018707047104318709E
:1010C800704700BF4309012B0ED0022B4FF4605329
:1010D800C4F2020300F01F000CBF1B6F5B6F23FA02
:1010E80000F000F0010070474FF46053C4F20203AF
:1010F80000F01F001B6823FA00F000F001007047A1
:101108004FF46053C4F202035A6F42F080725A6778
:10111800704700BF4FF46053C4F20203DB68184203
:101128000CBF00200120704743F60E03C4F20203EF
:10113800187070474FF47053C4F201034FF6FF71F3
:101148000022C0F27F011A605A609A60DA60596121
:10115800704700BF837970B443B34FF47053C4F23F
:10116800010301681E6802794579CC4326401E6058
:101178005E6802F1804202F59E3234405C60146879
:101188002143116002689868D14308409860D86884
:10119800102D01EA0001D96014D005F1804505F54C
:1011A8009E352B681A432A6070BC70470379016822
:1011B80003F1804303F59E3370BC1A6822EA0102EA
:1011C8001A607047996811439960D9680A43DA60D0
:1011D80070BC704700230C22427103600371837155
:1011E800704700BF4FF47053C4F201031A691043EB
:1011F800186170474FF47053C4F201035B691842D9
:101208000CBF0020012070474FF47053C4F2010353
:10121800586170474FF47053C4F201031A685B6950
:10122800034004D010420CBF00200120704718462C
:10123800704700BF4FF47053C4F201035861704700
:1012480008B50023C4F2020398423CD04FF48063EF
:10125800C4F20203984240D04FF40063C4F2020380
:10126800984244D04FF44063C4F20203984248D0F5
:101278004FF48053C4F2020398424CD04FF4A05369
:10128800C4F20203984250D04FF4C053C4F2020390
:10129800984254D04FF4E053C4F20203984258D015
:1012A8004FF40053C4F20203984200D008BD4FF433
:1012B80080700121FFF76CFE4FF480700021BDE8BB
:1012C8000840FFF765BE01200146FFF761FE0120D7
:1012D8000021BDE80840FFF75BBE02200121FFF7AF
:1012E80057FE02200021BDE80840FFF751BE042048
:1012F8000121FFF74DFE04200021BDE80840FFF75B
:1013080047BE08200121FFF743FE08200021BDE861
:101318000840FFF73DBE10200121FFF739FE1020DD
:101328000021BDE80840FFF733BE20200121FFF768
:101338002FFE20200021BDE80840FFF729BE4020ED
:101348000121FFF725FE40200021BDE80840FFF7F6
:101358001FBE80200121FFF71BFE80200021BDE871
:101368000840FFF715BE00BF00222DE9F0431346E1
:101378000E6801274FF0030C04E00133102B02F133
:1013880002022ED007FA03F404EA0605A542F4D1B6
:10139800D0F8008091F804E00CFA02F4E44304EA7F
:1013A8000808C0F80080D0F800800EFA02F90EF1A3
:1013B800FF3E5FFA8EFE49EA0808BEF1010FC0F849
:1013C800008010D9C56891F807E02C40C460C56852
:1013D8000EFA02F401332C43102BC46002F102020E
:1013E800D0D1BDE8F083D0F8089091F8058091F845
:1013F80006E004EA0909C0F80890D0F8089008FA4D
:1014080002F848EA0908C0F80880D0F8048028EAF9
:101418000505456045680EFA03FE1FFA8EFE4EEA82
:1014280005054560CEE700BF00234FF6FF72026056
:10143800037143718371C371704700BF82B04FF469
:1014480080330193019B0B430193019BC361C161ED
:10145800019BC361C3690193C369019302B07047DB
:10146800036919420CBF002001207047006980B24F
:10147800704700BF436919420CBF00200120704724
:10148800406980B2704700BF01837047418370474D
:101498000AB9418370470183704700BF41617047B3
:1014A8004369594041617047CB0800EB830001F064
:1014B800070110B48900046A0F238B4024EA030350
:1014C8000362036A5DF8044B8A4013430362704762
:1014D80008B50023C4F2010398425BD0B0F1804FF5
:1014E80062D04FF48063C4F20003984266D04FF490
:1014F8000063C4F2000398426AD04FF44063C4F218
:10150800000398426ED04FF48053C4F2000398420F
:1015180072D04FF4A053C4F20003984276D04FF42F
:101528008063C4F2010398427AD04FF48043C4F236
:10153800010398427ED04FF48843C4F201039842D5
:1015480000F084804FF49043C4F20103984200F005
:1015580089804FF4C053C4F20003984200F08E8093
:101568004FF4E053C4F20003984200F091804FF426
:101578000053C4F20003984200D008BD4FF48070B5
:101588000121FFF72FFD4FF480700021BDE80840CE
:10159800FFF728BD01200146FFF732FD0120002199
:1015A800BDE80840FFF72CBD01200146FFF71AFDF2
:1015B80001200021BDE80840FFF714BD02200121E9
:1015C800FFF710FD02200021BDE80840FFF70ABD23
:1015D80004200121FFF706FD04200021BDE8084092
:1015E800FFF700BD08200121FFF7FCFC08200021BF
:1015F800BDE80840FFF7F6BC10200121FFF7F2FC18
:1016080010200021BDE80840FFF7ECBC2020012194
:10161800FFF7E8FC20200021BDE80840FFF7E2BC06
:1016280002200121FFF7ECFC02200021BDE8084060
:10163800FFF7E6BC4FF480300121FFF7E1FC4FF4DF
:1016480080300021BDE80840FFF7DABC4FF40030D5
:101658000121FFF7D5FC4FF400300021BDE8084018
:10166800FFF7CEBC4FF480200121FFF7C9FC4FF4EF
:1016780080200021BDE80840FFF7C2BC40200121BE
:10168800FFF7B0FC40200021BDE80840FFF7AABCE6
:1016980080200121FFF7A6FC80200021BDE808403A
:1016A800FFF7A0BC70B400224FF48064C4F20102BA
:1016B8000388C4F20104904218BFA0429BB214BF31
:1016C8000022012208D04FF48064C4F20004A04232
:1016D80018BFB0F1804F23D14FF68F754C881D404D
:1016E80045EA04034FF4A0564FF48055C4F20005B0
:1016F800C4F20006B04218BFA8421FBF0D894FF6BA
:10170800FF441C4044EA05034D680C880380C56209
:1017180004850AB18B7A03860123838270BC7047E3
:101728004FF400654FF44064C4F20005C4F20004AD
:10173800A04218BFA842D5D1CEE700BF00234FF082
:10174800FF3242600380038143808372704700BF89
:1017580001858282704700BF038823F070031B0451
:101768001B0C19430180704741627047C162704782
:10177800406A7047008D80B2704700BF038829B95E
:1017880023F002031B041B0C038070479BB243F039
:1017980002030380704700BF038829B923F00403BC
:1017A8001B041B0C038070479BB243F004030380A7
:1017B800704700BF038829B923F080031B041B0C62
:1017C800038070479BB243F080030380704700BFDB
:1017D800038823F008031B041B0C038003889BB2B7
:1017E80019430180704700BF038823F440731B042A
:1017F8001B0C038003889BB219430180704700BF0C
:10180800038829B923F001031B041B0C03807047CC
:101818009BB243F001030380704700BFF0B5048C0E
:101828008D89B1F802E00F8824F001042404240C07
:101838000484028C8488038B4EEA050E22F002028F
:1018480023F073034FF48066002512041B04C4F2CE
:101858000106C4F20105120C1FFA8EFE1B0CA842E9
:1018680018BFB0424EEA0202A4B243EA070317D1F6
:101878004FF6F775B1F80EE0B1F812C00E8A8F88EE
:10188800154045EA0E0E4FF6FB724CEA06064FF677
:10189800FF450EEA0202B6B225403A4346EA05047D
:1018A80089688480038341630284F0BD2DE9F04197
:1018B800048C8D89B1F802E00F8824F01004240408
:1018C800240C0484028C8488038B22F020021204E6
:1018D80023F4E643120C42EA05121B044FF4806617
:1018E80000251B0CC4F20106C4F2010542EA0E12DF
:1018F80043EA0723A84218BFB04292B2A4B29BB2EF
:1019080019D14FF67F76B1F80E80B1F810C0B1F852
:1019180004E04F8A16404FF2FF3546EA08164FF6A4
:10192800BF722540324045EA8C0442EA0E1244EA6E
:10193800870492B2A4B28968848003838163028495
:10194800BDE8F0812DE9F041048C8D89B1F802E001
:101958000F8824F480742404240C0484028C848862
:10196800838B22F400721204120C42EA052223F03F
:1019780073034FF4806600251B04C4F20106C4F209
:10198800010542EA0E221B0CA84218BFB04292B2CF
:10199800A4B243EA070319D14FF2FF76B1F80E80DB
:1019A800B1F810C0B1F804E04F8A16404CF6FF7544
:1019B80046EA08264FF6FF322540324045EA0C1425
:1019C80042EA0E2244EA071492B2A4B289688480DB
:1019D8008383C1630284BDE8F08100BFF0B5048C45
:1019E8008D89B1F802E00F8824F480542404240C73
:1019F8000484028C8488838B22F400521204120C13
:101A080042EA05324FF480660025C4F20105C4F2AB
:101A18000106A84218BFB04223F4E64308BF0E8A65
:101A28008968A4B208BF4BF6FF754FEA034308BFA5
:101A380025404FEA134308BF45EA861442EA0E32AE
:101A480043EA072392B29BB208BFA4B2848083837F
:101A580001640284F0BD00BF0023038043808380BB
:101A680083608381C38103824382704730B4058CCD
:101A78000124ADB28C404FF6F77325EA04040B40FD
:101A88000484183073B10439C1F34E0148F6FF736A
:101A98000C5823400B5012020B5892B21A430A50AA
:101AA80030BC704749084FF68F7344582340435061
:101AB80043581A43425030BC704700BF41637047D7
:101AC80081637047C163704701647047038B23F0DB
:101AD80070031B041B0C194301837047038B23F409
:101AE800E0431B041B0C43EA01218BB203837047BC
:101AF800838B23F070031B041B0C194381837047ED
:101B0800838B23F4E0431B041B0C43EA01218BB2B3
:101B180083837047038B23F008031B041B0C1943B2
:101B280001837047038B23F400631B041B0C43EAF7
:101B380001218BB203837047838B23F008031B04B6
:101B48001B0C194381837047838B23F400631B04A8
:101B58001B0C43EA01218BB283837047038B23F06C
:101B680004031B041B0C194301837047038B23F4E4
:101B780080631B041B0C43EA01218BB2038370476B
:101B8800838B23F004031B041B0C194381837047C8
:101B9800838B23F480631B041B0C43EA01218BB263
:101BA80083837047038B23F080031B041B0C1943AA
:101BB80001837047038BC3F30E0343EA01218BB201
:101BC80003837047838B23F080031B041B0C19438A
:101BD80081837047838BC3F30E0343EA01218BB2E1
:101BE80083837047038C23F002031B041B0C1943E7
:101BF80001847047038C23F008031B041B0C194352
:101C080001847047038C23F020031B041B0C43EA58
:101C180001118BB203847047038C23F080031B04EB
:101C28001B0C43EA01118BB203847047038C23F425
:101C380000731B041B0C43EA01218BB20384704719
:101C4800038C23F400631B041B0C43EA01218BB2B1
:101C580003847047038C23F400531B041B0C43EAD2
:101C680001318BB203847047038C10B401248C407B
:101C78009BB223EA04030384038C5DF8044B8A4077
:101C880013439BB203847047038C10B404248C4024
:101C98009BB223EA04030384038C5DF8044B8A4057
:101CA80013439BB2038470470B88F0B4002B32D0E7
:101CB800042B59D0082B4E88038C00F084808F8821
:101CC8000D89CC8823F480510904090C0184828B86
:101CD800038C22F4407223F4005312055B04120DA6
:101CE8005B0C42EA072243EA063342EA05329BB21A
:101CF80043F4805392B282830384838B23F440633A
:101D08001B041B0C8383838B9BB243EA04239BB283
:101D18008383F0BC7047038C4E888D880F89CC88EC
:101D280023F001010904090C0184028B038C22F0C1
:101D3800F3021204120C23F00A0342EA07121B04EE
:101D480046F0010192B21B0C2A430B430283038421
:101D5800038B23F00C031B041B0C0383038B9BB224
:101D680023430383F0BC7047038C4E888D880F890A
:101D7800CC8823F010010904090C0184028B038C20
:101D880022F44072120523F0A003120D1B0442EA4C
:101D980007321B0C43EA061392B242EA05229BB2B1
:101DA80043F0100392B202830384038B23F440634D
:101DB8001B041B0C0383038B9BB243EA04239BB2D3
:101DC8000383F0BC70478D880F89CC8823F4807119
:101DD8000904090C0184828B038C22F0F30223F49A
:101DE800206312041B04120C1B0C42EA071243EA7C
:101DF800062392B29BB243F480732A4382830384FE
:101E0800838B23F00C031B041B0C8383838B9BB2F3
:101E1800234383837DE700BF002301228280038060
:101E28004380C380038170472DE9F0414B888E8839
:101E38000A88002B0CBF02270027012E14BF4FF081
:101E4800010E4FF0020E002A55D0058CB1F808801B
:101E5800B1F806C025F010052D042D0C0584048B5F
:101E6800018C24F44074240521F0A001240D0904F8
:101E7800090C44EA083441EA0313A4B244EA0626EA
:101E88009BB243F01003B6B206830384018B21F49E
:101E980040610904090C0183038B9BB243EA0C23BC
:101EA8009BB20383018C21F001010904090C018410
:101EB800028B038C22F0F302120423F00A03120CA3
:101EC8001B0442EA08121B0C43F0010392B21F43A1
:101ED80042EA0E0EA0F818E00784038B23F00C03E7
:101EE8001B041B0C0383038B9BB243EA0C0CA0F866
:101EF80018C0BDE8F081028CB1F808C0CD8822F086
:101F080001021204120C0284018B048C21F0F301EB
:101F18000904090C24F00A0441EA0C11240443F0D2
:101F2800010389B2240C1C430E4306830484038BEB
:101F380023F00C031B041B0C0383038B9BB22B4362
:101F48000383038C23F010031B041B0C0384028BF4
:101F5800038C22F44072120523F0A003120D1B0417
:101F680042EA0C321B0C43F0100392B243EA071703
:101F780042EA0E2EA0F818E00784038B23F440638E
:101F88001B041B0C0383038B9BB243EA0525ADB2EC
:101F98000583BDE8F08100BF406B7047806B7047D8
:101FA800C06B7047006C7047038B23F00C031B0455
:101FB8001B0C0383038B9BB219430183704700BF3B
:101FC800038B23F440631B041B0C0383038B9BB21A
:101FD80043EA01218BB20383704700BF838B23F050
:101FE8000C031B041B0C8383838B9BB219438183D3
:101FF800704700BF838B23F440631B041B0C83834F
:10200800838B9BB243EA01218BB28383704700BF65
:10201800F0B50B88B1F802E08F88CE880D894C891D
:102028008A894EEA03033B4333432B432343134339
:102038009BB2A0F84430F0BD002303804380838026
:10204800C380038143818381704700BFB0F8443067
:1020580021B9C3F30E03A0F8443070476FEA434335
:102068006FEA53439BB2A0F844307047838829B97C
:1020780023F004031B041B0C838070479BB243F0BE
:1020880004038380704700BF838829B923F00103C4
:102098001B041B0C838070479BB243F001038380B1
:1020A800704700BF83899BB21AB923EA0101818175
:1020B800704719438181704781827047038A1942AA
:1020C8000CBF002001207047C94389B201827047C4
:1020D800038A828911420CBF0020012019420CBFDB
:1020E800002000F001007047C94389B2018270479F
:1020F8000A43A0F84820704783899BB21AB923EA9B
:10210800010181817047194381817047838829B90A
:1021180023F008031B041B0C838070479BB243F019
:1021280008038380704700BF038923F007031B045B
:102138001B0C0381704700BF038923F070031B0445
:102148001B0C1943018103899BB243F007030381E8
:10215800704700BF602970B427D0068C26F00106AE
:102168003604360C0684058B048C25F0F3052D0403
:1021780024F00A042D0C240445F00105240C45EA3A
:10218800031344F001049BB22243038302840389AE
:1021980023F070031B041B0C0B43038103899BB2C0
:1021A80043F00703038170BC7047048C24F01004CB
:1021B8002404240C0484058B048C25F4407524F035
:1021C800A0042D0524042D0D240C45F4807544F03D
:1021D800100445EA033344EA02129BB292B2038325
:1021E8000284D4E710B4048942EA0323E4B2234307
:1021F8009BB21943018103895DF8044B23F07703EF
:102208001B041B0C43F077030381704710B4048947
:1022180042EA0323E4B223439BB2194301810389B1
:102228005DF8044B9BB243F480430381704700BFC1
:10223800038923F070031B041B0C194301817047A9
:10224800838823F070031B041B0C838083889BB254
:1022580019438180704700BF038923F007031B04DB
:102268001B0C038103899BB219430181704700BF8E
:10227800038923F080031B041B0C038103899BB291
:1022880019430181704700BF10B40489E4B22143A7
:102298000A4342EA03239CB204815DF8044B704769
:1022A80070B40589048B068C24F4407426F0220649
:1022B80024F003043604360C25F0070524043243C1
:1022C8002D04240C2D0C44F4807442EA0313294392
:1022D80044F001049EB201810483068470BC7047F7
:1022E800838829B923F080031B041B0C8380704763
:1022F8009BB243F080038380704700BFA0F8501062
:10230800704700BF10B5D0F8E43504461B699847FC
:10231800032384F81231002010BD00BF08B5042241
:10232800D0F8E43580F81221DB689847002008BD12
:1023380008B5D0F8E035DB6903B19847002008BD3F
:1023480008B5D0F8E0351B6A9847002008BD00BFE3
:1023580008B5D0F8E0355B6A9847002008BD00BF93
:10236800002110B50B460446402201F0E7FA80210F
:1023780020464022002301F0E1FA0122D4F8E43596
:1023880084F81221A0785B689847002010BD00BF30
:1023980010B582B06946044600F03AF99DF800107D
:1023A80001F01F03012B18D010D3022B07D02046B1
:1023B80001F0800101F03CFB002002B010BD204676
:1023C800694600F0F9FA002002B010BD20466946BF
:1023D80000F05AF9002002B010BD2046694600F00E
:1023E800D1FA002002B010BD70B5044629B990F8A2
:1023F8001131022B0CD0002070BDD0F8E0355B699C
:10240800002BF8D090F81221032AF4D19847F2E76C
:10241800D0F83421D0F820319A4210D9C178012956
:10242800D0F82411C3EB020208BFC918C0F8342140
:1024380008BFC0F8241192B200F0A2F8DBE7D0F888
:102448003851B5FBF3F603FB16565EB9AB4209D813
:10245800D0F83C319D4205D2324600F091F8C4F8DC
:102468003C61C8E7D4F8E035DB681BB194F8122169
:10247800032A03D0204600F0B3F8BCE7204698476B
:10248800F8E700BF10B5044629B990F81131032BBD
:102498000CD0002010BDD0F8E0359B69002BF8D097
:1024A80090F81221032AF4D19847F2E7D0F88C2348
:1024B800D0F878339A4212D9C1780129D0F87C1320
:1024C800C3EB020204BFC918C0F87C13C0F88C2300
:1024D8009A4228BF1A4692B200F06AF8D9E7D0F8B3
:1024E800E0351B691BB190F81221032A03D020465E
:1024F80000F066F8CDE79847F9E700BF2DE9F0410D
:10250800069D0446174698460E46FEF77DFA204675
:102518003146C4F8E085C4F8E455C4F8E87501F01C
:10252800BFF9D4F8E4351B6898472046BDE8F04168
:10253800FEF7C0BA00207047D0F8E03510B5044661
:102548001B689847D4F8E4359B689847002010BD6D
:1025580008B5D0F8E0355B689847002008BD00BF93
:1025680038B5134602250A46C0F83831C0F8343168
:1025780080F81151002101F03FFA002038BD00BF5A
:1025880008B513460A46002101F036FA002008BDB6
:1025980038B5134603250A46C0F89033C0F88C3383
:1025A80080F81151002101F00BFA002038BD00BF5E
:1025B80008B513460A46002101F002FA002008BDBA
:1025C80010B50021042304460A4680F811310B4651
:1025D80001F012FA204601F069F8002010BD00BF92
:1025E80010B50021052304460A4680F811310B4630
:1025F80001F0E6F9204601F059F8002010BD00BFAF
:1026080001EB810100EBC100B0F88803704700BFFF
:1026180090F8C8350B7090F8C9354B7090F8CB25F9
:1026280090F8CA3503EB02234B8090F8CD2590F83B
:10263800CC3503EB02238B8090F8CF2590F8CE356C
:1026480003EB02239BB20122CB80C0F83C3180F817
:102658001121704710B591F90030002B044609DBB1
:10266800CB883BB1002101F0E3F92046BDE81040DA
:1026780001F01CB82046802101F0DAF92046BDE8B7
:10268800104001F013B800BF70B54B7882B00C460B
:102698000546092B0CD8DFE803F0354C0B600B0519
:1026A800770B8D12A3881BB9E388002B00F0988064
:1026B80028462146FFF7CEFF002002B070BDA17862
:1026C80040F68016C2F2000601293170F0D890F861
:1026D8001231022B00F09F80032BE9D1002900F072
:1026E8003F8190F81011012900F03281FFF730FF87
:1026F8003178284685F81011FFF71EFF2846FFF7A6
:102708005FFFD9E790F812310122023B93424FF064
:102718000301CDD8D0F81431002B5BD140F68013DB
:10272800C2F200039A60284694490122FFF718FF75
:10273800C2E790F81231023B012BB9D86388012B0C
:10274800BAD1D0F8E03500229B68C0F814212146A0
:1027580098472846FFF734FFAEE76388012B00F05F
:10276800F080022BA8D1A38813F0FF0FA4D102692F
:102778001B0A5068013B0146042B00F2FC80DFE88D
:1027880003F09E9A92A6A2006288130A013B062BC8
:102798008ED801A151F823F08D2800084F28000891
:1027A8003D280008B9260008B9260008B9260008FF
:1027B800B9260008E288012A7FF47AAF90F812312E
:1027C800022B24D0032B7FF473AF00F58871FFF739
:1027D800C7FE71E740F68013C2F200039960A2E7D2
:1027E80090F81231A678032B06F07F063FF460AF0D
:1027F80080F81361314601F065F92846FFF7E0FEDD
:10280800002E00F0A980022385F8123154E75C49B4
:10281800FFF7A6FE50E7002900F09A800121032364
:1028280080F8101180F81231FFF786FE2846FFF76E
:10283800C7FE41E7D2B2052A3FF63AAFDFE802F019
:10284800786F665D544BD0F8E03580789B6A0DF15F
:1028580006019847022343700146C5F8EC05BDF808
:102868000630002B3FF428AFE288002A3FF424AF5B
:10287800934228BF13461A462846ADF80630FFF79C
:102888006FFE19E7D0F8E83580781B680DF106016E
:102898009847E288402A014603D095F81231012B67
:1028A800DDD10823E1E7032363F3061151602846CD
:1028B800FFF786FE00E7022363F30611F6E701231C
:1028C80063F30611F2E7052363F30611EEE7042329
:1028D80063F30611EAE7D0F8E83580789B690DF1D3
:1028E800060198470146BAE7D0F8E83580785B6971
:1028F8000DF1060198470146B1E7D0F8E835807830
:102908001B690DF1060198470146A8E7D0F8E8359C
:102918008078DB680DF10601984701469FE7D0F8FB
:10292800E83580789B680DF106019847014696E7DF
:10293800D0F8E83580785B680DF1060198470146C4
:102948008DE7D0F8E025C0F8143121469368984700
:102958002846FFF735FEAFE6012385F81231ABE6CE
:10296800022380F8101180F81231FFF7F1FD284694
:10297800FFF726FEA0E6014698E700BF8809002079
:102988008409002038B590F81231032B04460D460F
:1029980002D10B79012B03D9FFF75CFE002038BD6B
:1029A800D0F8E0359B689847EB88002BF6D1204695
:1029B800FFF706FEF2E700BF70B54B788A88012B57
:1029C8000C460546D6B221D016D3032B12D190F867
:1029D8001231022B14D0032B3ED14B880BB973064E
:1029E8004FD1D5F8E03521469B68284698472846B8
:1029F800FFF7E6FD002070BD90F81231022B14D1CC
:102A08007206F7D0314601F013F8F3E790F8123167
:102A1800022BF5D0032B1FD14B88002BEAD171066E
:102A2800E5D0314601F022F8DBE7032B14D1130679
:102A380016D406EB860600EBC60696F87233CBB9B9
:102A480040F68013C2F200030022DA6028460F49DC
:102A58000222FFF785FDCDE7FFF7FCFD002070BDE2
:102A680006F07F0606EB860600EBC60696F81A31D6
:102A7800002BE5D040F68013C2F200030122DA6091
:102A8800E4E7314600F0D4FFABE700BF8C09002033
:102A980030B4F0B10378F3B10446002314F8015FB1
:102AA8000133DBB2002DF9D15B000233DCB2032520
:102AB80013800C704D7002785AB1022300255C1CFB
:102AC800E4B2CA540D5510F8012F0233DBB2002AC4
:102AD800F5D130BC704702242346E8E738B540F208
:102AE800CC04C2F200042068FF2810D040F238025B
:102AF80040F69013C2F20003C2F2000241F2301114
:102B080095681A68C2F20001A847FF2323600020D5
:102B180038BD00BF43230B8000487047D000002019
:102B280070B540F69014C2F2000463685A1C052B75
:102B3800626001D0002070BD227A0023012A636000
:102B4800F8D0E1682569B1F5006F29D0A9422CD0E9
:102B580098BF8EB221D9C1F5006565618EB2D0F8F3
:102B6800EC35B3F83930AB4224BF0022626141F240
:102B780038122EBF4919C918C3EB0505C2F2000265
:102B880039BFE1606561E160ABB232440125812162
:102B9800257200F031FF002070BD6D1A6561DEE717
:102BA800E3601E461946002DF7D100232372C1E7C2
:102BB80038B501EB810140F2380300EBC101C2F2E4
:102BC800000341F2F0040546C2F20004B1F888138C
:102BD8001B6920469847D5F8EC352246B3F84030B3
:102BE8002846012100F0ECFE002038BD70B50B78B6
:102BF80013F060050C4606461ED0202D18D1CD884E
:102C0800002D54D01B0636D440F2CC0640F6901363
:102C18004C78C2F20006C2F2000341F230112A4693
:102C2800C2F2000134601D60FFF7B2FC002070BDE5
:102C3800FFF710FD022070BD4B780A2B31D00B2B0B
:102C48000FD0062BF2D14B881B0A212B03D1CA883F
:102C58003A2A28BF3A2230461C49FFF781FC002057
:102C680070BD8B78002B2DD140F69012C2F2000275
:102C78001846936170BD40F23803C2F2000341F276
:102C880030112A469B686078C2F20001984741F2E9
:102C980030113046E288C2F20001FFF761FC0020E3
:102CA80070BD0B490122FFF75BFC284670BD40F25E
:102CB8003803C2F2000348789B6829462A46984799
:102CC800284670BDFFF7C6FC284670BDE20000200C
:102CD800A809002010B58121044600F055FE2046C1
:102CE800012100F051FE8221204600F04DFE40F205
:102CF8003803C2F200035B689847002010BD00BF8C
:102D0800D0F8EC2538B5044681210223B2F83920E1
:102D180000F014FED4F8EC352046B3F84020012129
:102D2800022300F00BFE204682210822032300F034
:102D380005FE40F24C0340F23802C2F20003C2F230
:102D480000020221002519715D7113689847D4F8B3
:102D5800EC3541F2F002B3F840302046C2F20002EE
:102D6800012100F02DFE284638BD00BF38B540F6D9
:102D78009011C2F200010B7A012B01D0002038BD5E
:102D88004C69E4B1D0F8EC35CD68B3F839309C42E1
:102D98000FD82B190022CB60ADB223464A6141F20D
:102DA8003812C2F200022A44812100F025FE0020D8
:102DB80038BD5A19E41A4C61CA60ADB2EFE70C721B
:102DC800002038BD30B5054683B0002303200193A9
:102DD800FDF788FE2B681A694FF454640192C0F21B
:102DE800030406E0FDF77EFE2B681A69013C019298
:102DF8001BD0019A002A4FF00300F3DA019A42F03F
:102E080001020192019A1A6119694FF45462019101
:102E1800C0F2030203E01969013A019102D0019955
:102E2800C907F8D40320FDF75DFE002003B030BDCC
:102E380030B4C5786DB900EB820003339B10D0F82D
:102E4800D04006D02A4651F8040B01329342206044
:102E5800F9D1002030BC7047033270B49510D0F817
:102E6800D06009D00A460023346801339D4242F8F5
:102E7800044BF9D101EB8501084670BC704700BFCF
:102E88002DE9F047012440220023A142847082806A
:102E9800C37068D0002945D04278C3604FF4006100
:102EA800016190F80080002A7DD09C464FF460674D
:102EB8004FF4886A4FF480694FEA421E00230246A5
:102EC8000CF510660CF53065F418E91820337345D5
:102ED8009461516502F10402F6D10CF5A062C0F8C4
:102EE8001490C0F8CCA002EB48140146B8F1000FCA
:102EF80013D0C1F890202032A24201F10401F8D188
:102F08000CF5805303EB08310246C2F8D03003F5C4
:102F180080538B4202F10402F7D1C0F80C710020F3
:102F2800BDE8F0870023C4F204034FF00C08062222
:102F38004FF4A0654FF460674FF4886A4FF48069D6
:102F48004FF40064C1729C4680F800804270C580CE
:102F5800C4F20407C4F2040AC4F20409C4F2040463
:102F6800C3600461A8E74FF0080804224FF4A07674
:102F780002254FF460674FF4886A4FF480694FF474
:102F880000644FF0A043C17280F800804270C68090
:102F98000572C5F20007C5F2000AC5F20009C5F2BC
:102FA80000049C46DCE794464FF460674FF4886A57
:102FB8004FF4806991E700BF38B5037A012B0446C6
:102FC8004FF0000530D050F80C2FD36843F0400381
:102FD800D360FFF7F7FE237A627A032B14BF4FF40E
:102FE80034134FF43C130AB143F48013E2681420FD
:102FF8009363FDF789FDE368227AD968032A0CBF39
:1030080041F480320A46DA60227A032A37D0E3781C
:10301800012B07D1E3689D68052262F3440545F05A
:1030280020059D60002038BDC268417A936B65F326
:10303800104309B143F480139363D36823F48003E6
:1030480023F0500343F010036FF3C3036FF3C71368
:103058006FF351436FF3D343D36004F10C00FFF7D0
:10306800B1FEE378012BDDD1052363F34405E36862
:1030780045F020059D60E378012BCBD0D2E71D6B8E
:10308800012262F39B656FF3D7552D2245F08055D9
:1030980062F316451D63C820FDF736FDE36845F465
:1030A80000051D63C820FDF72FFDB0E7C3689A68C7
:1030B80042F001029A600020704700BFC3689A6816
:1030C80022F001029A600020704700BF00B583B06B
:1030D80000230193019B43F020030193019B61F3BB
:1030E8008A130193019BC1680B610A694FF4546309
:1030F8000192C0F2030303E00A69013B019202D086
:10310800019A9006F8D40320FDF7ECFC002003B0E8
:103118005DF804FB00B583B000230193019B43F0E5
:1031280010030193019BC1680B610A694FF4546352
:103138000192C0F2030303E00A69013B019202D045
:10314800019AD206F8D40320FDF7CCFC002003B086
:103158005DF804FBC26808B5D3686FF35D736FF35D
:103168009E73012908BF43F0005302D009B943F008
:103178008043D3603220FDF7C7FC002008BD00BFA4
:10318800C368586900F00100704700BFC3685869F8
:1031980000F0010080F00100704700BFC368586963
:1031A80000F00100704700BFC3685A699869104071
:1031B800704700BFC3685868704700BF03691A6842
:1031C80061F301021A60704710B4C2684FF40064DA
:1031D8004FF0FF310023C8F2000493615161516040
:1031E80051619461C07891695DF8044B984208BFB9
:1031F800102343F4701343F4605343F008030B4364
:1032080000209361704700BFF8B50446D0F80C0160
:103218002269002101600B46116863F3CC2111601B
:10322800E17A01294DD010212046FFF74FFF2046B3
:10323800FFF770FF256900224FF0FF332A616A61AA
:10324800AB61EA6163783BB317462146FF268B6979
:1032580018680028B4BF4FF09040002018601F6124
:103268009E6063780132934201F10401EFD89BB16B
:10327800002217462146FF264B6D18680028B4BF68
:103288004FF09040002018601F619E606378013203
:10329800934201F10401EFD82B6943F480732B6149
:1032A800E378012B01BF03F58173C0F201034022CB
:1032B80062F3594308BF2B632046FFF785FF0020C0
:1032C800F8BD1768E068C021802561F30F034FF44B
:1032D800800165F31F4347F0030765F30F014FF4BF
:1032E800A076176045628162C0F8043166F30F0367
:1032F8006FF31F43C0F80831C0F80C3193E700BFE3
:1033080003699B68C3F34103022B07D0032B03D047
:10331800012B01D00320704702207047012070471D
:103328000369826998681168C0F34100022806BFE2
:10333800032060F30A016FF30A0111605A6842F42E
:1033480080725A600020704770B44B78012B4FF0A0
:10335800000220D00B7800EB8304012505FA03F363
:10336800646D63F31F4223681D040DD48E68CD7805
:10337800C98866F30A0365F3934361F3995343F0ED
:10338800805343F4004323600369D9690A4300204A
:10339800DA6170BC70470C7800EB8405A34063F3D6
:1033A8000F02AC69DFE700BF30B44A780023012A76
:1033B8001C4613D00A7800EB8201012505FA02F2B7
:1033C800496D62F31F4402696FF3CF330B60D36911
:1033D80023EA0404D461002030BC7047097800EB6C
:1033E80081058A4062F30F04A969ECE7F0B54C78CF
:1033F8000B784D69012C00EB83032ED05C6D23689C
:1034080022691DB38E683544013DB5FBF6F5C5F359
:10341800090765F3DC4206FB07F666F31202226130
:10342800C278012A01BF0C780A6900EB8404646D34
:1034380008BF6261CA78012A55D00A7800EB820079
:1034480043F00443426D13600020F0BD8D680126EF
:1034580065F3120266F3DC42E1E79E69336832697C
:10346800002D45D08C68CF7805EB040E0EF1FF3E99
:1034780065F31202BEFBF4F464F3DC42012F08BFCB
:1034880067F35E723261C278012A43D0CA78012A92
:1034980036D055B102690C78566B012707FA04F447
:1034A80034435463CA78012A2AD00A7800EB82028E
:1034B80043F0044392691360CB78012BC4D1C378DD
:1034C800CA680978002BBFD1ADB200EB8100033583
:1034D800AD10D0F8D000B7D052F8041B01339D428C
:1034E8000160F9D1B0E74A793AB143F00053A4E753
:1034F80065F3120264F3DC42C4E743F080539CE7AF
:1035080002699268D60558BF43F00053CDD543F001
:103518008053CAE70C780A6900EB8404A4696261E5
:10352800C0E700BFF0B44A78012A82B031D00B78E6
:103538004C698E6800EB83035A6D13681569009512
:103548009DF8005014B39DF802404E61012767F3BF
:10355800C40466F306058DF800508DF80240009CFF
:103568001461C278012A02BF0C780A6900EB84044E
:1035780043F0044304BF646D62610A7800EB820083
:10358800426D1360002002B0F0BC70479DF8024005
:10359800DCE784694D69236826690096002D36D0DA
:1035A8008A68954293BF9DF800209DF800504A61B3
:1035B80065F306028CBF62F306058DF800209DF8BE
:1035C800022088BF8DF80050012565F3C4028DF8EC
:1035D8000220009A2261C278012A02BF0D780A6986
:1035E80000EB850543F0044304BFAD696A612360BD
:1035F800C378002BC6D14B69002BC3D003690A7866
:10360800596B012000FA02F20A435A63BAE79DF89F
:1036180000709DF8026065F3060762F3C4068DF832
:1036280000708DF80260D4E74B78012B0B7800EB23
:10363800830006D0426D136843F400131360002022
:10364800704782691368002BB8BF43F0804343F486
:1036580000131360002070474B78012B0B78C97852
:1036680000EB8300A1F102010CBF8269426D13686F
:10367800C9B26FF35553012998BF43F080531360C3
:103688000020704703699A69D8691040000C704798
:1036980000EB810102694B6D9B68506918407047C7
:1036A80003699869DB69184080B2704710B4012239
:1036B80083B04FF0000362F3C403C0210024182232
:1036C80000948DF802308DF803108DF80020436DBA
:1036D800009A1A61C278012A01BF00F5B9605861E1
:1036E80019684FF0802208BF1A6003B05DF8044BD8
:1036F800704700BFD0F8143110B504461BB10369F8
:103708009A68D20700D410BD827A42B1D0F80C2151
:10371800D0F80C116FF341026FF300020A605A6887
:1037280042F001025A600520FDF7EEF923695A6854
:1037380022F001025A6010BD837A6BB103699B685D
:10374800D90741BFD0F80C31D0F80C216FF34103F1
:103758006FF3000348BF1360704700BF38B5437864
:103768000122054680F8122163B103460022FF2199
:103778009C69A1605C6DA1606C780132944203F190
:103788000403F5D82B6900224FF0FF311A6128464F
:103798005A61DA619961FFF7BDFC28461021BDE83E
:1037A8003840FFF793BC00BF4B78012B0B7800EB38
:1037B80083000BD0436D1B68980211D413F4003FAB
:1037C8000CBF4FF440504FF40050704783691B689A
:1037D8009A0208D413F4003F0CBF30202020704711
:1037E8004FF4805070471020704700BFF0B44D78F8
:1037F800012D0B4604461BD0087804EB8000B2F577
:10380800805F446D21680D4608BF41F400110CD05B
:10381800B2F5005F08BF41F0006106D0B2F5405F25
:1038280019D012B962F3CF3529462160F0BC704730
:103838000F7800EB8707102ABC69266835462BD01D
:10384800202A08BF46F00061EFD0302A19D031464F
:10385800002AE7D0E9E78D025CBF41F0806545F0BA
:103868008021E2D500215971426DD8781368023859
:10387800C0B261F35553012898BF43F080531360D9
:10388800D4E7B2025CBF46F0806545F08021CCD514
:1038980000215971BA69E8E7F0BCFFF7C5BE00BF5F
:1038A80070B50446FFF7ECFA63780126002284F825
:1038B800126184F813217BB311462346402583F80F
:1038C8001821A3F81E2183F8196183F81B11C3F886
:1038D8002051C3F82411C3F82C11607801329042AA
:1038E80003F12803EBD8B8B100221146234640253E
:1038F80083F87023A3F8762383F8711383F873137E
:10390800C3F87853C3F87C13C3F884136078013282
:10391800904203F12803EBD82046FFF7CFFB20465F
:10392800FFF74AFB20460021FFF714FC2046FFF76B
:103938006BFC2046BDE87040FFF7B8BB70B50C06BD
:1039480013D401EB8105ED0005F55C7544190026DB
:103958004155A260E3706670022B04BF00232371F7
:103968002146FFF7F1FC002070BD01F07F0101EB5B
:103978008105ED0005F58C75441901264155A260B5
:10398800E370E1806670E7E7CAB208B5130645BF81
:1039980001F07F0101EB810301EB810300EBC3031D
:1039A80056BF00EBC30303F58C7303F55C73D209B0
:1039B80019705A701946FFF7F7FC002008BD00BFC0
:1039C80070B501F07F0404EB8405ED0005F55C7526
:1039D80041190026CA604B618E614E704455C37808
:1039E800012B08BF0A611CB1FFF700FD002070BD64
:1039F800FFF798FD002070BDF8B501F07F0404EBD7
:103A08008405ED0005F58C7541194FF0010E00276E
:103A180081F801E04455CA600A614B618F611CB1AD
:103A2800FFF7E4FC0020F8BDFFF77CFD0020F8BD9F
:103A3800CAB210B5140645BF01F07F0101EB81033E
:103A480001EB810300EBC30356BF00EBC30303F58F
:103A58008C7303F55C73D209012419705A709C7039
:103A68001946FFF7E1FD002010BD00BFCAB21306DA
:103A780046BF01F07F0101EB810301EB810310B523
:103A88004BBF00EBC30300EBC30303F58C7303F5D3
:103A98005C73D209002419705A709C701946FFF79C
:103AA800DBFD204610BD00BF0A0608B503D4FFF7AA
:103AB80031FB002008BD01F07F01FFF707FB002064
:103AC80008BD00BF03690022186861F30A120243A7
:103AD8001A60704703695A686FF341025A600320FD
:103AE800FDF712B803695A6842F002025A600320CF
:103AF800FDF70AB80B0645BF01F07F0101EB810114
:103B080001EB810100EBC10156BF00EBC10101F5DA
:103B18008C7101F55C71FFF747BE00BF0B0645BF0E
:103B280001F07F0101EB810101EB810100EBC10193
:103B380056BF00EBC10101F58C7101F55C71FFF70F
:103B480055BE00BF2DE9F04F83B00446FFF71EFBBA
:103B580018B9002003B0BDE8F08F2046FFF724FB1A
:103B680005460028F5D0C0F3C04000282AD16F03CD
:103B780000F16581AE0742BFE36802225A61002D59
:103B8800C0F23F81290500F116812B0700F106815B
:103B9800EF0600F1DC80EE0400F19D80A9047DD4DD
:103BA800EA026DD4AB02D5D540F29C03C2F2000301
:103BB80020461B681B6A9847E3684FF400125A6155
:103BC8000120C7E72046FFF75DFD0646002855D0CF
:103BD80040F29C09C2F200092746A2464FF00008AD
:103BE800019507E0760808F1010807F104070AF1D2
:103BF800280A42D0F307F5D55FFA88F5294620460A
:103C0800FFF746FD10F0010F83461AD07A6D0123A5
:103C18009360E178994201BF1169DAF87823C1F31A
:103C28001201C1EB020208BFCAF88823D9F80020A4
:103C38009B462946136820469847E378012B00F0F5
:103C4800D5811BF0020F1FBF4FF0020B7B6D5A4648
:103C58009A601BF0040F1FBF7B6D4FF0040B5A4690
:103C68009A601BF0080FBDD0D9F8003020469B6839
:103C780098477B6D08229A60B4E7019D012076E79A
:103C880040F29C03C2F2000320461B68DB69984798
:103C9800E3684FF480125A61012083E72046FFF75A
:103CA8003FFBE3682046DE68FFF72AFB03280BBFCB
:103CB800092305234FF40072402263F38D26E3683D
:103CC800A2800CBF002101214FF40052A1700120F5
:103CD800DE605A6164E723695A68002722F001020E
:103CE8005A6039462046FFF7F1F9637863B12346F5
:103CF8003A46FF2099698860596D88606178013279
:103D08008A4203F10403F5D30126236966F30F07FA
:103D18000F214FF0FF302F2266F31F479861DF61B4
:103D280059611A611A686FF30A121A602046FFF780
:103D3800BDFC40F29C03C2F20003E2681B684FF42A
:103D480080511B69516120469847304626E7E36851
:103D58009A6922F010029A611E6A06F00F0202EBBD
:103D68008202C6F3434104EBC207022907F55C77D8
:103D780000F0E88006290BD10822204604F5B96135
:103D8800FFF76AF8BA69E368C6F30A163244BA61FB
:103D98009A6942F010029A610120FCE640F29C0305
:103DA800C2F2000320461B68DB689847E3680822D4
:103DB8005A610120ECE640F29C03C2F2000320465F
:103DC8001B685B6998472269E36891684FF4006251
:103DD8005A61A37A9BB1CA0711D5D4F80C311A6875
:103DE80042F001021A6019684FF46D42CEF20002E7
:103DF80041F003011960136943F0060313610120C0
:103E0800C3E6A37A43B1D4F80C31D4F80C216FF38C
:103E180041036FF300031360226940F29C03C2F26E
:103E2800000351681B6821F0010151609B6920461D
:103E38009847E3684FF000425A610120A2E6204605
:103E4800FFF72EFC804600287AD040F29C03C2F28D
:103E580000030195274626464FF0000A1D4637E025
:103E68001BF0040F1EBFBB694FF0040BC3F808B06A
:103E78001BF0080F1EBFBB694FF0080BC3F808B052
:103E88001BF0100F1FBF1022BB6993469A601BF0EE
:103E9800200F1FBF2022BB6993469A601BF0400F7A
:103EA8001FBF4022BB6993469A601BF0020F1FBFD9
:103EB8000222BB6993469A601BF0800F54D15FEAD7
:103EC80058080AF1010A07F1040706F1280636D056
:103ED80018F0010FF3D023695FFA8AF91969586B52
:103EE80004EB890220FA09FB92694FEACB1B5FFABF
:103EF8008BFB92684BEA010B0BEA020B1BF0010FDC
:103F0800AED05A6B29684FF0010B0BFA0AF022EA7F
:103F180000025A63BA694B68C2F808B0204649469D
:103F28009847E3785B459BD1BAF1000F98D194F894
:103F38001131042B94D12046FFF7B8FB90E7019D7F
:103F4800012017E6C6F30A16002E3FF421AFF968E0
:103F580032462046FEF780FFF968BA69E3683144C3
:103F68003244F960BA6113E7D6F82C11D6F830E17B
:103F7800B869D6F82021D0F818C0CEEB01039342D7
:103F880034BF9B4693460BF1030B1FFA8CFCBCEB2A
:103F98009B0F28D9714526D929B3D6F8241106E0F4
:103FA800D6F82C219A421ED9D31AD6F820219A4243
:103FB80034BF93469B461FFA8BF34A462046FEF7CA
:103FC80037FFD6F82411D6F8303159445B44C6F887
:103FD8002411C6F83031B86982690BF1030B92B22B
:103FE800B2EB9B0FDCD88023836068E7B8F1000F41
:103FF8007FF427AE94F81131052B7FF422AE2046CA
:10400800FFF754FB1DE600BF70B590B0FCF728FA27
:10401800FCF70EFB204B21491B68214A214DA1FBCF
:1040280003139B09013B07210024F02653604FF43A
:10403800FA7085F8236094601160FCF741FAFCF788
:104048009FF8FCF7CFF8FCF70BF968460C21FCF752
:10405800B5F904A80D21FCF7B1F908A80E21FCF761
:10406800ADF90CA80F21FCF7A9F940F2DC50FCF7D8
:1040780027FA4FF07C5468460394FCF72BF904A800
:104088000794FCF727F908A80B94FCF723F90CA868
:104098000F94FCF71FF9EEE710000020D34D6210D3
:1040A80010E000E000ED00E0002103E00B4B5B585E
:1040B800435004310A480B4B42189A42F6D30A4A35
:1040C80002E0002342F8043B084B9A42F9D3FCF77C
:1040D8002FFA00F00FF8FFF797FF7047DC51000840
:1040E800000000207C0900207C0900203C190020E9
:1040F800FEE7000070B50F4E0F4D761BB61018BFC7
:10410800002405D0013455F8043B9847A642F9D15C
:104118000A4E0B4D761BFCF7C1F9B61018BF0024E8
:1041280006D0013455F8043B9847A642F9D170BD32
:1041380070BD00BFDC510008DC510008DC510008EC
:10414800DC51000800290CBF022200224FF48063D2
:1041580000F000B82DE9F0413A4C26680D460446B7
:1041680090461F4616B1B36B002B3CD0B8F1020F36
:104178002FD8002F2DDB2146304600F011F9A189F8
:1041880000236360A3610B0627D421F0830189B261
:10419800B8F1020FA1812AD0002D36D0B8F1010F55
:1041A80011D089B201F00800274BF36380B2256073
:1041B8002561676178B111F0030F18BF0027A76068
:1041C8000020BDE8F08141F001017B42A181A3619B
:1041D800E7E74FF0FF30BDE8F0812169304600F095
:1041E8005FFAA189D1E7304600F0EAF9BEE700207E
:1041F80004F1430341F0020100250122A181A560D9
:10420800236023616261BDE8F081002F08BF4FF48D
:104218008067384600F06CFB054628B1A18941F05B
:10422800800189B2A181B9E74FF4806000F060FB9A
:10423800054618B9A1894FF0FF30D9E74FF48067D8
:10424800ECE700BF68050020014400088B899AB29A
:104258002DE9F0410D46110780463CD46A6843F4C5
:104268000063002AAB8165DDAE6A002E4BD09BB29D
:1042780003F48052002192B2D8F80040C8F8001028
:10428800002A5BD02A6D5F0705D569682B6B521A27
:104298000BB1EB6BD21A4046E9690023B047461CC4
:1042A80056D0AB892A692A6023F400639BB20022A6
:1042B8006A60DA04AB813BD4296BC8F8004011B3BB
:1042C80005F14003994202D0404600F0E9F9002088
:1042D8002863BDE8F0812E69AEB12C682E60910785
:1042E8000CBF6B690023A41BAB600AE0324623466F
:1042F8006F6AE9694046B8470028A4EB0004064401
:1043080004DD002CF2DC0020BDE8F081AB8943F02D
:104318004003AB814FF0FF30BDE8F081AB892A69DB
:10432800696023F400639BB2AB81DB042A60C3D5C8
:104338002865C1E7EA6B002A96DCE4E701234046DA
:10434800E969B047431C024619D0AB89AE6A9AE7BF
:10435800D8F800100029E1D01D2907D0162905D06A
:10436800AB8943F04003AB81BDE8F081AB892A6992
:104378002A6023F400630022AB816A609CE7D8F8C6
:104388000030002BE1D01D2B07D0162B05D0AB89B0
:1043980043F04003AB81BDE8F081C8F80040B2E7C4
:1043A80010B5044682B008B1836B53B1B1F90C0063
:1043B80008B902B010BD204602B0BDE81040FFF7B2
:1043C80045BF019100F0FCF80199EFE720B1054BDA
:1043D80001461868FFF7E4BF034B0449186800F06A
:1043E8005DBA00BF68050020D8510008A94300083D
:1043F8000020704700207047014900F04FBA00BF05
:10440800B54F00082DE9F04F354B4568C3630024CC
:10441800074600F53B7204230321C0F8E412C0F8F4
:10442800E822C0F8E04283B02C606C60AC606C6637
:10443800EC812C616C61AC61AB81214605F15C00BB
:10444800082200F0F7FCBE68DFF898B0DFF898A003
:10445800DFF89890DFF89880C5F820B0012309228A
:10446800C5F824A0C5F82890C5F82C80ED61214630
:10447800F381B28106F15C0034607460B4607466E4
:1044880034617461B4610822019300F0D3FCFD68C3
:10449800F66112200222C6F820B0C6F824A0C6F899
:1044A8002890C6F82C802146A881EA812C606C608F
:1044B800AC606C662C616C61AC6105F15C00082233
:1044C80000F0B8FC019BED61C5F820B0C5F824A048
:1044D800C5F82890C5F82C80BB6303B0BDE8F08F01
:1044E80001440008E14E0008094F0008414F000848
:1044F800614F000870B568234D1E03FB05F50E4695
:1045080005F1740100F004FA044640B100210C30B2
:10451800666005F168022160A06000F08BFC20460F
:1045280070BD00BF204B70B51D68AB6B064613B954
:104538002846FFF767FF05F538756B68AC68013BDF
:1045480005D521E0013B5A1C04F168041CD0B4F9DC
:104558000C20002AF6D1002501234FF6FF72E281D4
:10456800A38165662560A560656025616561A561B3
:10457800294604F15C00082200F05CFC25636563B1
:104588006564A564204670BD2B680BB11D46D4E751
:1045980030460421FFF7AEFF286008B10546CCE796
:1045A8000C23336070BD00BFD8510008024B03498B
:1045B800186800F073B900BFD8510008B54F00085B
:1045C800836B03B17047FFF71DBF00BF704700BF83
:1045D800704700BF704700BF704700BF024B0349D8
:1045E800186800F035B900BF68050020F9430008D5
:1045F800024B0349186800F02BB900BF680500207A
:10460800FD430008F8B5234F0C46064600F060FC51
:10461800BB685D6825F00305291B01F6EF7121F4DD
:104628007F6121F00F01A1F58054B4F5805F07DBAD
:1046380030460021FCF752F8BB682B44984204D05E
:10464800304600F047FC0020F8BD30466142FCF7D8
:1046580045F801300DD0104BBA6819682D1B45F08C
:1046680001053046091B5560196000F033FC012034
:10467800F8BD30460021FCF731F8BA68831A0F2BD1
:10468800DEDD064C0449246843F00103001B536037
:104698000860D5E76C050020B809002078090020DB
:1046A80000294ED02DE9F0410C46804600F010FC60
:1046B80054F8047C624927F00102A4F10805AB18FC
:1046C8008E6858689E4220F003005AD0FE07586052
:1046D8000BD454F8087CED1B01F1080EAC68744546
:1046E8003A4467D0EF68E760BC601C186468E40768
:1046F8000CD4544F9C68BC4202447CD0D868E0601B
:1047080042F0010384606B60AA5003E042F00103A9
:104718006B60AA50B2F5007F14D2D20801EBC20335
:1047280048689F68AF609210012404FA02F21043AF
:10473800EB6048609D60FD604046BDE8F04100F0D8
:10474800C9BB7047530A042B47D8930903F13804AF
:10475800600001EB80003A498368834243D059687E
:1047680021F00301914202D99B689842F7D1DA6897
:10477800EA60AB6040469560DD60BDE8F04100F05E
:10478800A9BBFF07024407D454F8083CED1A1A44A1
:10479800A868EB68C36098602B4B1B6842F0010067
:1047A8009A4268608D60C7D3284B40461968FFF766
:1047B80029FFC1E719184968C90709D4D9689B684E
:1047C800024442F00100D9608B606860AA50B3E7E8
:1047D80042F001036B60AA50AEE7142B14D803F122
:1047E8005B046000B5E74A68A4100120A0400243BA
:1047F8004A601A46BCE742F001034D610D61EC6066
:10480800AC606B60AA5097E7542B04D8130B03F1E4
:104818006E0460009DE7B3F5AA7F04D8D30B03F1BB
:104828007704600095E740F25450834204D8930C13
:1048380003F17C0460008CE7FC207E2489E700BF3C
:104848006C0500207405002074090020B4090020BC
:104858002DE9F04110F538771BD0884600267D6891
:10486800BC68013D0FD4A389012B05F1FF3506D99A
:10487800B4F90E300133204601D0C04706436B1C03
:1048880004F16804EFD13F68002FE8D13046BDE855
:10489800F0813E463046BDE8F08100BF2DE9F8437F
:1048A80010F538771FD0884606464FF000097D6816
:1048B800BC68013D11D4A389012B05F1FF3508D946
:1048C800B4F90E3001332146304602D0C04749EAD8
:1048D80000096B1C04F16804EDD13F68002FE6D194
:1048E8004846BDE8F883B9464846BDE8F88300BFA6
:1048F800024B0146186800F00BB800BF680500209D
:10490800024B01461868FFF7CBBE00BF68050020C0
:104918002DE9F04F01F10B05162D83B0064627D976
:1049280035F0070500F1B680A94200F2B38000F027
:10493800CFFAB5F5FC7F22D2C24FE80807EBC003D7
:10494800DC689C4200F0C8816368E168A56823F0D0
:104958000303234430465A68E96042F001028D603F
:104968005A6000F0B7FA0834204603B0BDE8F08F6B
:10497800102900F28F8000F0ABFA1025DCE7680AF6
:1049880000F08F80042800F25481A80938304100D3
:10499800AC4F07EB8101CC68A14206D10CE0002A9C
:1049A80080F28280E468A14206D0636823F00303A2
:1049B8005A1B0F2AF3DD01380130A2493C6901F185
:1049C800080E744500F07D81636823F003035A1BC9
:1049D8000F2A00F36381002AC1F814E0C1F810E03F
:1049E80073DAB3F5007F80F03981DB0801EBC30887
:1049F8004FEAA30C4A68D8F80890C4F80890012335
:104A080003FA0CF31343C4F80C804B60C8F8084051
:104A1800C9F80C408210012494409C4262D8234279
:104A280006D120F003006400234200F10400FAD00C
:104A380007EBC008C4468146DCF80C309C4507D11A
:104A480041E1002980F25181DB689C4500F03B81FF
:104A58005A6822F00302511B0F29F2DD1C46D3F8D5
:104A68000CC054F8088F5A1945F0010941F00105A6
:104A7800C3F804903046C8F80CC0CCF808807A61B6
:104A88003A61C2F80CE0C2F808E05560515000F0F5
:104A980021FA69E700240C232046336003B0BDE8FF
:104AA800F08F7E213F2073E72344E1685A68A568A8
:104AB80042F00102E96030468D605A6000F00AFA5F
:104AC8000834204603B0BDE8F08F234430465A68C6
:104AD80042F001025A6000F0FDF90834204603B0A4
:104AE800BDE8F08FBC68636823F00308454504D827
:104AF800C5EB08030F2B00F38C80534BDFF858A14C
:104B08001A68DAF8003001332A4404EB080B00F085
:104B1800508102F580520F3222F47F6222F00F0298
:104B2800114630460192FBF7D9FDB0F1FF3F8146AF
:104B3800019A00F04781834500F2EE80434B1968E3
:104B4800CB451144196000F04281DAF80000DFF823
:104B580008E101301BBFCBEB090B5944CEF800909C
:104B6800196019F0070100F00781C1F10800C1F5CB
:104B78008051814408314A44C2F30B02C2EB010A56
:104B8800514630460193FBF7A9FD431C019B00F0F9
:104B98002C81C9EB0002524442F001021968C7F89F
:104BA80008905144BC42C9F804201960DFF89CA061
:104BB80016D0B8F10F0F40F2EE806268A8F10C032E
:104BC80023F00703E01802F001024FF0050E1A4324
:104BD8000F2B6260C0F804E0C0F808E000F2098119
:104BE8001B4BBC681A68914288BF1960194B1A6838
:104BF8009142626888BF196022F003029542A2EBD5
:104C0800050301D80F2B04DC304600F063F90024BB
:104C1800AAE6621943F0010345F0010565603046D4
:104C2800BA60536000F056F90834204603B0BDE876
:104C3800F08F142868D9542800F29780280B6E301A
:104C48004100A5E66C050020B4090020B809002041
:104C5800B0090020AC090020780900205A0A042A6B
:104C680055D9142A00F2A7805B324FEA420C07EBB1
:104C78008C0CDFF8BC81DCF8081061457FD04A68ED
:104C880022F00302934202D289688C45F7D1CA68A0
:104C98007B68E260A1609460CC60BBE6631942F077
:104CA800010745F00105656030464B610B61C3F8AB
:104CB8000CE0C3F808E05F609A50083400F00AF985
:104CC80052E64B68A6E609F1010919F0030F0CF149
:104CD800080C7FF4B1AE2CE004F108036469A34228
:104CE80008BF02303FF469AE2EE61A441C465168EC
:104CF800DB6854F8085F41F0010151603046EB6011
:104D08009D6000F0E7F82FE65B30410040E69A0925
:104D180038324FEA420CAAE7BC42454B3FF40EAF8B
:104D28009C68626822F0030268E7D8F8008098451A
:104D38007CD110F0030FA8F1080300F1FF30F4D183
:104D48007B6823EA04037B6064009C423FF6CAAE9A
:104D5800002C3FF4C7AE234248467FF469AE640096
:104D6800234200F10400FAD062E6B0F5AA7F18D811
:104D7800E80B773041000BE64FF48051FBE6D8F89A
:104D8800043092104FF0010C0CFA02F21343C8F8E9
:104D980004300A467DE70123C9F804304C46002256
:104DA8002CE740F2545398421CD8A80C7C304100A0
:104DB800EEE51032B4E6542A23D81A0B6E324FEAC5
:104DC800420C54E7BC68626822F0030216E7CBF392
:104DD8000B0000287FF4B9AE4244BB6842F00102E0
:104DE8005A60FDE6FC217E20D2E501224FF0000A40
:104DF800D4E604F108013046FFF752FCDAF8001057
:104E0800EEE6B2F5AA7F04D8DA0B77324FEA420C05
:104E18002DE740F254518A4204D89A0C7C324FEA6A
:104E2800420C24E74FF0FC0C7E2220E77B688BE7DE
:104E38006C05002070B4840746D0541E002A41D067
:104E4800CDB2034602E0621EE4B3144603F8015BE8
:104E58009A07F8D1032C2ED9CDB245EA05250F2C97
:104E680045EA054519D903F110022646103E0F2ED2
:104E780042F8105C42F80C5C42F8085C42F8045CAA
:104E880002F11002F2D8A4F1100222F00F0204F08D
:104E98000F041032032C13440DD91E462246043A3F
:104EA800032A46F8045BFAD8221F22F003020432D0
:104EB800134404F003042CB1C9B21C4403F8011BC9
:104EC800A342FBD170BC704714460346C2E700BF3B
:104ED800704700BF704700BF10B50C46B1F90E10FF
:104EE80000F0C2F8002803DB236D0344236510BDDE
:104EF800A38923F48053A38110BD00BF002070470D
:104F08002DE9F04116468A891D46D3050C46074609
:104F180006D50022B1F90E10022300F091F8A289FB
:104F2800B4F90E1022F48052A281384632462B463C
:104F3800BDE8F04100F014B810B50C46B1F90E10F8
:104F480000F07EF8A389421C0EBF23F4805343F47B
:104F580080532065A38110BDB1F90E1000F014B87C
:104F680070B5084C06460025084611461A462560C5
:104F7800FBF7C6FB431C00D070BD2368002BFBD099
:104F8800336070BD3819002038B5074C002305463A
:104F980008462360FBF786FB431C00D038BD236816
:104FA800002BFBD02B6038BD3819002000293DD0DC
:104FB80070B505460C4608B1836B7BB3B4F90C3069
:104FC8000BB9002070BD28462146FFF73FF9E36A78
:104FD800064633B12846E16998470028B8BF4FF024
:104FE800FF36A3891B061CD4216B41B104F1400391
:104FF800994202D02846FFF753FB00232363616CD4
:1050080021B12846FFF74CFB00236364FFF7DEFA63
:105018000023A381FFF7DCFA304670BDFFF7D0FA12
:10502800CCE728462169FFF73BFBDDE70020704706
:10503800024B01461868FFF7B9BF00BF680500209A
:1050480070B5084C06460025084611461A462560E4
:10505800FBF72EFB431C00D070BD2368002BFBD050
:10506800336070BD3819002070B5084C064600251D
:10507800084611461A462560FBF720FB431C00D062
:1050880070BD2368002BFBD0336070BD3819002039
:1050980038B50C460968054609B1FFF7F9FF2846F7
:1050A8002146BDE83840FFF7FBBA00BF204B1B681C
:1050B80098423CD0C36C70B505468BB1002699590F
:1050C80039B10C682846FFF7EBFA2146002CF8D1D5
:1050D800EB6C0436802EF2D119462846FFF7E0FA29
:1050E800296C11B12846FFF7DBFAD5F8481151B100
:1050F80005F5A676B14206D00C682846FFF7D0FA27
:10510800A6422146F8D1696D11B12846FFF7C8FAC1
:10511800AB6B03B970BDEB6B28469847D5F8E01226
:105128000029F7D02846BDE87040FFF7B1BF7047A7
:105138006805002053544D6963726F656C6563742C
:10514800726F6E696373000053544D333220566991
:10515800727475616C20436F6D506F727420696E44
:10516800204853206D6F64650000000053544D3390
:1051780032205669727475616C20436F6D506F727E
:105188007420696E204653204D6F6465000000004E
:1051980030303030303030303035304200000000B0
:1051A800303030303030303030353043000000009F
:1051B80056435020436F6E6669670000564350207F
:1051C800496E746572666163650000004300000003
:0451D8004001002072
:1051DC00000000000000000001020304060708099B
:1051EC00007A030A190700081D07000821070008A8
:1051FC002D070008310700082507000829070008BB
:10520C0000C201000000080035070008390700083B
:10521C00C10700083D0700087507000812010002CD
:10522C00000000408304405700020102030100000B
:10523C00040309040A0600020000004001000000FB
:10524C0045090008510900085D09000879090008A2
:10525C00A5090008D1090008ED09000800000000AC
:10526C00010203040102030406070809A000002040
:10527C008D240008F1230008992300083923000825
:10528C0069230008252300080D2300084923000882
:10529C00592300080000000000000000FF0000007F
:1052AC0009024300020100C032090400000102029D
:1052BC000100052400100105240100010424020250
:1052CC000524060001070582030800FF09040100FC
:1052DC00020A0000000705010240000007058102D8
:1052EC0040000000092D0008DD2C0008F52B0008FB
:1052FC0000000000E52A0008752D0008B92B0008F5
:10530C00292B000800000000000000001D2B0008E5
:10531C00000000002C04002094040020FC04002059
:10532C000000000000000000000000000000000071
:10533C000000000000000000000000000000000061
:10534C0000000000D4510008000000000000000024
:10535C000000000000000000000000000000000041
:10536C000000000000000000000000000000000031
:10537C000000000000000000000000000000000021
:10538C000000000000000000000000000000000011
:10539C000000000000000000000000000000000001
:1053AC0000000000000000000000000000000000F1
:1053BC0000000000000000000100000000000000E0
:1053CC000E33CDAB34126DE6ECDE05000B000000A5
:1053DC0000000000000000000000000000000000C1
:1053EC0000000000000000000000000000000000B1
:1053FC0000000000000000000000000000000000A1
:10540C000000000000000000000000000000000090
:10573C0000000000000000004001002000000000FC
:10574C00000000006C0500206C0500207405002092
:10575C00740500207C0500207C05002084050020B9
:10576C00840500208C0500208C0500209405002069
:10577C00940500209C0500209C050020A405002019
:10578C00A4050020AC050020AC050020B4050020C9
:10579C00B4050020BC050020BC050020C405002079
:1057AC00C4050020CC050020CC050020D405002029
:1057BC00D4050020DC050020DC050020E4050020D9
:1057CC00E4050020EC050020EC050020F405002089
:1057DC00F4050020FC050020FC0500200406002038
:1057EC00040600200C0600200C06002014060020E5
:1057FC00140600201C0600201C0600202406002095
:10580C00240600202C0600202C0600203406002044
:10581C00340600203C0600203C06002044060020F4
:10582C00440600204C0600204C06002054060020A4
:10583C00540600205C0600205C0600206406002054
:10584C00640600206C0600206C0600207406002004
:10585C00740600207C0600207C06002084060020B4
:10586C00840600208C0600208C0600209406002064
:10587C00940600209C0600209C060020A406002014
:10588C00A4060020AC060020AC060020B4060020C4
:10589C00B4060020BC060020BC060020C406002074
:1058AC00C4060020CC060020CC060020D406002024
:1058BC00D4060020DC060020DC060020E4060020D4
:1058CC00E4060020EC060020EC060020F406002084
:1058DC00F4060020FC060020FC0600200407002033
:1058EC00040700200C0700200C07002014070020E0
:1058FC00140700201C0700201C0700202407002090
:10590C00240700202C0700202C070020340700203F
:10591C00340700203C0700203C07002044070020EF
:10592C00440700204C0700204C070020540700209F
:10593C00540700205C0700205C070020640700204F
:10594C00640700206C0700206C07002074070020FF
:10595C00740700207C0700207C07002084070020AF
:10596C00840700208C0700208C070020940700205F
:10597C00940700209C0700209C070020A40700200F
:10598C00A4070020AC070020AC070020B4070020BF
:10599C00B4070020BC070020BC070020C40700206F
:1059AC00C4070020CC070020CC070020D40700201F
:1059BC00D4070020DC070020DC070020E4070020CF
:1059CC00E4070020EC070020EC070020F40700207F
:1059DC00F4070020FC070020FC070020040800202E
:1059EC00040800200C0800200C08002014080020DB
:1059FC00140800201C0800201C080020240800208B
:105A0C00240800202C0800202C080020340800203A
:105A1C00340800203C0800203C08002044080020EA
:105A2C00440800204C0800204C080020540800209A
:105A3C00540800205C0800205C080020640800204A
:105A4C00640800206C0800206C08002074080020FA
:105A5C00740800207C0800207C08002084080020AA
:105A6C00840800208C0800208C080020940800205A
:105A7C00940800209C0800209C080020A40800200A
:105A8C00A4080020AC080020AC080020B4080020BA
:105A9C00B4080020BC080020BC080020C40800206A
:105AAC00C4080020CC080020CC080020D40800201A
:105ABC00D4080020DC080020DC080020E4080020CA
:105ACC00E4080020EC080020EC080020F40800207A
:105ADC00F4080020FC080020FC0800200409002029
:105AEC00040900200C0900200C09002014090020D6
:105AFC00140900201C0900201C0900202409002086
:105B0C00240900202C0900202C0900203409002035
:105B1C00340900203C0900203C09002044090020E5
:105B2C00440900204C0900204C0900205409002095
:105B3C00540900205C0900205C0900206409002045
:0C5B4C006409002000000200FFFFFFFFC2
:04000005080040B1FE
:00000001FF
