:020000040800F2
:1000000000000220516B0008290400082D0400089C
:10001000310400083504000839040008000000001D
:100020000000000000000000000000003D04000887
:10003000410400080000000045040008790400089D
:10004000996B0008996B0008996B0008996B000880
:10005000996B0008996B0008996B0008996B000870
:10006000996B0008996B0008996B0008996B000860
:10007000996B0008996B0008996B0008996B000850
:10008000996B0008996B0008996B0008996B000840
:10009000996B0008996B0008996B0008996B000830
:1000A000996B0008996B0008996B0008996B000820
:1000B000996B0008996B0008996B0008996B000810
:1000C000996B0008996B0008996B0008996B000800
:1000D000996B000829160008996B0008996B0008B5
:1000E000996B0008996B000889040008996B000857
:1000F000996B0008996B0008996B0008996B0008D0
:10010000996B0008996B0008996B0008996B0008BF
:10011000996B0008996B0008996B0008996B0008AF
:10012000996B0008996B0008996B0008996B00089F
:10013000996B0008996B0008996B0008996B00088F
:10014000996B0008996B0008996B0008B9040008C6
:10015000996B0008996B0008996B0008996B00086F
:10016000996B0008996B0008996B0008996B00085F
:10017000996B0008996B0008996B0008996B00084F
:08018000996B0008996B00085F
:1001A0002DE9D8411F4E3368632B80460C46174615
:1001B00034DD00230868336005F07EFC02460B4600
:1001C000194806F023FD606805F076FC02460B46F0
:1001D000164806F01BFDD8F8000005F06DFC02463D
:1001E0000B46134806F012FDD8F8040005F064FC35
:1001F00002460B460F4806F009FD386805F05CFC26
:1002000002460B460C4806F001FD786805F054FCE8
:1002100002460B46094806F0F9FC336801333360A7
:10022000BDE8D881140A002024C6000834C600089E
:1002300048C6000858C600086CC600087CC60008FE
:1002400038B5114C6368632B05461ADD002300683E
:10025000636005F031FC02460B460C4806F0D6FC04
:10026000686805F029FC02460B46094806F0CEFCFA
:10027000A86805F021FC02460B46064806F0C6FCBD
:1002800063680133636038BD140A00206CC600083F
:100290007CC6000890C6000870B5164CA368632B96
:1002A00006460D4622DD00230068A36005F004FC2D
:1002B00002460B46104806F0A9FC706805F0FCFBEE
:1002C00002460B460D4806F0A1FC286805F0F4FB39
:1002D00002460B460A4806F099FC686805F0ECFBFC
:1002E00002460B46074806F091FCA3680133A36061
:1002F00070BD00BF140A0020A0C60008B0C60008E8
:10030000C4C60008D4C60008DFED197A37EEE07ADB
:1003100070EEA77A37EE006A77EE806A37EE407AA1
:1003200077EEC07AF8B581ED036A0C46C0ED036A3A
:10033000C3ED037A82ED037A1D461646074601F0A7
:100340005FF9204601F05CF9304601F059F9284682
:1003500001F056F9384601F0FFF8204601F0FCF8AC
:10036000304601F0F9F82846BDE8F84001F0F4B84D
:10037000CDCC4C3E0023C3608360704738B500F09D
:1003800021F9094B094A1D6809480A4BA2FB0515CA
:10039000AD0C013DF0245D60002180F82340072270
:1003A00099601A6038BD00BF1000002083DE1B4337
:1003B00000ED00E010E000E008B5FFF7DFFF00F01F
:1003C0006BF901F0A5F801F06DF900F0D1FB00F038
:1003D00039FD0D480C2101F0D3F80C480D2101F036
:1003E000CFF80B480E2101F0CBF80A480F2101F09D
:1003F000C7F8094809490A4A0023C3608360CB60F3
:100400008B60D360936008BD3C0B0020280B00205C
:10041000CC0A0020F00A0020DC0A0020B80A0020E4
:10042000140B0020704700BF704700BFFEE700BFFD
:10043000FEE700BFFEE700BFFEE700BF704700BF5A
:10044000704700BF704700BF10B485B0064C0190E4
:10045000236803932168039A019B8A1A9A42F9D36D
:1004600005B05DF8044B7047000B0020014B186885
:10047000704700BF000B0020024B1A6801321A605F
:10048000704700BF000B002010B5094CA37A4BB198
:10049000084B1A6822F006021A6000F013F8204692
:1004A00004F078FD4FF48020BDE8104001F056BD07
:1004B0004C0B002010ED00E0014804F069BF00BFC4
:1004C0004C0B0020394A3A4BD2F88810394841F495
:1004D0007001C2F888101968002241F0010119600A
:1004E0009A60196821F0847121F480311960586094
:1004F000196882B021F480211960DA6000920192BB
:100500001A6842F480321A601A4603E0009BB3F581
:10051000A06F09D0136803F400330193009B0133EB
:100520000093019B002BF1D0214B1B6813F4003387
:1005300018BF01230193019B012B05D01B4B4FF0EA
:1005400000629A6002B07047194B1B4A186C1B4935
:1005500040F080501864106840F4804010609A6841
:100560009A609A6842F400429A609A6842F4A052F3
:100570009A6059601A6842F080721A6019460B68D6
:100580000B4A9B01FBD50E4B40F205611960936845
:1005900023F003039360936843F00203936093682E
:1005A00003F00C03082BFAD1C8E700BF00ED00E010
:1005B000003802401030002400700040085440070A
:1005C000003C0240154B9A6802F00C02042A23D02A
:1005D000082A09D0124A1149124B8968C1F3031144
:1005E000595CCA401A617047586859685B68420292
:1005F0004CBF0D4A0A4A01F03F01C3F38813B2FB16
:10060000F1F202FB03F2054B5B68C3F301430133D4
:100610005B00B2FBF3F2DEE7034ADCE7003802409E
:100620000024F4000000002000127A00002070472F
:100630000020704701207047002070474FF0FF30C6
:10064000704700BF10B50C4648B9204600F0FCF8D2
:100650000028FAD0207800F0A7F8012010BD002073
:1006600010BD00BF064B186838B101446A4691427C
:1006700094BF19604FF0FF30704702481860F4E7EC
:10068000240A0020D81A002010B508461146144646
:1006900000F0BEF8204610BD00B583B0094B0093B2
:1006A000094A0A480A4B012103F08EFB094B1B68DB
:1006B0000021986806F0BEFA074803B05DF804EB25
:1006C000FFF7C2BE14000020700000204C0B002079
:1006D0002C0100208005002020A10700704700BFEA
:1006E000704700BF704700BF704700BF704700BF32
:1006F000704700BF704700BF002070470020704760
:10070000F0B481B1094C0A4F014426460025236804
:1007100010F8012BFA540133B3F5006F08BF2B46D4
:1007200088423360F3D10020F0BC70476C0A00208F
:10073000D4120020F0B4B9B10D4C0E4A23681668EB
:100740000D4D0144002701E088420DD010F8012B27
:10075000EA540133802B0ABF0023236027609E42A6
:10076000F2D10220F0BC70470020F0BC704700BFFF
:10077000EC110020D81100205811002021280FD1A1
:10078000084B1A680A701A68120A4A705A888A70E6
:10079000DA78CA701A790A715A794A719B798B7121
:1007A0000020704730000020074A136810B4591C1D
:1007B000064CB1F5006FE0540ABF002311601360CE
:1007C0005DF8044B704700BF6C0A0020D412002073
:1007D0000378F0B4B3B10146002311F8012F0133BF
:1007E000002AFAD1084C094FC6182546236810F88C
:1007F000011BF9540133B3F5006F08BF1346B04233
:100800002B60F3D1F0BC70476C0A0020D41200209A
:10081000F0B499B10A4DDFF82CC000232F461E46D4
:100820002A68C45C0CF802400132B2F5006F03F193
:10083000010308BF324699423A60F1D1F0BC7047DB
:100840006C0A0020D4120020094B0A491A68096872
:1008500091420AD008498A5C02701A680132802AE3
:1008600008BF00221A60012070470020704700BFB7
:10087000D8110020EC11002058110020F0B41E4FB8
:100880001E4E3C683568AC4211D02B461C4900E036
:100890001D465A1CCB5C1BB10A2B01D00D2B09D174
:1008A000802A14BF134600239C42F1D134600020FB
:1008B000F0BC70473560002203E00A2B10D00D2BEE
:1008C0000ED08354346801321319802B08BF624262
:1008D0003C6808BF00239C42E9D0CB5C002BECD1E4
:1008E000002383543368054913447F2B00D9803B90
:1008F00010460B60F0BC7047EC110020D8110020AE
:1009000058110020704700BF12230B800048704729
:100910004C00002004230B8000487047600000203A
:1009200010B5044C04480A46214603F00BFD20464E
:1009300010BD00BF14120020E8C6000808B50A4622
:1009400028B10648064903F0FDFC054808BD0548E6
:10095000034903F0F7FC024808BD00BF20C70008A8
:1009600014120020FCC6000808B50A4628B1064843
:10097000064903F0E7FC054808BD0548034903F0B4
:10098000E1FC024808BD00BF54C700081412002053
:1009900044C7000810B5044C04480A46214603F039
:1009A000D1FC204610BD00BF1412002064C700080F
:1009B00010B5044C04480A46214603F0C3FC204607
:1009C00010BD00BF1412002070C70008704700BFA0
:1009D000704700BF70B50120284C82B0014601F07D
:1009E0004FF9032600232046694602224FF4D855CA
:1009F0008DF806308DF8073000958DF804208DF8BD
:100A0000056001F03DFB204608210A2201F0D6FBDB
:100A1000204609210A2201F0D1FB20460B210A229F
:100A200001F0CCFB20460A220C2101F0C7FB012576
:100A30004FF480636946204600938DF805608DF879
:100A400006508DF8075001F01BFB0A210A4620468C
:100A500001F0B4FB29464FF4804001F041F92946EA
:100A6000802001F019F929464FF0805001F068F913
:100A7000284601F073FA02B070BD00BF00000240CA
:100A800000B54FF4C06083B000F04AFF012343215A
:100A9000032201A88DF804108DF805308DF8073079
:100AA0008DF8062000F046FF03B05DF804FB00BFA0
:100AB000C0EB0010064BC200A3FB0213D21A03EBDB
:100AC00052029208002301339A42FCD2704700BFC1
:100AD00025499224074A084B02FB00F0A3FB0023A0
:100AE000C21A03EB52029208002301339A42FCD24D
:100AF000704700BFC0D401002549922410B50446B8
:100B000002F0B8FF2046034903F01CF80028F9D092
:100B100010BD00BF8400070010B50121044602F09B
:100B20001BFF2046044903F00DF80028F9D02046A9
:100B3000BDE8104002F0A0BF4000030010B5002146
:100B4000044602F009FF2046012102F0EDFE204696
:100B5000044902F0F7FF0028F9D02046BDE8104014
:100B600002F08ABF40000300012102F0DDBE00BF99
:100B700070B54FF4001086B01F4C204E012101F0DB
:100B8000A3F80220012101F07BF801250223204671
:100B90004FF4407269468DF804308DF805300092AC
:100BA0008DF806508DF8075001F06AFA20460821AA
:100BB000042201F003FB20460921042201F0FEFA81
:100BC0000F4B02934FF480420023304602A94BF6AC
:100BD000FF74ADF80C30ADF81030ADF81230ADF850
:100BE0001420ADF80E4002F001FE3046294602F016
:100BF0007FFE06B070BD00BF0004024000540040FC
:100C0000801A060070B504460E46154620464FF47D
:100C1000003102F0ABFF0028F8D12046012102F09C
:100C200075FE2046104902F08DFF0028F9D03146AC
:100C300020462A4602F086FE15B1012D07D070BD70
:100C400020460A4902F07EFF0028F9D070BD2046F8
:100C5000074902F077FF0028F1D12046044902F04D
:100C600071FF0028F3D0EAE70100030082000700CB
:100C70000200030070B50C4C002206460D462046CB
:100C8000D021FFF7BFFF20463146FFF737FF204650
:100C90002946FFF733FF2046FFF766FF0348BDE80C
:100CA0007040FFF7D1BB00BF00540040400D03006F
:100CB00070B5002282B0D02106462748FFF7A2FF78
:100CC0003C212548FFF71AFF2348FFF74DFF224834
:100CD000D0210122FFF796FF0DF1FF3401AD1E4830
:100CE000FFF71AFF04F8010FAC42F8D11A48FFF7DA
:100CF00025FF9DF804509DF802409DF803109DF8D3
:100D000000209DF80130DFED157A40EA052041EA28
:100D1000042143EA022305B209B21BB26D424942E3
:100D20005B4206EE905A07EE101A05EE903AF8EE86
:100D3000E66AB8EEE56AB8EEC77A66EEA76A27EE0D
:100D4000277A66EE277AC6ED026A86ED017AC6ED4D
:100D5000007A02B070BD00BF00540040FEFF7F3833
:100D600070B5002282B0D02106462548FFF74AFF21
:100D700043212348FFF7C2FE2148FFF7F5FE204834
:100D8000D0210122FFF73EFF0DF1FF3401AD1C48D9
:100D9000FFF7C2FE04F8010FAC42F8D11848FFF784
:100DA000CDFE9DF804509DF802409DF803109DF87B
:100DB00000209DF80130DFED137A40EA052005B2EE
:100DC00005EE905A41EA042143EA022309B21BB21C
:100DD00006EE101AF8EEE56A05EE903AB8EEC67A1D
:100DE000B8EEE56A66EEA76A27EE277A66EE277AFE
:100DF000C6ED026A86ED017AC6ED007A02B070BDDA
:100E000000540040FDB38B3970B50C4C00220646EF
:100E10000D4620461821FFF7F5FE20463146FFF724
:100E20006DFE20462946FFF769FE2046FFF79CFE2F
:100E30000348BDE87040FFF707BB00BF0054004007
:100E4000400D030008B51248FFF7FEFA6B2003219E
:100E5000FFF710FF6A200021FFF70CFF3720022167
:100E6000FFF708FF19200221FFF704FF1A200421D1
:100E7000FFF700FF1B200821FFF7FCFE1C200021CC
:100E8000FFF7F8FE0A200121BDE80840FFF7BCBFCC
:100E900020A10700F8B52C4D2C4C2846FFF7D4FABA
:100EA0000A200121FFF7B0FF002220461821FFF79A
:100EB000A9FE20461021FFF721FE2046FFF754FE31
:100EC000012218212046FFF79DFE2046FFF724FE51
:100ED00007462046FFF720FE06462046FFF72EFE77
:100EE000803805EE100A803F07EE907A803EB8EE1B
:100EF000C56A05EE106A9FED167A164BF8EEE76AA2
:100F0000F7EE007AF8EEC55AB0EE675AA6EE075A29
:100F10000A200021B0EE456AB0EE675AA6EE875A65
:100F2000E5EE877A83ED026A83ED005AC3ED017A1C
:100F3000FFF76AFF0A200621FFF766FF2846BDE893
:100F4000F840FFF781BA00BF20A10700005400401D
:100F50000000803BF011002070B5002282B0182103
:100F600006463948FFF74EFE02213748FFF7C6FD17
:100F70003548FFF7F9FD344818210122FFF742FEFA
:100F80003148FFF7DBFDC30701D402B070BD00227A
:100F90002D481821FFF736FE03212B48FFF7AEFD41
:100FA0002948FFF7E1FD284818210122FFF72AFE12
:100FB0000DF1FF340DF105052348FFF7ADFD04F8F1
:100FC000010FAC42F8D12048FFF7B8FD9DF8025060
:100FD0009DF803409DF804009DF805109DF8002041
:100FE0009DF801309FED197ADFED197A44EA052466
:100FF00041EA002143EA022306EE903A05EE904AC8
:1010000006EE101AB8EEE65AF8EEE55AB8EEC66AE1
:10101000F2EE046A65EEA65A26EE266A65EE266AA8
:1010200065EE875A26EE076A26EE877AC5EEA75A3E
:1010300086EE276AC7EE277AC6ED015A86ED026A68
:10104000C6ED007A02B070BD0054004000809945A2
:1010500000F0FF46194BDFED1A4AD3ED005A93ED2D
:10106000015A184A184992ED004AD1ED013AD3EDE0
:10107000026AD2ED017A75EEA44AB7EE006A85EEF7
:10108000A47AC5EE244A36EE476A23EEC77A25EEE7
:10109000065A73EE843AA4EE067AE4EEC56AE3EEED
:1010A000E47A25EE866A83ED015A83ED006AC3ED8A
:1010B000026A82ED007AC2ED017A70478C0000204E
:1010C000C3F57840280A0020FC110020174BDFED03
:1010D000182AD3ED015AD3ED007A164A1649D3EDFA
:1010E000026ADFED163A92ED014A91ED003A9FED6A
:1010F000146A92ED007ADFED134A9FED135AE5EE84
:10110000E27A33EE444AE6EEA37AE6EEC65AA4EE5D
:10111000067A77EEA47A76EE856AC3ED007AC3ED9F
:10112000015AC3ED026A82ED007A70478C000020FC
:101130000E74DA3B280A002008120020DC693A37D6
:101140000E745A3B1AF47B3500000000194BDFED9A
:101150001A4AD3ED035A93ED045A184A184992EDEE
:10116000024AD1ED003AD3ED056AD2ED037A75EE6D
:10117000A44AB7EE006A85EEA47AC5EE244A36EE9C
:10118000476A27EE237A25EE065A73EEC43AA4EE98
:10119000067AE4EEC56AE3EEA47A25EE866A83ED6C
:1011A000045A83ED036AC3ED056A82ED027AC2ED4B
:1011B000037A70478C000020C3F57840280A00208D
:1011C000FC110020174BDFED182AD3ED045AD3EDA4
:1011D000037A164A1649D3ED056ADFED163A92ED09
:1011E000034A91ED013A9FED146A92ED027ADFED28
:1011F000134A9FED135AE5EEE27A33EE444AE6EEE7
:10120000A37AE6EEC65AA4EE067A77EEA47A76EED4
:10121000856AC3ED037AC3ED045AC3ED056A82ED16
:10122000027A70478C0000200E74DA3B280A0020F6
:1012300008120020DC693A370E745A3B1AF47B35E9
:101240000000000070B5204D06682E6046686E6094
:1012500080681E4CA86008682060486860608968E3
:10126000A16015461E46FFF7F5FEFFF72FFFFFF7BB
:101270006DFFFFF7A7FF164994ED005A94ED016A40
:10128000D1ED016A91ED037ADFED127AD1ED005ACA
:10129000D1ED024A75EE666A36EE477A65EEA75AD8
:1012A00026EEA75A27EE276A64EEA77AC1ED046AF4
:1012B00081ED057A85ED015AC5ED005A86ED016A8A
:1012C000C6ED007A70BD00BFFC110020081200209E
:1012D000280A0020E02E6542094B0A4A93ED017A64
:1012E00092ED006AD2ED016AD3ED037A36EE477AC9
:1012F00076EEE77A83ED047AC3ED057A704700BF96
:10130000280A002008120020D0ED026AD0ED007AF1
:1013100090ED037ADFED1B5A9FED1B6A76EEE77ABC
:10132000F7EE006AA7EEA57A67EE867AB4EEE67A63
:10133000F1EE10FACABFB0EE667A80ED037AC0ED26
:10134000036A77EE877AD0ED016A9FED107AE6EEB8
:10135000C77AB7EE007AF4EEC77AF1EE10FA04DD40
:10136000F0EE477AC0ED047A7047BFEE007AF4EEF3
:10137000477AF1EE10FA48BFF0EE477AC0ED047AF2
:10138000704700BF00000000A69BC43BFAEDEB3A9B
:101390000C38032805D8DFE800F00B080502064BDF
:1013A00019647047044BD9637047034B99637047C6
:1013B000014B5963704700BF00080040F0B5174D5E
:1013C00083B00820012100F05BFC022401232846A1
:1013D000002269464FF4704703268DF807308DF8D8
:1013E000062000978DF804408DF8056000F048FE57
:1013F000284622460C2100F0E1FE284622460D2117
:1014000000F0DCFE284622460E2100F0D7FE2846DA
:1014100022460F2100F0D2FE03B0F0BD000C0240C6
:1014200030B5042085B0012100F04EFC184B194C5A
:101430001868A4FB0034240AB4F5803F25D94FF482
:10144000C8630122B0FBF3F1B1F5803F02F1010264
:1014500003F54873F6D8551EADB292B2B4FBF2F460
:10146000002301A9013C0C48ADF80630ADF80C3062
:101470008DF80E300294ADF8045001F065F906487D
:10148000012101F011FA05B030BD01220025E5E788
:10149000100000201F85EB510008004030B51B4CA8
:1014A00087B0002360220125204601A90393ADF8EF
:1014B0001030ADF80420ADF8065001F003FA2046D4
:1014C000082101F061FB204601A901F03BFA20460A
:1014D000082101F061FB204601A901F07BFA2046BA
:1014E000082101F063FB204601A901F0B9FA20466A
:1014F000082101F063FB2046294601F0AFF92046A0
:10150000294601F0D1F907B030BD00BF0008004006
:1015100008B5FFF753FFFFF783FFBDE80840FFF76B
:10152000BDBF00BF0A4A0B4B116899420DD94FF459
:10153000C8630120B1FBF3F2B2F5803F00F1010076
:1015400003F54873F6D880B270470120704700BF9A
:10155000100000201F0320038388C28890ED037AC7
:10156000807AD21A07EE902AF8EEE77A67EE877A49
:10157000FCEEE77A17EE901A13FA81F1FFF708BF35
:10158000F8B51B4E1B4D04460F46FFF7CBFF3368E3
:10159000A772A5FB031347009B0CB3FBF7F303EB08
:1015A000830303EB830303EB03135B000022A3809D
:1015B000E2601148FEF748FF2046FFF7CDFF0F48D5
:1015C000FEF742FF3068A5FB0030800CB0FBF7F05F
:1015D0000301C2181B1AC3EB431300EB820000EB9C
:1015E00000109B000022A080E3802281F8BD00BF94
:1015F0001000002083DE1B4320A10700A025260049
:1016000090ED037AF7EE007AB4EEE77AF1EE10FA95
:1016100002DDC0ED037A7047B5EEC07A0023F1EE2B
:1016200010FA48BFC360704710B5094C40F225510D
:10163000204602F077F850B1A188064BC9B2204687
:10164000197003885B06FCD5014801F09DFF10BDB1
:1016500000100140480A002082B0064A8DF80700B9
:1016600013885B06FCD59DF80710024802B001F014
:101670008BBF00BF0010014070B50378054673B101
:10168000074C23885B06FCD52E46054816F8011B3F
:1016900001F07AFF2B786B780BB13546F1E770BD1E
:1016A00000100140F0B52A4F2A4E89B002200121D6
:1016B00000F0E6FA00244FF0C00C4FF0020E0323B6
:1016C0000125384606210722CDF808C08DF80CE028
:1016D0008DF80D308DF80E408DF80F5000F06EFD36
:1016E00007210A46384600F069FD384602A900F095
:1016F000C7FC2946102000F0F3FA2946304601F0D5
:101700000FFF0C2330464FF4165204A9ADF81A30DF
:101710000492ADF81C40ADF81840ADF81640ADF895
:10172000144001F077FE30462A4640F2255101F080
:10173000D1FF252301A88DF807508DF805408DF8BD
:1017400006408DF8043000F0F5F809B0F0BD00BF98
:10175000000402400010014010B50821044618485A
:1017600000F01EFD44F080041648022100F0E6FE61
:101770000028F9D02146134800F0A6FE11480121A7
:1017800000F0DCFE0028F9D00E4800F099FE0D486C
:10179000022100F0D3FE0028F9D00A48002100F011
:1017A00093FE0848012100F0C9FE0028F9D0082165
:1017B000034800F0F3FC034800F082FEC0B210BD05
:1017C000001002400030014038B505460C4618486C
:1017D000082100F0E5FC1748022100F0AFFE0028C8
:1017E000F9D02946134800F06FFE1248012100F09D
:1017F000A5FE0028F9D00F4800F062FE0D48022136
:1018000000F09CFE0028F9D021460A4800F05CFE5A
:101810000848012100F092FE0028F9D0054800F0A8
:101820004FFE03480821BDE8384000F0B7BC00BFB8
:1018300000100240003001402DE9F047DFF8C4807D
:101840002F4EDFF8C4A088B04FF48050012100F083
:1018500047FA00244FF48272012502274FF40073E7
:10186000404603A9ADF80E20ADF81630ADF80C4097
:10187000ADF81040ADF81840ADF81A40ADF8127050
:10188000ADF8145000F0E4FC2946112000F0F8F9FE
:10189000E023304601A901934FF008098DF8087044
:1018A0008DF809708DF80A408DF80B4000F0E8FBC8
:1018B00001A950468DF809708DF808508DF80B502D
:1018C0008DF80A40CDF8049000F0DAFB052130468F
:1018D0000A4600F073FC30460621052200F06EFC3B
:1018E00005223046072100F069FC5046494600F0C9
:1018F00055FC4046294600F05BFD08B0BDE8F08786
:10190000000002400030014000100240C4C900083D
:1019100000000020140A0020140A0020D81A002019
:1019200040F0BF60024B40F40030D860704700BF09
:1019300000ED00E0C378F0B463B90378194A59099F
:10194000203103F01F03012000FA03F342F8213095
:10195000F0BC7047144B4778DA68857803781149F2
:10196000D243C2F30222C2F104040F26E4B207FA02
:1019700004F446FA02F2E4B22A40224303F160433F
:1019800003F561431201D2B283F8002303780120EA
:1019900003F01F025B0900FA02F241F82320F0BCB9
:1019A000704700BF00E100E000ED00E021F0604181
:1019B00021F07F01014B08439860704700ED00E083
:1019C000044B1A6919B922EA0000186170471043E4
:1019D0001861704700ED00E0044B1A6804280CBF42
:1019E00042F0040222F004021A60704710E000E0A6
:1019F0000A4B0B481A68002142F001021A609960F4
:101A00001A6822F0847222F480321A6058601A68D0
:101A100022F480221A60D960704700BF003802406B
:101A200010300024024B00221A701870704700BF5B
:101A30000238024082B000230B4A019313689B03D3
:101A40000CD4019B01330193019BB3F5A06FF5D139
:101A5000054B1868C0F3404002B07047019B01334A
:101A60000193019BF4E700BF00380240034B1A6862
:101A700022F0F80242EAC0001860704700380240C5
:101A8000014B1860704700BF00004742064B002220
:101A900001281A701A7005D0042802D105221A7084
:101AA000704770471870704770380240014B1860DB
:101AB000704700BF800E474230B4029C064D40EA9A
:101AC00004605B080143013B41EA821242EA03439E
:101AD0006B6030BC704700BF00380240014B18609B
:101AE000704700BF600047420907034B41EA80107E
:101AF000C3F88400704700BF00380240014B1860F3
:101B0000704700BF68004742014B1860704700BF34
:101B10004C004742034B9A6822F0EC6211430843A1
:101B20009860704700380240034B9A6822F0784270
:101B3000114308439860704700380240034B9A688D
:101B400022F0030210439860704700BF0038024043
:101B5000024B986800F00C00704700BF003802404C
:101B6000034B9A6822F0F00210439860704700BF60
:101B700000380240034B9A6822F4E0521043986008
:101B8000704700BF00380240034B9A6822F460425D
:101B900042EAC00098607047003802401F4A9368CC
:101BA00003F00C03042B10B41BD0082B1CD01C4BCF
:101BB00003601A491B4A8C68C4F30314145DE340A4
:101BC00043608C68C4F38224145D23FA04F48460B7
:101BD00089685DF8044BC1F34231525CD340C36065
:101BE0007047114B0360E4E7546851685268630220
:101BF0004CBF0D4B0A4B01F03F01C2F38812B3FBFF
:101C0000F1F303FB02F3054A5268C2F301420132C9
:101C10005200B3FBF2F30360CBE700BF0038024091
:101C20000024F400A400002000127A0000F44073A5
:101C3000B3F5407F09D1084A916820F0704321F440
:101C4000F81123F440730B439360034B1A6FC0F3F6
:101C50000B0010431867704700380240014B1860B2
:101C6000704700BF3C0E4742014B1860704700BFF1
:101C7000400E4742014B1860704700BF5C0147426D
:101C8000044B1A6B19B922EA00001863704710431D
:101C90001863704700380240044B5A6B19B922EAA6
:101CA0000000586370471043586370470038024083
:101CB000044B9A6B19B922EA0000986370471043ED
:101CC0009863704700380240044B1A6C19B922EA35
:101CD00000001864704710431864704700380240D1
:101CE000044B5A6C19B922EA00005864704710433B
:101CF0005864704700380240044B1A6919B922EA47
:101D000000001861704710431861704700380240A6
:101D1000044B5A6919B922EA000058617047104310
:101D20005861704700380240044B9A6919B922EA99
:101D30000000986170471043986170470038024076
:101D4000044B1A6A19B922EA00001862704710435E
:101D50001862704700380240044B5A6A19B922EAE7
:101D600000005862704710435862704700380240C4
:101D7000044B1A6D19B922EA000018657047104328
:101D80001865704700380240044B5A6D19B922EAB1
:101D9000000058657047104358657047003802408E
:101DA000044B9A6D19B922EA0000986570471043F8
:101DB0009865704700380240044B1A6E19B922EA40
:101DC00000001866704710431866704700380240DC
:101DD000044B5A6E19B922EA000058667047104346
:101DE0005866704700380240044B1A7819B922EA45
:101DF0000000187070471043187070470D3802408B
:101E00004309012B0BD0022B094B0CBF1B6F5B6FDF
:101E100000F01F0023FA00F000F001007047044BAF
:101E20001B6800F01F0023FA00F000F0010070476B
:101E300000380240024B5A6F42F080725A67704776
:101E400000380240034BDB6818420CBF0020012021
:101E5000704700BF00380240014B1870704700BF48
:101E60000E380240044B054900221A605A609A60FD
:101E7000DA605961704700BF003C0140FFFF7F00FE
:101E8000837970B42BB31D4B01681E6802794579C4
:101E9000CC4326401E605E6802F1804202F59E320D
:101EA00034405C6014682143116002689868D14333
:101EB00008409860D868102D01EA0001D96014D05C
:101EC00005F1804303F59E3370BC19680A431A601C
:101ED00070470379016803F1804303F59E3370BCBA
:101EE0001A6822EA01021A607047996811439960E2
:101EF000D9680A43DA6070BC704700BF003C0140FB
:101F000000230C224271036003718371704700BF8C
:101F1000024B1A6910431861704700BF003C014032
:101F2000034B5B6918420CBF00200120704700BFC3
:101F3000003C0140014B5861704700BF003C01402C
:101F4000054B1A685B69034004D010420CBF0020A7
:101F50000120704718467047003C0140014B586112
:101F6000704700BF003C014008B53C4B984224D06C
:101F70003B4B98422BD03B4B984232D03A4B984245
:101F800039D03A4B984240D0394B984247D0394BE0
:101F900098424ED0384B984255D0384B984200D09A
:101FA00008BD4FF480700121FFF7A6FE4FF480704A
:101FB0000021BDE80840FFF79FBE01200146FFF762
:101FC0009BFE01200021BDE80840FFF795BE0220DE
:101FD0000121FFF791FE02200021BDE80840FFF734
:101FE0008BBE04200121FFF787FE04200021BDE8FD
:101FF0000840FFF781BE08200121FFF77DFE082081
:102000000021BDE80840FFF777BE10200121FFF74F
:1020100073FE10200021BDE80840FFF76DBE2020B0
:102020000121FFF769FE20200021BDE80840FFF7ED
:1020300063BE40200121FFF75FFE40200021BDE884
:102040000840FFF759BE80200121FFF755FE802090
:102050000021BDE80840FFF74FBE00BF000002406E
:102060000004024000080240000C02400010024040
:102070000014024000180240001C024000200240F0
:1020800000222DE9F00713460E6801274FF00308E0
:1020900004E00133102B02F102022CD007FA03F402
:1020A00004EA0605A542F4D1D0F8009091F804C0E6
:1020B00008FA02F4E44304EA0909C0F80090D0F8F1
:1020C00000900CFA02FA0CF1FF3C4AEA0909BCF153
:1020D000010FC0F8009011D9C56891F807C02C40D5
:1020E000C460C5680CFA02F401332C43102BC460A1
:1020F00002F10202D2D1BDE8F0077047D0F808A083
:1021000091F8059091F806C004EA0A0AC0F808A000
:10211000D0F808A009FA02F949EA0A09C0F80890BB
:10212000D0F8049029EA0505456045680CFA03FCDF
:102130001FFA8CFC4CEA05054560CDE700234FF6FD
:10214000FF720260037143718371C371704700BFF6
:1021500082B04FF480330193019B0B430193019BA9
:10216000C361C161019BC361C3690193C3690193E9
:1021700002B07047036919420CBF0020012070476C
:10218000006980B2704700BF436919420CBF00204C
:1021900001207047406980B2704700BF01837047DB
:1021A000418370470AB9418370470183704700BF7C
:1021B000416170474369594041617047CB0800EB6A
:1021C000830001F0070110B48900046A0F238B40DB
:1021D00024EA03030362036A5DF8044B8A40134355
:1021E0000362704708B5174B984212D0164B9842BD
:1021F0001BD0164B984200D008BD4FF4004001217F
:10220000FFF79EFD4FF400400021BDE80840FFF7B6
:1022100097BD4FF480500121FFF79EFD4FF4805091
:102220000021BDE80840FFF797BD4FF48040012131
:10223000FFF786FD4FF480400021BDE80840FFF71E
:102240007FBD00BF0030014000380040003C00402E
:102250002DE9F007B1F802A0B1F80090B1F80480C0
:102260000F894E898D89CC89B1F806C00A8A038806
:102270004AEA090141EA080141EA0C0139433143C4
:102280002943214303F441530B439BB20380838BC7
:1022900023F400631B041B0C8383BDE8F007028258
:1022A000704700BF838B8A6823F47B6323F00F039E
:1022B0001B042DE9F0031B0C022483830484B0F873
:1022C0001CC0A2421FFA8CFC52D02B4B8C889D68FC
:1022D000002C0CBF4FF001084FF002082D0242D431
:1022E000254BDFF89C90D3F88450D3F884605F6866
:1022F000CB8807F03F07C5F38815B9FBF7F7B3F5AF
:10230000007FC6F3027605FB07F5B5FBF6F516BFB1
:102310004FEA48182D0AB5FBF8F505EB85056D0069
:10232000B5FBF2F20532154D92B2A5FB0262D2085E
:102330005508AE1E02F00102FD2E94BF45EA0222AE
:1023400002220F884E888D894CEA070141F4006112
:1023500031432943134389B20C439BB203848483E2
:10236000BDE8F00370479D6825F400059D60B7E760
:102370008C88CB88E5E700BF00380240CDCCCCCCC0
:1023800000127A00002307220282038043808380A8
:10239000C380038143818381C3817047002302226C
:1023A0008260038043808380C3808381704700BF45
:1023B000038829B923F040031B041B0C03807047DA
:1023C0009BB243F040030380704700BF838B29B961
:1023D00023F480631B041B0C838370479BB243F47C
:1023E00080638383704700BF038823F400631B046A
:1023F0001B0C038003889BB219430180704700BF08
:10240000B1F5804F038805D023F480431B041B0CD7
:10241000038070479BB243F480430380704700BF42
:102420004FF6FF639942038804D09BB243F4807354
:102430000380704723F480731B041B0C03807047D8
:10244000838829B923F004031B041B0C8380704785
:102450009BB243F004038380704700BF838829B98F
:1024600023F010031B041B0C838070479BB243F0C6
:1024700010038380704700BF838B23F47B6323F0BA
:102480000F031B0402221B0C83830284838B0A88A4
:1024900030B44D888C8889899BB22B4343F4006308
:1024A00022F40072234392B20B43002A9BB214BF62
:1024B00000224FF480721343838330BC704700BF07
:1024C000808980B2704700BF81817047038829B935
:1024D00023F400531B041B0C038070479BB243F48E
:1024E00000530380704700BF03889BB243F48053BE
:1024F00003807047012914BF008B808A80B2704727
:10250000008A80B2704700BF83889BB21AB923EA61
:1025100001018180704719438180704701230909B7
:1025200003FA01F1838889B29BB21AB923EA010147
:102530008180704719438180704700BF0389194229
:102540000CBF002001207047C94389B20181704748
:1025500010B48488008901F00F03012280B202FACE
:1025600003F31840A4B205D009098A4014420CBFF5
:10257000002001205DF8044B704700BF01F00F01FF
:10258000012303FA01F1C94389B20181704700BFF9
:1025900008B5604B984235D0B0F1804F3CD05E4BCF
:1025A000984243D05D4B98424AD05D4B984251D0FF
:1025B0005C4B984258D05C4B98425FD05B4B984242
:1025C00066D05B4B98426DD05A4B984276D05A4BAE
:1025D00098427FD0594B984200F08880584B9842DF
:1025E00000F08E80574B984200D008BD4FF48070A9
:1025F0000121FFF7A5FB4FF480700021BDE80840E2
:10260000FFF79EBB01200146FFF7A6FB012000213A
:10261000BDE80840FFF7A0BB01200146FFF790FB93
:1026200001200021BDE80840FFF78ABB02200121FC
:10263000FFF786FB02200021BDE80840FFF780BBC2
:1026400004200121FFF77CFB04200021BDE80840A5
:10265000FFF776BB08200121FFF772FB082000215D
:10266000BDE80840FFF76CBB10200121FFF768FBB5
:1026700010200021BDE80840FFF762BB20200121A7
:10268000FFF75EFB20200021BDE80840FFF758BBA4
:1026900002200121FFF760FB02200021BDE8084075
:1026A000FFF75ABB4FF480300121FFF755FB4FF481
:1026B00080300021BDE80840FFF74EBB4FF40030EA
:1026C0000121FFF749FB4FF400300021BDE808402D
:1026D000FFF742BB4FF480200121FFF73DFB4FF491
:1026E00080200021BDE80840FFF736BB40200121D3
:1026F000FFF726FB40200021BDE80840FFF720BB84
:1027000080200121FFF71CFB80200021BDE808404C
:10271000FFF716BB00000140000400400008004025
:10272000000C004000100040001400400004014074
:1027300000400140004401400048014000180040B2
:10274000001C004000200040234A0388904270B4DF
:102750009BB212D002F5806290420ED0B0F1804F51
:102760000BD0A2F58032904207D002F580629042F1
:1027700003D002F58062904203D14A8823F07003AF
:102780001343164A90421ED002F5806290421AD03E
:102790000E894D680C8823F4407302F56C429BB29D
:1027A000334390420380C562048506D00C4B9842A7
:1027B00003D00123838270BC70478B7A0386012388
:1027C000838270BC704703800B884A68C2620385AD
:1027D0000123838270BC704700000140001000405C
:1027E0000004014000234FF0FF3242600380038168
:1027F00043808372704700BF01858282704700BFAB
:10280000038823F070031B041B0C194301807047DD
:1028100041627047C1627047406A7047008D80B264
:10282000704700BF038829B923F002031B041B0C67
:10283000038070479BB243F002030380704700BFE0
:10284000038829B923F004031B041B0C0380704781
:102850009BB243F004030380704700BF038829B98B
:1028600023F080031B041B0C038070479BB243F0D2
:1028700080030380704700BF038823F008031B0414
:102880001B0C038003889BB219430180704700BF73
:10289000038823F440731B041B0C038003889BB242
:1028A00019430180704700BF038829B923F0010351
:1028B0001B041B0C038070479BB243F00103038091
:1028C000704700BFF0B4048CB1F802C08F890E8845
:1028D0001B4D24F001042404240C0484028C8488FD
:1028E000038B22F0020223F0730312044CEA070761
:1028F0001B04120CBFB21B0CA84247EA0202A4B28E
:1029000043EA06030AD005F58065A84206D0896827
:1029100084800383F0BC416302847047B1F80EC029
:102920004F8A0D8A8E8822F0080242EA0C023D434B
:1029300024F4407422F00402ADB232432C43E6E7A3
:1029400000000140F0B4048CB1F80CC04F880E8830
:102950001F4D24F010042404240C0484028C848869
:10296000038B22F02002120423F4E643120C1B0412
:1029700042EA0C121B0C42EA071243EA0623A84261
:1029800092B2A4B29BB20AD005F58065A84206D0E7
:10299000896884800383F0BC816302847047CD8999
:1029A000B1F810C08F884E8A22F0800292B242EABB
:1029B000051224F440644FF6BF75154044EA8C04B8
:1029C00045EA071244EA860492B2A4B2E0E700BFE7
:1029D00000000140F0B4048CB1F80CC04F880E88A0
:1029E0001E4D24F480742404240C0484028C8488F6
:1029F000838B22F400721204120C23F0730342EA58
:102A00000C221B0442EA07221B0CA84292B2A4B279
:102A100043EA06030AD005F58065A84206D0896816
:102A200084808383F0BCC16302847047CD89B1F890
:102A300010C08F884E8A22F4006292B242EA0522C8
:102A400024F440544FF6FF35154044EA0C1445EA8F
:102A5000072244EA061492B2A4B2E0E70000014063
:102A6000F0B4048CB1F80CC04F880E88164D24F4D5
:102A700080542404240C0484028C8488838B22F4E4
:102A80000052120423F4E643120C1B0442EA0C32F7
:102A90001B0C42EA073243EA0623A84292B2A4B2D0
:102AA0009BB20AD005F58065A84206D0896884806B
:102AB0008383F0BC0164028470470D8A24F480444F
:102AC00044EA8514A4B2F1E700000140002303802A
:102AD0004380838083608381C38103824382704704
:102AE000038C10B401249BB28C4023EA040421F02F
:102AF0000803048418307BB10439C1F34E0148F651
:102B0000FF730C5823400B5012020B585DF8044B16
:102B100092B21A430A50704749084FF68F734458CF
:102B20002340435043585DF8044B1A4342507047CA
:102B30004163704781637047C163704701647047A8
:102B4000038B23F070031B041B0C19430183704794
:102B5000038B23F4E0431B041B0C43EA01218BB2DB
:102B600003837047838B23F070031B041B0C1943F2
:102B700081837047838B23F4E0431B041B0C43EADF
:102B800001218BB283837047038B23F008031B045E
:102B90001B0C194301837047038B23F400631B0450
:102BA0001B0C43EA01218BB203837047838B23F014
:102BB00008031B041B0C194381837047838B23F488
:102BC00000631B041B0C43EA01218BB28383704713
:102BD000038B23F004031B041B0C19430183704770
:102BE000038B23F480631B041B0C43EA01218BB28B
:102BF00003837047838B23F004031B041B0C1943CE
:102C000081837047838B23F480631B041B0C43EA8E
:102C100001218BB283837047038B23F080031B0455
:102C20001B0C194301837047038BC3F30E0343EA64
:102C300001218BB203837047838B23F080031B0435
:102C40001B0C194381837047838BC3F30E0343EA44
:102C500001218BB283837047038C23F002031B0492
:102C60001B0C194301847047038C23F008031B04D9
:102C70001B0C194301847047038C23F020031B04B1
:102C80001B0C43EA01118BB203847047038C23F0C1
:102C900080031B041B0C43EA01118BB203847047B1
:102CA000038C23F400731B041B0C43EA01218BB239
:102CB00003847047038C23F400631B041B0C43EA5A
:102CC00001218BB203847047038C23F400531B044F
:102CD0001B0C43EA01318BB203847047038C10B4A0
:102CE00001248C409BB223EA04030384038C5DF827
:102CF000044B8A4013439BB203847047038C10B487
:102D000004248C409BB223EA04030384038C5DF803
:102D1000044B8A4013439BB2038470470B88F0B482
:102D2000002B32D0042B58D0082B038C00F083806A
:102D30004E888F880D89CC8823F480510904090CB2
:102D40000184828B038C22F4407223F40053120519
:102D50005B04120D5B0C42EA072243EA063342EAA7
:102D600005329BB243F4805392B282830384838BF7
:102D700023F440631B041B0C8383838B9BB243EAC5
:102D800004239BB28383F0BC7047028C8D880E892C
:102D90004C88C98822F001021204120C0284028BB2
:102DA000038C92B222F0F30223F00A0342EA0612E5
:102DB0001B0444F0010492B21B0C23432A430283F8
:102DC0000384038B23F00C031B041B0C0383038B72
:102DD0009BB20B430383F0BC7047028C4E888C88F7
:102DE0000F89C98822F010021204120C0284038B8E
:102DF000058C23F440731B051B0DADB243EA07326B
:102E000025F0A00545EA061392B242EA04229BB2DD
:102E100043F0100392B202830384038B23F44063D4
:102E20001B041B0C0383038B9BB243EA01239BB25D
:102E30000383F0BC704723F480731B041B0C4D8884
:102E40008C880E89CA880384818B038C89B29BB2DB
:102E500021F0F30123F4206341EA061143EA05233C
:102E600089B29BB243F48073214381830384838BB3
:102E700023F00C031B041B0C8383838B9BB2134333
:102E8000838380E700230122828003804380C38004
:102E900003817047F0B44D888C880B88B1F808C066
:102EA000028CC988002D14BF00260226012C14BFF5
:102EB00001270227002B4BD022F010021204120C23
:102EC0000284038B028C23F440731B051B0D92B20A
:102ED00043EA0C3322F0A0029BB242EA051543EA12
:102EE0000424ADB2A4B245F0100504830584038B1D
:102EF00023F440631B041B0C0383038B9BB243EA44
:102F000001239BB20383038C23F001031B041B0CDE
:102F10000384028B038C92B222F0F3029BB242EA4A
:102F20000C1C23F00A0343F001031FFA8CFC1E4320
:102F30004CEA070707830684038B23F00C031B046A
:102F40001B0C0383038B9BB219430183F0BC7047B6
:102F500022F001021204120C0284038B028C9BB239
:102F600023F0F30322F00A0243EA0C13120445F0A3
:102F700001059BB2120C1C432A4304830284028B7A
:102F800022F00C021204120C0283038B9BB20B433F
:102F90000383028C22F010021204120C0284038BB1
:102FA000028C23F440731B051B0D92B243EA0C33D1
:102FB00022F0A0029BB242F0100243EA072742EA45
:102FC000061607830684038B23F440631B041B0C43
:102FD0000383038B9BB243EA012189B20183F0BCD6
:102FE000704700BF406B7047806B7047C06B704785
:102FF000006C7047038B23F00C031B041B0C038332
:10300000038B9BB219430183704700BF038B23F4EA
:1030100040631B041B0C0383038B9BB243EA012117
:103020008BB20383704700BF838B23F00C031B0418
:103030001B0C8383838B9BB219438183704700BF32
:10304000838B23F440631B041B0C8383838B9BB211
:1030500043EA01218BB28383704700BFB1F802C0FD
:103060000B888A89F0B48F88CE880D894C894CEA08
:1030700003033B4333432B43234313439BB2A0F847
:103080004430F0BC704700BF00230380438083803E
:10309000C380038143818381704700BFB0F844300F
:1030A00021B9C3F30E03A0F8443070476FEA4343DD
:1030B0006FEA53439BB2A0F844307047838829B924
:1030C00023F004031B041B0C838070479BB243F066
:1030D00004038380704700BF838829B923F001036C
:1030E0001B041B0C838070479BB243F00103838059
:1030F000704700BF83899BB21AB923EA010181811D
:10310000704719438181704781827047038A194251
:103110000CBF002001207047C94389B2018270476B
:10312000038A828911EA030092B203D011420CBFD4
:1031300000200120704700BFC94389B20182704757
:103140000A43A0F84820704783899BB21AB923EA42
:10315000010181817047194381817047838829B9B2
:1031600023F008031B041B0C838070479BB243F0C1
:1031700008038380704700BF038923F007031B0403
:103180001B0C0381704700BF038923F070031B04ED
:103190001B0C1943018103899BB243F00703038190
:1031A000704700BF602930B4048C24D024F001049F
:1031B0002404240C0484058B048CADB225F0F305A3
:1031C000A4B245F0010524F00A0445EA031344F0D3
:1031D00001049BB2224303830284038923F070031A
:1031E0001B041B0C0B43038103899BB243F00703B1
:1031F000038130BC704724F010042404240C0484A0
:10320000048B058C24F440742405ADB2240D25F004
:10321000A00544F4807445F0100544EA033345EA00
:1032200002129BB292B203830284D6E710B40489DF
:1032300042EA0323E4B223439BB219430181038989
:103240005DF8044B23F077031B041B0C43F077035A
:103250000381704710B4048942EA0323E4B2234394
:103260009BB21943018103895DF8044B9BB243F47F
:1032700080430381704700BF038923F070031B0460
:103280001B0C194301817047838823F070031B04D2
:103290001B0C838083889BB219438180704700BFD9
:1032A000038923F007031B041B0C038103899BB2D2
:1032B00019430181704700BF038923F080031B0479
:1032C0001B0C038103899BB219430181704700BF26
:1032D00010B40489E4B221430A4342EA03239CB2B6
:1032E00004815DF8044B704770B40589048B068C2B
:1032F00024F4407424F00304B6B226F0220625F02C
:103300000705240432432D04240C2D0C44F480744E
:1033100042EA0313294344F001049EB2018104836D
:10332000068470BC704700BF838829B923F08003EE
:103330001B041B0C838070479BB243F08003838087
:10334000704700BFA0F85010704700BF08B52B4B66
:10335000984219D02A4B984220D02A4B984229D023
:10336000294B984232D0294B98423BD0284B984267
:1033700000D008BD20200121FEF7EEFC2020002116
:10338000BDE80840FEF7E8BC10200121FEF7E4FC90
:1033900010200021BDE80840FEF7DEBC4FF40030ED
:1033A0000121FEF7CDFC4FF400300021BDE80840BC
:1033B000FEF7C6BC4FF480200121FEF7C1FC4FF49C
:1033C00080200021BDE80840FEF7BABC4FF4002081
:1033D0000121FEF7B5FC4FF400200021BDE80840B4
:1033E000FEF7AEBC4FF480100121FEF7A9FC4FF4AC
:1033F00080100021BDE80840FEF7A2BC001001408B
:103400000044004000480040004C00400050004094
:1034100000140140F0B50D46018AEF882E89AB8873
:10342000AA8989B2044621F440513943688921822E
:10343000A189334389B2034321F4B05121F00C0137
:103440009BB20B43A381A38A9BB223F44073134323
:1034500085B0A3826846FEF7A1FB1D4B9C4229D094
:1034600003F580639C4225D0029BA2892968A0892C
:1034700012B2002A03EB8303B4BF4900890003EBB7
:103480008303B3FBF1F2134900B2A1FB02535B09C2
:103490006425002803FB15224FEA03130CDB1201FD
:1034A0003232A1FB0251C1F343110B439BB2238182
:1034B00005B0F0BD039BD8E7D2003232A1FB020178
:1034C000C1F342110B439BB2238105B0F0BD00BF95
:1034D000001001401F85EB5100234FF416510C22C0
:1034E000016042818380C38003818381704700BF74
:1034F00030B40A884D888C88038AC9882A432243BD
:103500000A439BB292B223F470631343038230BC2C
:10351000704700BF0023038043808380C3807047CF
:10352000838929B923F400531B041B0C8381704742
:103530009BB243F400538381704700BF038B03F4B5
:103540007F430383038B9BB219430183704700BF02
:10355000838919B9C3F30E03838170476FEA43432C
:103560006FEA53439BB28381704700BF838A29B9B6
:1035700023F400631B041B0C838270479BB243F44B
:1035800000638382704700BFC1F3080181807047E8
:103590008088C0F308007047038A23F00F031B04E0
:1035A0001B0C0382038A9BB219430182704700BF40
:1035B000838929B923F002031B041B0C8381704704
:1035C0009BB243F002038381704700BF838923F4D9
:1035D00000631B041B0C838183899BB21943818187
:1035E000704700BF038A23F020031B041B0C0382D7
:1035F000038A9BB219430182704700BF038A29B92D
:1036000023F480431B041B0C038270479BB243F4DA
:1036100080430382704700BF83899BB243F001035C
:1036200083817047838A29B923F008031B041B0C8C
:10363000838270479BB243F008038382704700BFC8
:10364000038BDBB20383038B9BB243EA012101832B
:10365000704700BF838A29B923F020031B041B0C89
:10366000838270479BB243F020038382704700BF80
:10367000838A29B923F010031B041B0C8382704733
:103680009BB243F010038382704700BF838A23F00C
:1036900004031B041B0C8382838A9BB2194381821F
:1036A000704700BF838A29B923F002031B041B0C57
:1036B000838270479BB243F002038382704700BF4E
:1036C000838A9BB21AB923EA0101818270471943A8
:1036D0008182704701F01F0310B4C1F3421101242D
:1036E000A14204FA03F310D002290CBF10301430A9
:1036F00004682AB924EA030303605DF8044B7047A9
:10370000234303605DF8044B70470C30F0E700BFC3
:10371000038819420CBF002001207047C94389B2B9
:103720000180704710B4C1F34213012401F01F025D
:10373000A34204FA02F217D0022B0CBF038A838A39
:103740009BB21340028892B253B1090A012303FAD3
:1037500001F111420CBF002001205DF8044B7047BD
:1037600018465DF8044B704783899BB21340E9E724
:10377000090A012303FA01F1C94389B201807047A4
:1037800008B5174B984212D0164B98421BD0164BD7
:10379000984200D008BD4FF400000121FEF7D0FA96
:1037A0004FF400000021BDE80840FEF7C9BA4FF40D
:1037B00000100121FEF7C4FA4FF400100021BDE80B
:1037C0000840FEF7BDBA4FF480000121FEF7B8FAB9
:1037D0004FF480000021BDE80840FEF7B1BA00BFF9
:1037E0000054004000580040005C0040F0B5044622
:1037F00085B068460D46A688FEF7D0F90299304894
:103800002A68DFF8C4C0A0FB013026F03F0636046A
:10381000800C360C87B23E43A680238823F0010338
:103820001B041B0C6245238023D85300B1FBF3F328
:103830009BB2032B07F1010798BF04232784A383BE
:1038400023886E89A8882989AA899BB243F001033D
:103850002380238823F4816323F002031B04304375
:103860001B0C03430A439BB292B22380228105B012
:10387000F0BDEE884BF6FF739E421AD002EB820237
:1038800002EB8202B1FBF2F39BB243F48043C3F339
:103890000B020AB943F001034FF49671094A01FB88
:1038A00000F082FB00108009013043F400432084C3
:1038B000C5E702EB4202B1FBF2F39BB2E7E700BFC0
:1038C00083DE1B43D34D6210A0860100002310B499
:1038D0004BF6FF7141F288344FF480420460C1809E
:1038E00082818380038143815DF8044B704700BF70
:1038F000038829B923F001031B041B0C03807047C4
:103900009BB243F001030380704700BF038829B9CD
:1039100023F480731B041B0C038070479BB243F499
:1039200080730380704700BF038829B923F40073B4
:103930001B041B0C038070479BB243F4007303808D
:10394000704700BF1AB901F0FE010182704741F0D3
:1039500001010182704700BF038829B923F4806305
:103960001B041B0C038070479BB243F480630380ED
:10397000704700BF83899BB201F0FE0123F0FE0374
:1039800019438181704700BF838929B923F001035E
:103990001B041B0C838170479BB243F0010383819E
:1039A000704700BF038829B923F040031B041B0C98
:1039B000038070479BB243F040030380704700BF11
:1039C000038819B9C3F30E03038070476FEA4343BA
:1039D0006FEA53439BB20380704700BF038829B14D
:1039E00023F080031B041B0C038070479BB243F041
:1039F00080030380704700BFB1F5804F838B05D0F3
:103A000023F480431B041B0C838370479BB243F455
:103A100080438383704700BFB1F5006F038805D0F2
:103A200023F400631B041B0C038070479BB243F418
:103A300000630380704700BFB1F5005F038805D0C5
:103A400023F400531B041B0C038070479BB243F408
:103A500000530380704700BF038829B923F0100387
:103A60001B041B0C038070479BB243F010030380C0
:103A7000704700BF01827047008AC0B2704700BF24
:103A8000038829B923F480531B041B0C038070475F
:103A90009BB243F480530380704700BFB1F5006FC1
:103AA000038805D023F400631B041B0C03807047BC
:103AB0009BB243F400630380704700BF038829B9B9
:103AC00023F020031B041B0C038070479BB243F0C0
:103AD00020030380704700BF008BC0F307207047AE
:103AE000838829B923F400631B041B0C838070476F
:103AF0009BB243F400638380704700BF838829B979
:103B000023F480531B041B0C838070479BB243F447
:103B100080538380704700BF82B0002301930190DF
:103B2000019B19440191019B188880B202B0704733
:103B300083889BB21AB923EA010181807047194337
:103B400081807047828A038B90B240EA034021F063
:103B50007F4318400B1A584258417047828A038BA2
:103B600090B240EA034020F07F40704782B00023CB
:103B70000A0F0093019301900092009B21F07F4176
:103B800053B1019B14330193019B1B6819420CBF75
:103B90000020012002B07047019B1833090C0193EB
:103BA000F2E700BFC94389B2818270478388808A67
:103BB00080B208409BB206D001F0E06113EA1141E7
:103BC0000CBF002001207047C94389B28182704731
:103BD00010B5D0F8E43504461B699847032384F8F0
:103BE0001231002010BD00BF08B50422D0F8E43522
:103BF00080F81221DB689847002008BD08B5D0F88E
:103C0000E035DB6903B19847002008BD08B5D0F85E
:103C1000E0351B6A9847002008BD00BF08B5D0F802
:103C2000E0355B6A9847002008BD00BF002110B551
:103C30000B460446402201F0A7FA8021204640228C
:103C4000002301F0A1FA0122D4F8E43584F812210E
:103C5000A0785B689847002010BD00BF10B582B007
:103C60006946044600F03AF99DF8001001F01F0380
:103C7000012B18D010D3022B07D0204601F0800171
:103C800001F0FCFA002002B010BD2046694600F0A9
:103C9000F3FA002002B010BD2046694600F05AF940
:103CA000002002B010BD2046694600F0CBFA00208B
:103CB00002B010BD70B5044629B990F81131022B3D
:103CC0000CD0002070BDD0F8E0355B69002BF8D037
:103CD00090F81221032AF4D19847F2E7D0F8342162
:103CE000D0F820319A4210D9C1780129D0F8241196
:103CF000C3EB020208BFC918C0F8342108BFC0F8DE
:103D0000241192B200F0A2F8DBE7D0F83851B5FBED
:103D1000F3F603FB16565EB9AB4209D8D0F83C3136
:103D20009D4205D2324600F091F8C4F83C61C8E7E4
:103D3000D4F8E035DB681BB194F81221032A03D0D4
:103D4000204600F0B3F8BCE720469847F8E700BFEC
:103D500010B5044629B990F81131032B0CD000207E
:103D600010BDD0F8E0359B69002BF8D090F81221F7
:103D7000032AF4D19847F2E7D0F88C23D0F87833AF
:103D80009A4212D9C1780129D0F87C13C3EB020200
:103D900004BFC918C0F87C13C0F88C239A4228BF0E
:103DA0001A4692B200F06AF8D9E7D0F8E0351B69FC
:103DB0001BB190F81221032A03D0204600F066F8C8
:103DC000CDE79847F9E700BF2DE9F04104461646D4
:103DD00098460D46069FFCF7FDFD20462946C4F88F
:103DE000E085C4F8E475C4F8E86501F07FF9D4F81B
:103DF000E4351B6898472046BDE8F041FCF740BE1B
:103E000000207047D0F8E03510B504461B6898478D
:103E1000D4F8E4359B689847002010BD08B5D0F869
:103E2000E0355B689847002008BD00BF38B51346F1
:103E300002250A46C0F83831C0F8343180F81151F3
:103E4000002101F0FFF9002038BD00BF08B513467E
:103E50000A46002101F0F6F9002008BD38B51346E6
:103E600003250A46C0F89033C0F88C3380F811510E
:103E7000002101F0CBF9002038BD00BF08B5134682
:103E80000A46002101F0C2F9002008BD10B500214A
:103E9000042304460A4680F811310B4601F0D2F99A
:103EA000204601F033F8002010BD00BF10B50021FE
:103EB000052304460A4680F811310B4601F0A6F9A5
:103EC000204601F023F8002010BD00BF01EB810166
:103ED00000EBC100B0F88803704700BF90F8C83508
:103EE0000B7090F8C9354B7090F8CB2590F8CA3517
:103EF00003EB02234B8090F8CD2590F8CC3503EBF3
:103F000002238B8090F8CF2590F8CE3503EB022367
:103F10009BB20122CB80C0F83C3180F81121704760
:103F200010B591F90030002B044609DBCB883BB17A
:103F3000002101F0A3F92046BDE8104000F0E6BFE3
:103F40002046802101F09AF92046BDE8104000F09B
:103F5000DDBF00BF70B54B7882B00C460546092B1B
:103F60000CD8DFE803F032460B5A0B05710B8712B1
:103F7000A3881BB9E388002B00F08E8028462146D9
:103F8000FFF7CEFF002002B070BDA178AA4E012934
:103F90003170F3D890F81231022B00F09880032B87
:103FA000ECD1002900F03D8190F81011012900F0BA
:103FB0003081FFF733FF317885F810112846FFF77D
:103FC00021FF2846FFF762FFDCE790F8123101225B
:103FD000023B93424FF00301D0D8D0F81431002BAC
:103FE00057D1954B9A60284694490122FFF71EFF4E
:103FF000C8E790F81231023B012BBFD86388012B30
:10400000C0D1D0F8E03500229B68C0F814212146C9
:1040100098472846FFF73AFFB4E76388012B00F082
:10402000F180022BAED1A38813F0FF0FAAD1016952
:104030001B0A4A68013B1046042B00F29480DFE81B
:1040400003F0979C8EA6A1006288130A013B062B01
:1040500094D801A151F823F03D410008FF40000829
:10406000ED4000087D3F00087D3F00087D3F0008CF
:104070007D3F0008E288012A80D190F81231022B9E
:1040800021D0032B7FF47AAF00F58871FFF7CEFEC5
:1040900078E7694B9960A6E790F81231A678032B70
:1040A00006F07F063FF46AAF80F81361314601F0F5
:1040B0002FF92846FFF7EAFE002E00F0AE8002231B
:1040C00085F812315EE75E49FFF7B0FE5AE7002936
:1040D00000F09F800121032380F8101180F8123135
:1040E000FFF790FE2846FFF7D1FE4BE7D2B2052A34
:1040F0003FF644AFDFE802F07D746B625950D0F8B0
:10410000E03580789B6A0DF10601984702234370E1
:104110000146C5F8EC05BDF80630002B3FF432AF80
:10412000E288002A3FF42EAF934228BF13461A4676
:104130002846ADF80630FFF779FE23E7D0F8E835DA
:1041400080781B680DF106019847E288402A0146F5
:1041500003D095F81231012BDDD10823E1E70323C9
:1041600063F3061002464A602846FFF78FFE09E710
:10417000012363F306100246F5E7022363F30610FA
:104180000246F0E7052363F306100246EBE704233B
:1041900063F306100246E6E7D0F8E83580789B69BD
:1041A0000DF1060198470146B5E7D0F8E83580786B
:1041B0005B690DF1060198470146ACE7D0F8E83598
:1041C00080781B690DF1060198470146A3E7D0F8F6
:1041D000E8358078DB680DF10601984701469AE7DB
:1041E000D0F8E83580789B680DF1060198470146C4
:1041F00091E7D0F8E83580785B680DF106019847C3
:10420000014688E7D0F8E025C0F8143121469368CC
:1042100098472846FFF73AFEB4E6012385F81231A5
:10422000B0E6022380F8101180F81231FFF7F6FD96
:104230002846FFF72BFEA5E64C0A0020540A002072
:10424000500A002038B590F81231032B04460D4671
:1042500002D10B79012B03D9FFF762FE002038BD94
:10426000D0F8E0359B689847EB88002BF6D12046C4
:10427000FFF70CFEF2E700BF70B54B788A88012B80
:104280000C460546D6B224D019D3032B15D190F88D
:104290001231022B17D0032B3ED14B8823B9730662
:1042A00002D0314600F0EAFFD5F8E03521469B68A0
:1042B000284698472846FFF7E9FD002070BD90F892
:1042C0001231022B14D17206F7D0314600F0D6FF1E
:1042D000F3E790F81231022BF5D0032B1CD14B8859
:1042E000002BEAD17106E5D0314600F0E5FFDBE7AF
:1042F000032B11D1130613D406EB860600EBC6067A
:1043000096F87233B3B90D4B0022DA6028460C4997
:104310000222FFF78BFDD0E7FFF702FE002070BD01
:1043200006F07F0606EB860600EBC60696F81A3105
:10433000002BE8D0014B0122DA60E7E74C0A0020AD
:10434000580A002030B4F0B10378F3B104460023DA
:1043500014F8015F0133DBB2002DF9D15B000233A9
:10436000DCB2032513800C704D7002785AB1022321
:1043700000255C1CE4B2CA540D5510F8012F02331D
:10438000DBB2002AF5D130BC704702242346E8E7AF
:1043900010B5074C2068FF2807D0064B064A9B68DB
:1043A000126806499847FF232360002010BD00BF14
:1043B000E4000020380000205C0A0020CC1200201D
:1043C00043230B8000487047E800002070B51F4C65
:1043D0006368052B03F1010202D06260002070BD0A
:1043E000227A0023012A6360F8D0E1682569B1F5DB
:1043F000006F23D0A94226D015D88AB26D1A656104
:10440000D0F8EC35B3F83930AB4211D21944ED1A7B
:10441000E16065610E4901250A448121257200F0A1
:1044200011FF002070BDC1F5006565618AB2E7E744
:1044300029440026E160ABB26661EBE7E36015B1A9
:104440001A461946DAE700232372C7E75C0A002000
:10445000D412002001EB810138B500EBC101094DF8
:10446000094BB1F888131B69044628469847D4F8CD
:10447000EC352A46B3F840302046012100F0C6FE54
:10448000002038BD8C1200203800002070B50B7859
:1044900013F060040D46064617D0202C10D1CC88AE
:1044A000002C3DD01B0629D4224B234A4D781560A1
:1044B0001C60224621490024FFF7D0FC204670BD35
:1044C000FFF72EFD0224204670BD4B780A2B22D028
:1044D0000B2B0ED0062BF6D14B881B0A212B03D1B8
:1044E000CA883A2A28BF3A2230461549FFF79EFC6F
:1044F000E9E78B78DBB90F4B9C61E4E7114B487817
:104500009B680E49224698473046EA880B49FFF7D8
:104510008DFC0024D7E70C490122FFF787FCD2E786
:10452000084B48789B68214622469847CBE7FFF71F
:10453000F7FCC8E75C0A0020E4000020CC12002051
:10454000FA00002038000020740A002010B58121F4
:10455000044600F03FFE2046012100F03BFE822190
:10456000204600F037FE024B5B689847002010BDE4
:1045700038000020D0F8EC2538B50446812102230C
:10458000B2F8392000F000FED4F8EC352046B3F83C
:1045900040200121022300F0F7FD2046822108225D
:1045A000032300F0F1FD094B094A0221002519718E
:1045B0005D7113689847D4F8EC35064AB3F840307B
:1045C0002046012100F022FE284638BD4C00002084
:1045D000380000208C12002038B512490B7A012BCC
:1045E00001D0002038BD4C69CCB1D0F8EC35CA6898
:1045F000B3F839309C420CD813190025CB6092B225
:1046000023464D6108490A44812100F01BFE002029
:1046100038BD9D18E41A4C61CD6092B2F2E70C727D
:10462000002038BD5C0A0020D412002030B50546B9
:1046300083B0002303200193FCF73AFA2B68134C54
:104640001A69019206E0FCF733FA2B68013C1A69FB
:10465000019218D0019A002A4FF00300F3DA019971
:104660000A4A41F001010191019919611969019109
:1046700003E019690191013A02D00199C907F8D400
:104680000320FCF715FA002003B030BD400D0300F5
:1046900030B4C5786DB900EB820003339B10D0F8BD
:1046A000D04006D02A46013251F8040B20609342D4
:1046B000F9D1002030BC7047033270B49510D0F8A7
:1046C000D06009D00A4600230133346842F8044B15
:1046D0009D42F9D101EB8501084670BC704700BFCF
:1046E0002DE9F00F012440220023A1428470828032
:1046F000C3705DD0002946D04278C3604FF400619A
:10470000016190F80080002A68D09C464FF46066F2
:104710004FF4886B4FF4806A4FEA42190023024637
:104720000CF510670CF53065FC18E91820334B4583
:104730009461516502F10402F6D1C0F814A0C0F8EA
:10474000CCB0B8F1000F18D00CF5A06202EB481401
:104750000146C1F890202032A24201F10401F8D1B3
:104760000CF5805303EB08310246C2F8D03003F554
:1047700080538B4202F10402F7D1C0F80C61002093
:10478000BDE8F00F7047194BC1724FF4A0614FF0B4
:104790000C080622C180164EDFF864B0DFF864A072
:1047A000144980F800809C464270C3600161B3E701
:1047B0004FF0080804224FF4A07502244FF0A043E4
:1047C000C17280F800804270C58004729C460A4E17
:1047D000DFF834B0DFF834A00849E6E794464FF438
:1047E00060664FF4886B4FF4806AA6E700000440CF
:1047F000000E044000080440000E00500008005065
:1048000040040440000404404004005000040050F0
:1048100038B5037A012B04464FF000052FD050F82D
:104820000C2FD36843F04003D360FFF7FFFE237AD9
:10483000627A032B14BF4FF434134FF43C130AB1C4
:1048400043F48013E26814209363FCF743F9E368B0
:10485000217ADA68032908BF42F48032DA60227ACA
:10486000032A37D0E378012B07D1E3689D6805223E
:1048700062F3440545F020059D60002038BDC26804
:10488000417A936B65F3104309B143F4801393634A
:10489000D36823F4800323F0500343F010036FF335
:1048A000C3036FF3C7136FF351436FF3D343D36065
:1048B00004F10C00FFF7BAFEE378012BDDD10523EC
:1048C00063F34405E36845F020059D60E378012B20
:1048D000CBD0D2E71D6B012262F39B656FF3D755F6
:1048E0002D2245F0805562F316451D63C820FCF764
:1048F000F1F8E36845F400051D63C820FCF7EAF809
:10490000B0E700BFC3689A6842F001029A600020D5
:10491000704700BFC3689A6822F001029A600020C5
:10492000704700BF00B583B000230193019A0E4B7E
:1049300042F020020192019A61F38A120192C16849
:10494000019A0A610A69019203E00A690192013B36
:1049500002D0019A9206F8D40320FCF7A9F80020AF
:1049600003B05DF804FB00BF400D030000B583B049
:1049700000230193019A0C4B42F010020192C1688E
:10498000019A0A610A69019203E00A690192013BF6
:1049900002D0019AD206F8D40320FCF789F800204F
:1049A00003B05DF804FB00BF400D0300C26808B50A
:1049B000D36801296FF35D736FF39E7308D009B953
:1049C00043F08043D3603220FCF784F8002008BD18
:1049D00043F00053F6E700BFC368586900F00100D8
:1049E000704700BFC368586900F0010080F0010003
:1049F000704700BFC368586900F00100704700BFEE
:104A0000C3685A6998691040704700BFC368586806
:104A1000704700BF03691A6861F301021A607047AA
:104A200010B4C2680D4C4FF0FF3100239361516107
:104A3000C268516051619461C07891695DF8044B1E
:104A4000984208BF102343F4701343F4605343F0BB
:104A500008030B4300209361704700BF00080080EB
:104A6000F8B50446D0F80C012269002101600B461C
:104A7000116863F3CC211160E17A012949D010213A
:104A80002046FFF74FFF2046FFF770FF2569002201
:104A90004FF0FF332A616A61AB61EA6163783BB32F
:104AA00017462146FF268B6918680028ACBF0020F6
:104AB0004FF0904018601F619E606378013293420E
:104AC00001F10401EFD89BB1002217462146FF26D1
:104AD0004B6D18680028ACBF00204FF09040186064
:104AE0001F619E6063780132934201F10401EFD8A7
:104AF0002B6943F480732B61E378012B04D1144BB1
:104B0000402262F359432B632046FFF789FF0020C0
:104B1000F8BD1768E068C021802561F30F034FF4EA
:104B2000800165F31F4347F0030765F30F014FF45E
:104B3000A076176045628162C0F8043166F30F0306
:104B40006FF31F43C0F80831C0F80C3197E700BF7E
:104B50000301010003699B68C3F34103022B07D0E3
:104B6000032B03D0012B01D0032070470220704794
:104B7000012070470369826998681168C0F3410099
:104B8000022806BF032060F30A016FF30A011160D7
:104B90005A6842F480725A600020704770B44B78B3
:104BA000012B4FF0000220D00B7800EB830401258D
:104BB00005FA03F3646D63F31F4223681D040DD4EB
:104BC0008E68CD78C98866F30A0365F3934361F371
:104BD000995343F0805343F4004323600369D96938
:104BE0000A430020DA6170BC70470C7800EB840542
:104BF000A34063F30F02AC69DFE700BF30B44A782B
:104C00000023012A1C4613D00A7800EB82010125FB
:104C100005FA02F2496D62F31F4402696FF3CF3364
:104C20000B60D36923EA0404D461002030BC7047D0
:104C3000097800EB81058A4062F30F04A969ECE76B
:104C4000F0B44C780B784D69012C00EB83033AD01B
:104C50005C6D23682269EDB18E683544013DB5FB7A
:104C6000F6F5C5F3090765F3DC4206FB07F666F3C4
:104C700012022261C278012A16D0CA78012A1CD0F9
:104C80000A7800EB820043F00443426D1360002079
:104C9000F0BC70478D68012665F3120266F3DC42B2
:104CA0002261C278012AE8D10C780A6900EB8404F9
:104CB000646D6261CA78012AE2D14A79002A4DD036
:104CC00043F00053DCE79E6933683269002D40D021
:104CD0008C68CF7805EB040C0CF1FF3C65F31202F5
:104CE000BCFBF4F464F3DC42012F08BF67F35E728F
:104CF0003261C278012A3BD0CA78012A31D055B13D
:104D000002690C78566B012707FA04F434435463A4
:104D1000CA78012A25D00A7800EB820243F00443C6
:104D200092691360CB78012BB1D1C378CA68097836
:104D3000002BACD1ADB200EB81000335AD10D0F843
:104D4000D000A4D0013352F8041B01609D42F9D178
:104D50009DE765F3120264F3DC42C9E743F0805338
:104D60008EE702699268D20509D443F00053D2E776
:104D70000C780A6900EB8404A4696261C8E743F017
:104D80008053C8E7F0B44A78012A82B02AD00B7861
:104D90004C698E6800EB83035A6D136815690095A2
:104DA0009DF80050DCB19DF802404E61012767F389
:104DB000C40466F306058DF800508DF80240009C8F
:104DC0001461C278012A3CD00A7800EB820043F0DB
:104DD0000443426D1360002002B0F0BC70479DF8A0
:104DE0000240E3E784694D69236826690096002D37
:104DF0002ED08A6895423FD99DF800504A6162F3EF
:104E000006058DF800509DF80220012565F3C402C7
:104E10008DF80220009A2261C278012A25D043F041
:104E200004432360C378002BD5D14B69002BD2D02B
:104E300003690A78596B012000FA02F20A435A63A7
:104E4000C9E70C780A6900EB8404646D6261BBE712
:104E50009DF800709DF8026065F3060762F3C406D2
:104E60008DF800708DF80260D4E70D780A6900EBC8
:104E70008505AD696A61D2E79DF8002065F30602F9
:104E80008DF80020BFE700BF4B78012B0B7800EBBB
:104E9000830006D0426D136843F4001313600020B2
:104EA000704782691368002BF6DA43F0804343F4BD
:104EB00000131360002070474B78012B0B78C978E2
:104EC00000EB8300A1F102010CBF8269426D1368FF
:104ED00001296FF3555398BF43F0805313600020AE
:104EE000704700BF03699A69D8691040000C704789
:104EF00000EB810102694B6D9B6850691840704757
:104F000003699869DB69184080B2704710B40123C7
:104F100083B04FF0000263F3C402C02400231821C1
:104F20000093436D8DF802208DF803408DF800103A
:104F3000009A1A61C278012A06D100F5B960586159
:104F40004FF0802219681A6003B05DF8044B704777
:104F5000D0F8143110B504461BB103699A68D20722
:104F600000D410BD827A42B1D0F80C21D0F80C11D7
:104F70006FF341026FF300020A605A6842F00102C7
:104F80005A600520FBF7A6FD23695A6822F001024A
:104F90005A6010BD837A1BB103699B68DB0700D49C
:104FA0007047D0F80C31D0F80C216FF341036FF348
:104FB00000031360704700BF38B5437801220546EF
:104FC00080F8122163B103460022FF219C69A16091
:104FD0005C6DA1606C780132944203F10403F5D852
:104FE0002B6900224FF0FF311A6128465A61DA61BD
:104FF0009961FFF7BBFC28461021BDE83840FFF758
:1050000091BC00BF4B78012B0B7800EB83000BD0D9
:10501000436D1B689A0211D413F4003F0CBF4FF488
:1050200040504FF40050704783691B68990208D4C0
:1050300013F4003F0CBF3020202070474FF4805005
:1050400070471020704700BFF0B44D78012D0C461A
:1050500015D0097800EB8101B2F5805F4D6D2B68AA
:105060001E4619D0B2F5005F13D0B2F5405F26D0CE
:1050700012B962F3CF3633462B60F0BC70470F781D
:1050800000EB8707102ABD692B681E461ED0202A18
:1050900005D143F00063EFE743F40013ECE7302A57
:1050A000E6D199020DD500216171BA69E0781368E3
:1050B0000238012861F3555315D91360DDE79A02D0
:1050C00007D443F0044343F40043D5E7F0BCFFF7B3
:1050D000DBBE002060714A6DE17813680239012956
:1050E00060F35553E9D843F08053E6E770B50446C2
:1050F000FFF7F6FA63780126002284F8126184F83B
:1051000013217BB311462346402583F81821A3F8C9
:105110001E2183F8196183F81B11C3F82051C3F8CD
:105120002411C3F82C1160780132904203F1280356
:10513000EBD8B8B1002211462346402583F87023EE
:10514000A3F8762383F8711383F87313C3F87853A5
:10515000C3F87C13C3F8841360780132904203F1E2
:105160002803EBD82046FFF7D5FB2046FFF750FB7E
:1051700020460021FFF71AFC2046FFF771FC20466D
:10518000BDE87040FFF7BEBB70B50C0613D401EB51
:105190008105ED0005F55C75441900264155A260B6
:1051A000E3706670022B04BF002323712146FFF7D2
:1051B000F5FC002070BD01F07F0101EB8105ED00E1
:1051C00005F58C75441901264155A260E370E18014
:1051D0006670E7E7CAB208B513060DD401EB810388
:1051E00000EBC30303F55C73D20919705A701946BA
:1051F000FFF704FD002008BD01F07F0101EB8103F2
:1052000000EBC30303F58C73EEE700BF70B501F04C
:105210007F0404EB8405ED0005F55C75411900265B
:10522000CA604B618E614E704455C378012B08BF34
:105230000A611CB1FFF704FD002070BDFFF7A2FD5D
:10524000002070BDF8B501F07F0404EB8405ED008B
:1052500005F58C7541194FF0010E002781F801E02A
:105260004455CA600A614B618F611CB1FFF7E8FCCD
:105270000020F8BDFFF786FD0020F8BDCAB2130676
:1052800010B50FD401EB810300EBC30303F55C738E
:10529000D209012419705A709C701946FFF7F4FD69
:1052A000002010BD01F07F0101EB810300EBC3037F
:1052B00003F58C73ECE700BFCAB2130610B50FD428
:1052C00001EB810300EBC30303F55C73D2090024F7
:1052D00019705A709C701946FFF7EEFD204610BDFC
:1052E00001F07F0101EB810300EBC30303F58C7335
:1052F000ECE700BF08B50B0603D4FFF737FB00202F
:1053000008BD01F07F01FFF70DFB002008BD00BFC5
:1053100003690022186861F30A1202431A60704799
:1053200003695A686FF341025A600320FBF7D2BB4E
:1053300003695A6842F002025A600320FBF7CABBB5
:105340000B0607D401EB810100EBC10101F55C7193
:10535000FFF758BE01F07F0101EB810100EBC101B5
:1053600001F58C71FFF74EBE0B0607D401EB8101EE
:1053700000EBC10101F55C71FFF766BE01F07F0132
:1053800001EB810100EBC10101F58C71FFF75CBEFF
:105390002DE9F04F83B00546FFF724FB18B9002034
:1053A00003B0BDE8F08F2846FFF72AFB0746002828
:1053B000F5D0C0F3C040002840F093807C0326D491
:1053C000BC0702D5EB6802225A61002FC0F282812D
:1053D000390500F15F813B0700F15281FE0600F1C3
:1053E0002781FC0400F1EB80B90400F1CF80FA02C0
:1053F00000F1C180BB02D3D5A04B1B6828461B6AB5
:105400009847EB684FF400125A610120C8E728461C
:10541000FFF776FD8046002861D02E462C464FF0DF
:10542000000B019729E07A0702D5B36904279F6032
:105430003B0702D5B36908279F60F80602D5B36918
:1054400010279F60B90602D5B36920279F607A06AE
:1054500002D5B36940279F60BB0702D5B369022715
:105460009F603F0600F16B815FEA58080BF1010B6A
:1054700006F1040604F1280430D018F0010FF3D02F
:105480002B695FFA8BF919695F6B05EB890227FAC3
:1054900009F79269FF01FFB292680F431740F907BD
:1054A000C1D5764F596B3A68012707FA0BF021EA0C
:1054B00000015963B36952689F6028464946904786
:1054C000EB78BB42AFD1BBF1000FACD195F81131F5
:1054D000042BA8D12846FFF719FDA4E7019F01205E
:1054E0006EE72846FFF7FEFC0446002841D02E4612
:1054F000AB464FF00008A94607E0640808F1010830
:1055000006F104060BF1280B32D0E007F5D55FFA5F
:1055100088FA51464846FFF7EBFCC107054612D50D
:10552000736D01259D6099F80320AA4200F0538114
:105530005248036851461B684846984799F803301B
:10554000012B00F03B81AA0702D5736D02259D60F7
:105550006B0702D5736D04259D602D07CDD5474996
:105560000B6848469B689847736D08229A60C4E7A9
:105570004D46012022E7414B1B682846DB699847CE
:10558000EB684FF480125A61012033E72846FFF799
:10559000F1FAEB682846DC68FFF7DCFA032800F034
:1055A000C580012140220523A970AA8063F38D24C0
:1055B000EB684FF40052DC6001205A6117E72B6959
:1055C0005A68002622F001025A6031462846FFF749
:1055D000A9F96B7863B12B463246FF209969886040
:1055E000596D8860697801328A4203F10403F5D36A
:1055F00001242B6964F30F060F214FF0FF302F2297
:1056000064F31F469861DE6159611A611A686FF38D
:105610000A121A602846FFF779FC184AEB681268EC
:105620004FF4805112695961284690472046DBE6C5
:10563000EB689A6922F010029A611C6A04F00F026A
:1056400002EB8202C4F3434105EBC206022906F5D0
:105650005C765AD006290BD10822284605F5B96197
:10566000FFF72AF8B269EB68C4F30A142244B26166
:105670009A6942F010029A610120B2E6B40000205B
:10568000594B1B682846DB689847EB6808225A612B
:105690000120A3E6544B1B6828465B6998472A699A
:1056A000EB6891684FF400625A61AB7A83B1CA0724
:1056B0000ED5D5F80C314D4A196841F00101196039
:1056C000196841F003011960136943F0060313617F
:1056D000012080E6AB7A43B1D5F80C31D5F80C2126
:1056E0006FF341036FF3000313602B693E4A59685F
:1056F000126821F001015960284693699847EB68C8
:105700004FF000425A61012062E6C4F30A14002CF3
:10571000AED0F16822462846FEF7CEFFF168B269A6
:10572000EB6821442244F160B261A1E700214FF40B
:1057300000720923A970AA8063F38D2438E7D4F896
:105740002C21D4F83001B169D4F82071D1F818C0F7
:10575000131ABB4234BF9A46BA460AF1030A1FFA2B
:105760008CFCBCEB9A0F26D9824224D91AB3D4F808
:10577000241106E0D4F82C719F421BD9FB1AD4F8EF
:1057800020719F4228BF1F46BBB24A462846FEF7FB
:105790007FFFD4F82411D4F8303139443B44C4F8A5
:1057A0002411C4F83031B0698269033792B2B2EB88
:1057B000970FDFD8014680278F6055E6B8F1000FBC
:1057C0007FF4C1AE99F81131052B7FF4BCAE484689
:1057D000FFF79CFBB7E61A69DBF87833C2F31202D5
:1057E0009B1ACBF88833A3E6B400002000ED00E05C
:1057F00081F0004102E000BF83F0004330B54FEA82
:1058000041044FEA430594EA050F08BF90EA020FEE
:105810001FBF54EA000C55EA020C7FEA645C7FEA81
:10582000655C00F0E2804FEA5454D4EB5555B8BFA4
:105830006D420CDD2C4480EA020281EA030382EA15
:10584000000083EA010180EA020281EA0303362DA7
:1058500088BF30BD11F0004F4FEA01314FF4801C7A
:105860004CEA113102D0404261EB410113F0004F8C
:105870004FEA03334CEA133302D0524263EB430343
:1058800094EA050F00F0A780A4F10104D5F1200EE1
:105890000DDB02FA0EFC22FA05F2801841F100013C
:1058A00003FA0EF2801843FA05F359410EE0A5F110
:1058B00020050EF1200E012A03FA0EFC28BF4CF041
:1058C000020C43FA05F3C01851EBE37101F00045F7
:1058D00007D54FF0000EDCF1000C7EEB00006EEB04
:1058E0000101B1F5801F1BD3B1F5001F0CD349088E
:1058F0005FEA30004FEA3C0C04F101044FEA4452E5
:1059000012F5800F80F09A80BCF1004F08BF5FEA6B
:10591000500C50F1000041EB045141EA050130BD4B
:105920005FEA4C0C404141EB010111F4801FA4F1EE
:105930000104E9D191F0000F04BF01460020B1FA43
:1059400081F308BF2033A3F10B03B3F120020CDA7B
:105950000C3208DD02F1140CC2F10C0201FA0CF059
:1059600021FA02F10CE002F11402D8BFC2F1200CBE
:1059700001FA02F120FA0CFCDCBF41EA0C01904074
:10598000E41AA2BF01EB0451294330BD6FEA0404BD
:105990001F3C1CDA0C340EDC04F11404C4F12002A8
:1059A00020FA04F001FA02F340EA030021FA04F3BA
:1059B00045EA030130BDC4F10C04C4F1200220FA11
:1059C00002F001FA04F340EA0300294630BD21FA4F
:1059D00004F0294630BD94F0000F83F4801306BF15
:1059E00081F480110134013D4EE77FEA645C18BF09
:1059F0007FEA655C29D094EA050F08BF90EA020FA0
:105A000005D054EA000C04BF1946104630BD91EA97
:105A1000030F1EBF0021002030BD5FEA545C05D19A
:105A20004000494128BF41F0004130BD14F58004D9
:105A30003CBF01F5801130BD01F0004545F0FE414D
:105A400041F470014FF0000030BD7FEA645C1ABF82
:105A5000194610467FEA655C1CBF0B46024650EAB9
:105A6000013406BF52EA033591EA030F41F40021E5
:105A700030BD00BF90F0000F04BF0021704730B56B
:105A80004FF4806404F132044FF000054FF0000140
:105A900050E700BF90F0000F04BF0021704730B501
:105AA0004FF4806404F1320410F0004548BF4042D6
:105AB0004FF000013EE700BF42004FEAE2014FEA2B
:105AC00031014FEA02701FBF12F07F4393F07F4F06
:105AD00081F06051704792F0000F14BF93F07F4F38
:105AE000704730B54FF4607401F0004521F000417B
