:020000040800F2
:1000000000000220056D0008F1020008F50200085A
:10001000F9020008FD0200080103000800000000CA
:1000200000000000000000000000000005030008C0
:1000300009030008000000000D0300084503000844
:10004000556D0008556D0008556D0008556D000888
:10005000556D0008556D0008556D0008556D000878
:10006000556D0008556D0008556D0008556D000868
:10007000556D0008556D0008556D0008556D000858
:10008000556D0008556D0008556D0008556D000848
:10009000556D0008556D0008556D0008556D000838
:1000A000556D0008556D0008556D0008556D000828
:1000B000556D0008556D0008556D0008556D000818
:1000C000556D0008556D0008556D0008556D000808
:1000D000556D000841140008556D0008556D000865
:1000E000556D0008556D000855030008556D000852
:1000F000556D0008556D0008556D0008556D0008D8
:10010000556D0008556D0008556D0008556D0008C7
:10011000556D0008556D0008556D0008556D0008B7
:10012000556D0008556D0008556D0008556D0008A7
:10013000556D0008556D0008556D0008556D000897
:10014000556D0008556D0008556D000889030008BD
:10015000556D0008556D0008556D0008556D000877
:10016000556D0008556D0008556D0008556D000867
:10017000556D0008556D0008556D0008556D000857
:08018000556D0008556D0008E3
:10018800F8B540F6C014C2F200049FED1D7A247839
:1001980007EE904AF8EE677A0C46C7EE877A1D4656
:1001A8001646074637EEE07A77EEA00A77EE006A41
:1001B80070EE807A37EE407A70EEC00AC1ED036ABD
:1001C800C0ED037AC3ED030A82ED037A01F020F94A
:1001D800204601F01DF9304601F01AF9284601F0D1
:1001E80017F9384601F0BCF8204601F0B9F8304656
:1001F80001F0B6F82846BDE8F84001F0B1B800BFF4
:100208000000C8420023C3608360704770B500F0E7
:100218004FF940F21003C2F200034DF683621E68E4
:10022800C4F21B32A2FB06364FF46D4107224EF290
:100238001003CEF200031004CEF20001B60C013E0A
:10024800F025002440F421405E6040F0200081F851
:1002580023509C601A6000F057F800F0B3FF00F0DC
:10026800E5FF01F027F801F033F900F047FC00F052
:10027800E3FC01F0B5FA40F6A820C2F200000C2118
:1002880001F082F840F69420C2F200000D2101F03E
:100298007BF840F63820C2F200000E2101F074F815
:1002A80040F65C20C2F200000F2140F6482401F01D
:1002B8006BF8C2F2000440F6242140F680220023A5
:1002C800C2F20001C2F200024EF26030E360A360A5
:1002D800C0F21600BDE87040CB608B60D3609360BD
:1002E80000F012B8704700BF704700BFFEE700BFBC
:1002F800FEE700BFFEE700BFFEE700BF704700BF94
:10030800704700BF704700BF10B440F66C2485B03A
:10031800C2F200040190236803932168039A019BA9
:100328008A1A9A42F9D305B05DF8044B704700BFAA
:1003380040F66C23C2F200031868704740F66C233D
:10034800C2F200031A6801321A60704710B540F60D
:10035800B824C2F20004A37A63B14EF61053CEF269
:1003680000031A6822F006021A6000F00FF820460F
:1003780004F072FF4FF48020BDE8104001F0CABEBF
:1003880040F6B820C2F2000005F06CB94FF46D4297
:10039800CEF200024FF46053D2F88810C4F2020380
:1003A80041F47001C2F888101968002241F0010177
:1003B80019609A60186843F2100120F08470C2F244
:1003C800004120F4803018605960196882B021F427
:1003D80080211960DA60009201921A6842F4803232
:1003E8001A601A4603E0009BB3F5A06F09D01368A2
:1003F80003F400330193009B01330093019B002B0E
:10040800F1D04FF46053C4F202031B6813F40033B5
:1004180018BF01230193019B012B08D04FF46D43B2
:10042800CEF200034FF000629A6002B070474FF4BA
:100438006053C4F202034FF4E042196CC4F20002A4
:1004480041F080511964116841F4804111609A6843
:100458009A609A6842F400429A60996845F20842A4
:1004680041F4A051C0F2407299605A601A6842F093
:1004780080721A6019460A684FF460539201C4F2F8
:100488000203F8D54FF47052C4F2020240F205613B
:1004980011609A6822F003029A609A6842F0020298
:1004A8009A609A6802F00C02082AFAD1B6E700BFEF
:1004B8004FF46053C4F202039A6802F00C02042A53
:1004C80036D0082A12D04FF41051C0F2F4014FF47C
:1004D8006052C4F2020240F200039268C2F20003C2
:1004E800C2F303129A5CD1401961704758685A6880
:1004F80010F4800F586815BF4FF490534FF4105301
:10050800C0F27A03C0F2F40302F03F02B3FBF2F147
:100518004FF46053C4F20203C0F388105B68C3F35E
:100528000143013301FB00F15B00B1FBF3F1CEE7BE
:100538004FF49051C0F27A01C9E700BF002070471C
:100548000020704701207047002070474FF0FF30AF
:10055800704700BF10B50C4648B9204600F00CF9AA
:100568000028FAD0207800F0B1F8012010BD002052
:1005780010BD00BF40F69C13C2F20003186838B1E2
:1005880001446A46914294BF19604FF0FF307047AA
:1005980041F64420C2F200001860F1E710B50846A1
:1005A8001146144600F0CCF8204610BD00B540F2C4
:1005B800140183B0C2F2000140F6B82040F2700284
:1005C80040F22C130091C2F20000C2F20002C2F203
:1005D8000003012103F022FD40F25813C2F2000388
:1005E80000211B68986803B05DF804EB05F0CABAEF
:1005F800704700BF704700BF704700BF704700BF1B
:10060800704700BF704700BF704700BF00207047A9
:1006180000207047F0B5B9B140F6E415C2F2000504
:1006280041F240260144AE46C2F2000600272B687C
:1006380010F8014B5A1CB2F5006F08BF3A468842C1
:10064800F454CEF80020F2D10020F0BDF0B511B37B
:1006580041F2581541F24412C2F20005C2F20002FA
:1006680041F2C4062B6817680144C2F200064FF035
:10067800000E01E088420ED05A1C10F8014B802A67
:10068800F45415BF134600232A60C5F800E09F42C2
:10069800F0D10220F0BD0020F0BD00BF212812D10A
:1006A80040F23003C2F200031A680A701A68120A8C
:1006B8004A705A888A70DA78CA701A790A715A792F
:1006C8004A719B798B710020704700BF40F6E41394
:1006D800C2F2000341F24022196810B4C2F20002CB
:1006E8004C1CB4F5006F50540ABF00221C601A60FD
:1006F8005DF8044B704700BF0378F0B5F3B10146CD
:10070800002311F8012F0133002AFAD140F6E4142E
:10071800C2F2000441F2402500EB030E17462646BC
:10072800C2F20005236810F8011B5A1CB2F5006FCD
:1007380008BF3A467045E9543260F3D1F0BD00BFB6
:10074800F0B5C1B140F6E416C2F20006002341F24A
:100758004027B4469E46C2F200073268C55C541C66
:10076800B4F5006F03F1010308BF74469942BD5404
:10077800CCF80040F1D1F0BD41F2441341F25812D7
:10078800C2F20003C2F20002196812688A420DD050
:1007980041F2C402C2F20002525C02701A680132CD
:1007A800802A08BF00221A60012070470020704785
:1007B800F0B541F2581E41F24417C2F2000EC2F2DF
:1007C8000007DEF800403D68AC4218D041F2C40191
:1007D8002A46C2F2000100E015468B5C0A2B18BFBE
:1007E800002B02F1010214BF0026012601D00D2BB7
:1007F80007D1802A08BF00229442EDD13C60002036
:10080800F0BD3D60324601E00D2B11D083543C68A9
:1008180001321319802B08BF6242DEF8004008BF7E
:1008280000239C42EBD0CB5C002B18BF0A2BEBD1EA
:1008380000238354396841F244131144C2F200037F
:100848007F2988BF803919601046F0BD704700BF06
:10085800122340F24C000B80C2F20000704700BF28
:1008680004230B80004870476000002010B541F257
:100878008014C2F2000446F678500A46C0F600001A
:10088800214603F095FE204610BD00BF08B50A4674
:1008980070B146F6B05041F28011C0F60000C2F2C5
:1008A800000103F085FE41F28010C2F2000008BD8D
:1008B80046F68C5041F28011C0F60000C2F20001E9
:1008C80003F076FE41F28010C2F2000008BD00BFBE
:1008D80008B50A4670B146F6E45041F28011C0F6F8
:1008E8000000C2F2000103F063FE41F28010C2F280
:1008F800000008BD46F6D45041F28011C0F6000051
:10090800C2F2000103F054FE41F28010C2F200006E
:1009180008BD00BF10B541F28014C2F2000446F6CB
:10092800F4500A46C0F60000214603F041FE204676
:1009380010BD00BF10B541F28014C2F2000446F6A3
:1009480000600A46C0F60000214603F031FE20464A
:1009580010BD00BF704700BF704700BF70B50120D1
:10096800002482B0C4F20204014601F03BFA0326D7
:1009780000232046694602224FF4D8558DF80630E8
:100988008DF8073000958DF804208DF8056001F08A
:100998005BFC204608210A2201F0F6FC20460921CA
:1009A8000A2201F0F1FC20460B210A2201F0ECFC9E
:1009B80020460A220C2101F0E7FC01254FF4806350
:1009C8006946204600938DF805608DF806508DF82D
:1009D800075001F039FC0A210A46204601F0D4FCF0
:1009E80029464FF4804001F035FA2946802001F06D
:1009F80007FA29464FF0805001F064FA284601F0C2
:100A080089FB02B070BD00BF00B54FF4C06083B071
:100A180001F008F801234321032201A88DF80410EE
:100A28008DF805308DF807308DF8062001F004F8B0
:100A380003B05DF804FB00BFC0EB001044F62513BB
:100A4800C200C2F29243A3FB0213D21A03EB520272
:100A58009208002301339A42FCD270474DF2C042FB
:100A6800C0F2010244F6251302FB00F0C2F29243E1
:100A7800A3FB0023C21A03EB52029208002301339E
:100A88009A42FCD2704700BF10B5044603F01EF925
:100A98008421C0F20701204603F07EF90028F7D030
:100AA80010BD00BF10B50121044603F087F84021AE
:100AB800C0F20301204603F06FF90028F7D0204662
:100AC800BDE8104003F004B910B50021044603F056
:100AD80075F82046012103F059F84021C0F20301BE
:100AE800204603F059F90028F7D02046BDE8104009
:100AF80003F0EEB8012103F049B800BF70B54FF418
:100B0800001086B001214FF4806401F095F9C4F219
:100B180002040220012101F065F901250223204683
:100B28004FF4407269468DF804308DF80530009214
:100B38008DF806508DF8075001F086FB20460821F5
:100B4800042201F021FC204609214FF480440422AC
:100B580001F01AFC20044FF4D4520023C0F206021C
:100B680002A940F4A8404BF6FF760292ADF80C308B
:100B7800ADF81030ADF81230ADF81440ADF80E6095
:100B880002F062FF200440F4A840294602F0E2FF88
:100B980006B070BD70B504460E46154620464FF4A3
:100BA800003103F00DF90028F8D12046012102F0A8
:100BB800DFFF0121C0F20301204603F0EDF8002811
:100BC800F7D0314620462A4602F0EEFF15B1012D36
:100BD80009D070BD8221C0F20701204603F0DCF87D
:100BE8000028F7D070BD0221C0F20301204603F0AF
:100BF800D3F80028F7D0ECE770B54FF4A844C4F256
:100C08000004002206460D462046D021FFF7C2FF09
:100C180020463146FFF738FF20462946FFF734FFC4
:100C28002046FFF767FF4FF45460C0F20300BDE8A9
:100C38007040FFF769BB00BF10B54AF22014C0F23C
:100C480007042046FFF760FB6B200321FFF7D4FF62
:100C58006A200021FFF7D0FF37200221FFF7CCFFE1
:100C680019200221FFF7C8FF1A200421FFF7C4FF4B
:100C78001B200821FFF7C0FF1C200021FFF7BCFF45
:100C88002046BDE81040FFF73FBB00BF70B50646E1
:100C98004FF4A84082B00022C4F20000D021FFF730
:100CA80079FF4FF4A8403B21C4F20000FFF7ECFEA7
:100CB8004FF4A840C4F20000FFF71CFF4FF4A8400F
:100CC800C4F20000D0210122FFF764FF0DF1FF34C8
:100CD80001AD4FF4A840C4F20000FFF7E3FE04F8AA
:100CE800010FAC42F5D14FF4A840C4F20000FFF761
:100CF800EBFE9DF804509DF802409DF803109DF806
:100D080000209DF8013040EA052041EA042143EA29
:100D1800022305B209B21BB26D4249425B4206EE9C
:100D2800905A07EE101A05EE903ADFED0B7AB8EEFE
:100D3800E56AF8EEE66AB8EEC77A66EEA76A27EEC5
:100D4800277A66EE277AC6ED026A86ED017AC6ED45
:100D5800007A02B070BD00BFFEFF7F3870B506464E
:100D68004FF4A84082B00022C4F20000D021FFF75F
:100D780011FF4FF4A8404321C4F20000FFF784FE9E
:100D88004FF4A840C4F20000FFF7B4FE4FF4A840A7
:100D9800C4F20000D0210122FFF7FCFE0DF1FF3460
:100DA80001AD4FF4A840C4F20000FFF77BFE04F841
:100DB800010FAC42F5D14FF4A840C4F20000FFF790
:100DC80083FE9DF804509DF802409DF803109DF89D
:100DD80000209DF8013040EA052005B205EE905A42
:100DE80041EA042143EA022309B21BB206EE101AB3
:100DF800F8EEE56A05EE903ADFED097AB8EEC67AC4
:100E0800B8EEE56A66EEA76A27EE277A66EE277AD5
:100E1800C6ED026A86ED017AC6ED007A02B070BDB1
:100E2800FDB38B3940F28C03C2F20003D3ED005AB4
:100E3800DFED1B4A75EEA44A93ED015A85EEA47ABC
:100E480041F25C1140F6A012C2F20002C2F20001A7
:100E5800C5EE244AB7EE006A36EE476AD1ED017A4C
:100E680092ED004A25EE065AD3ED026A27EEC77ABC
:100E780077EE843AD2ED017AA4EE067AE4EEC56AFA
:100E8800E3EEE47A25EE866A83ED015A83ED006A83
:100E9800C3ED026A82ED007AC2ED017A704700BFA5
:100EA800C3F5784040F28C03C2F20003D3ED015A37
:100EB800D3ED007A9FED187A40F6A012E5EEC77AD6
:100EC80041F26811C2F20002C2F20001D3ED026AD7
:100ED8009FED126A92ED017A91ED004AE6EE867A6C
:100EE80034EE474A9FED0E6A92ED007AE6EEC65A56
:100EF800DFED0C4A9FED0C5AA4EE067A77EEA47A41
:100F080076EE856AC3ED007AC3ED015AC3ED026A35
:100F180082ED007A704700BF0E74DA3BDC693A371D
:100F28000E745A3B1AF47B350000000040F28C0323
:100F3800C2F20003D3ED035ADFED1B4A75EEA44A53
:100F480093ED045A85EEA47A41F25C1140F6A012A2
:100F5800C2F20002C2F20001C5EE244AB7EE006AEE
:100F680036EE476AD1ED007A92ED024A25EE065A2E
:100F7800D3ED056A27EE277A77EEC43AD2ED037AE5
:100F8800A4EE067AE4EEC56AE3EEA47A25EE866A54
:100F980083ED045A83ED036AC3ED056A82ED027A94
:100FA800C2ED037A704700BFC3F5784040F28C0366
:100FB800C2F20003D3ED045AD3ED037A9FED187AF9
:100FC80040F6A012E5EEC77A41F26811C2F20002BB
:100FD800C2F20001D3ED056A9FED126A92ED037A21
:100FE80091ED014AE6EE867A34EE474A9FED0E6AA5
:100FF80092ED027AE6EEC65ADFED0C4A9FED0C5AE6
:10100800A4EE067A77EEA47A76EE856AC3ED037AC3
:10101800C3ED045AC3ED056A82ED027A704700BF3A
:101028000E74DA3BDC693A370E745A3B1AF47B3596
:101038000000000070B541F25C140568C2F20004BB
:101048001E462560456865608068A06041F26814A6
:101058000868C2F200041546206048686060896824
:10106800A160FFF7DFFEFFF71DFFFFF75FFFFFF748
:101078009DFF40F6A011C2F2000194ED006A94EDC4
:10108800017AD1ED037AD1ED016A37EE677A76EE0F
:10109800666ADFED0D7AD1ED005AD1ED024A65EEB0
:1010A800A75A26EEA75A27EE276A64EEA77AC1ED5B
:1010B800046A81ED057A85ED015AC5ED005A86ED81
:1010C800016AC6ED007A70BDE02E654240F6A013B5
:1010D80041F26812C2F20003C2F2000293ED017AF3
:1010E80092ED006AD2ED016AD3ED037A36EE477AC3
:1010F80076EEE77A83ED047AC3ED057A704700BF90
:10110800D0ED026AD0ED007A90ED037A76EEE77AB8
:10111800DFED196AA7EEA67A9FED186AF7EE006A66
:10112800B4EEE67AF1EE10FA67EE867ACABFB0EE50
:10113800667A80ED037AC0ED036A77EE877AD0EDA0
:10114800016A9FED0F7AE6EEC77AB7EE007AF4EE01
:10115800C77AF1EE10FAC8BFF0EE477A08DCBFEEA6
:10116800007AF4EE477AF1EE10FA48BFF0EE477ACB
:10117800C0ED047A704700BF00000000A69BC43B86
:10118800FAEDEB3A0C38032808D8DFE800F0140E23
:1011980008024FF40063C4F20003196470474FF467
:1011A8000063C4F20003D96370474FF40063C4F2CC
:1011B8000003996370474FF40063C4F20003596356
:1011C800704700BFF0B54FF4406483B0C4F2020426
:1011D8000820012100F006FE0225012320460022F6
:1011E80069464FF4704703268DF807308DF80620BE
:1011F80000978DF804508DF8056001F025F8204619
:101208002A460C2101F0C0F820462A460D2101F09B
:10121800BBF820462A460E2101F0B6F820462A4699
:101228000F2101F0B1F803B0F0BD00BF30B50420C4
:1012380085B0012100F000FE40F21003C2F2000365
:1012480048F21F541868C5F2EB14A4FB0034240AB2
:10125800B4F5803F2BD94FF4C8630122B0FBF3F1FA
:10126800B1F5803F02F1010203F54873F6D8551E27
:10127800ADB292B2B4FBF2F44FF40060002301A9BE
:10128800013CC4F20000ADF80630ADF80C308DF822
:101298000E300294ADF8045001F04CFB4FF400609E
:1012A800C4F20000012101F0F3FB05B030BD0122BA
:1012B8000025DFE730B54FF4006487B0C4F20004BE
:1012C800002360220125204601A90393ADF81030C0
:1012D800ADF80420ADF8065001F0E8FB20460821DF
:1012E80001F060FD204601A901F028FC20460821F4
:1012F80001F060FD204601A901F06CFC20460821A0
:1013080001F062FD204601A901F0B0FC2046082149
:1013180001F062FD2046294601F094FB204629464B
:1013280001F0B6FB07B030BD40F21003C2F2000373
:1013380040F21F321968C0F2203291420DD94FF4A1
:10134800C8630120B1FBF3F2B2F5803F00F1010060
:1013580003F54873F6D880B270470120704700BF84
:101368008388C288D21A07EE902A90ED037AF8EEA5
:10137800E77A807A67EE877AFCEEE77A17EE901ABA
:1013880013FA81F1FFF7FEBEF8B540F21005C2F27C
:10139800000504460F464DF68366FFF7C5FF2B6828
:1013A800A772C4F21B36A6FB032347009B0CB3FBB2
:1013B800F7F303EB830303EB830303EB03135B00F4
:1013C80000224AF22010A380E260C0F20700FEF774
:1013D8009BFF2046FFF7C4FF42F2A050C0F2260050
:1013E800FEF792FF2868A6FB0030800CB0FBF7F0F0
:1013F8000301C2181B1AC3EB431300EB820000EB76
:1014080000109B000022A080E3802281F8BD00BF6D
:1014180090ED037AF7EE007AB4EEE77AF1EE10FA7F
:1014280002DDC0ED037A7047B5EEC07A0023F1EE15
:1014380010FA48BFC360704710B54FF48054C4F227
:101448000104204640F2255102F098FA80B1A188A3
:1014580040F6C013C2F20003C9B2204619700388CF
:101468005B06FCD54FF48050C4F2010002F0B8F9D5
:1014780010BD00BF82B04FF480528DF80700C4F24F
:10148800010213885906FCD59DF807104FF48050C7
:10149800C4F2010002B002F0A3B900BF70B503782E
:1014A8000546A3B14FF48054C4F2010423885806BA
:1014B800FCD52E464FF4805016F8011BC4F20100EB
:1014C80002F08EF92B786B780BB13546EEE770BDDC
:1014D800F0B54FF4806689B0C4F2020602200121FB
:1014E80000F080FC00244FF0C00E03230125304695
:1014F800022706210722CDF808E08DF80D308DF877
:101508000C708DF80E408DF80F5000F03DFF07214C
:101518000A46304600F038FF304602A94FF480569C
:1015280000F092FEC4F201062946102000F092FC59
:101538003046294602F020F90C2330464FF4165263
:1015480004A9ADF81A300492ADF81C40ADF8184063
:10155800ADF81640ADF8144002F086F830462A4639
:1015680040F2255102F0E2F9252301A88DF8075031
:101578008DF805408DF806408DF8043000F05CFACF
:1015880009B0F0BD10B504464FF48050C4F2020013
:10159800082100F0EBFE44F080044FF44050C4F200
:1015A8000100022101F0B2F80028F6D04FF44050B3
:1015B8002146C4F2010001F06FF84FF44050C4F224
:1015C8000100012101F0A2F80028F6D04FF44050A4
:1015D800C4F2010001F05CF84FF44050C4F201007D
:1015E800022101F093F80028F6D04FF44050C4F2DD
:1015F8000100002101F050F84FF44050C4F20100FE
:10160800012101F083F80028F6D04FF4805008211A
:10161800C4F2020000F0A8FE4FF44050C4F20100EA
:1016280001F036F8C0B210BD38B505464FF4805009
:101638000C46C4F20200082100F098FE4FF4405016
:10164800C4F20100022101F061F80028F6D04FF43D
:1016580040502946C4F2010001F01EF84FF44050F2
:10166800C4F20100012101F051F80028F6D04FF42E
:101678004050C4F2010001F00BF84FF44050C4F29E
:101688000100022101F042F80028F6D04FF4405042
:101698002146C4F2010000F0FFFF4FF44050C4F2AD
:1016A8000100012101F032F80028F6D04FF4405033
:1016B800C4F2010000F0ECFF4FF48050C4F20200C5
:1016C8000821BDE8384000F04FBE00BF2DE9F047C3
:1016D8004FF4405888B00024C4F201084FF48050F9
:1016E800012100F0B7FB01254FF4827202274FF465
:1016F8000073404603A92646ADF80E20C4F2020640
:10170800ADF81630ADF80C40ADF81040ADF8184003
:10171800ADF81A40ADF81270ADF814504FF4805976
:1017280000F07EFE2946112000F05CFBC4F202099D
:10173800E023304601A901934FF0080A8DF808709C
:101748008DF809708DF80A408DF80B4000F07CFD8B
:1017580001A948468DF809708DF808508DF80B508E
:101768008DF80A40CDF804A000F06EFD0521304642
:101778000A4600F009FE30460621052200F004FE64
:1017880005223046072100F0FFFD4846514600F08B
:10179800EBFD4046294600F0F5FE08B0BDE8F087AD
:1017A80070B54FF4A844C4F20004002206460D4662
:1017B80020461821FFF7EEF920463146FFF764F975
:1017C80020462946FFF760F92046FFF793F94FF4C2
:1017D8005460C0F20300BDE87040FEF795BD00BF3D
:1017E800F8B54AF22015C0F207052846FEF78CFD29
:1017F8004FF4A8440A200021FFF7D2FFC4F20004E6
:101808000A200F21FFF7CCFF002220461821FFF7FE
:10181800C1F920461021FFF737F92046FFF76AF98A
:10182800012218212046FFF7B5F92046FFF73AF9BB
:1018380007462046FFF736F906462046FFF744F9E3
:10184800803805EE100A803F07EE907A803EB8EEA9
:10185800C56A05EE106A9FED157AF8EEE76AF7EEAD
:10186800007AF8EEC55AB0EE675AA6EE075A41F26A
:101878007413B0EE456AB0EE675AA6EE875AE5EEE5
:10188800877AC2F200030A20002183ED026A83ED01
:10189800005AC3ED017AFFF783FF0A200621FFF7FC
:1018A8007FFF2846BDE8F840FEF72EBD0000803BCC
:1018B80070B506464FF4A84082B00022C4F200007A
:1018C8001821FFF767F94FF4A8400221C4F200007D
:1018D800FFF7DAF84FF4A840C4F20000FFF70AF95E
:1018E8004FF4A8400122C4F200001821FFF752F972
:1018F8004FF4A840C4F20000FFF7E6F8C20701D48D
:1019080002B070BD4FF4A8400022C4F200001821B4
:10191800FFF740F94FF4A8400321C4F20000FFF795
:10192800B3F84FF4A840C4F20000FFF7E3F84FF40F
:10193800A840C4F2000018210122FFF72BF90DF18D
:10194800FF340DF105054FF4A840C4F20000FFF77D
:10195800A9F804F8010FAC42F5D14FF4A840C4F23D
:101968000000FFF7B1F80307CAD49DF800509DF8AE
:1019780001409DF802009DF803109DF805309DF880
:10198800042044EA052405EE904AF8EEE55AF2EE02
:10199800046A9FED1D7A65EEA65A41EA0021DFED43
:1019A8001B7A65EE875A06EE101AC5EEA75A43EA67
:1019B800022241F27413C2F20003B8EEC66A04EEC2
:1019C800902A26EE266AB8EEE45A26EE076A65EEF5
:1019D800266A86EE276A26EE877AD3ED006AC7EE76
:1019E800277A25EEA67A86ED007AD3ED016A26EEEF
:1019F800267A86ED017A93ED026A67EE867AC6ED5D
:101A0800027A02B070BD00BF0080994500F0FF4621
:101A1800146E000800000020980900209809002092
:101A2800441A00204FF46D4340F0BF60CEF200032B
:101A380040F40030D8607047C37870B47BB902783E
:101A48004FF461435109203102F01F020120CEF208
:101A5800000300FA02F243F8212070BC70474FF4EB
:101A68006D43CEF200034678DA6884780378D2436F
:101A7800C2F30222C2F104010F25C9B206FA01F12C
:101A880045FA02F2C9B222400A4303F1604303F562
:101A980061431201D2B283F8002302784FF4614304
:101AA80002F01F0101205209CEF2000300FA01F1F1
:101AB80043F8221070BC704721F060414FF46D4329
:101AC80021F07F01CEF2000308439860704700BF01
:101AD8004FF46D43CEF200031A6919B922EA0000E7
:101AE8001861704710431861704700BF4EF2100329
:101AF800CEF2000304281A680CBF42F0040222F058
:101B080004021A60704700BF4FF46053C4F2020326
:101B18000022196841F0010119609A60186843F2BF
:101B2800100120F08470C2F2004120F48030186067
:101B38005960196821F480211960DA60704700BF84
:101B480043F60203C4F2020300221A7018707047A9
:101B580082B000234FF460520193C4F2020213686A
:101B68009B030FD4019B01330193019BB3F5A06F35
:101B7800F5D14FF46053C4F202031868C0F3404033
:101B880002B07047019B01330193019BF1E700BF4D
:101B98004FF46053C4F202031A6822F0F80242EAD2
:101BA800C0001860704700BF0023C4F247231860C4
:101BB800704700BF43F67003C4F2020300220128F5
:101BC8001A701A7005D0042802D105221A707047BD
:101BD80070471870704700BF4FF46863C4F247231A
:101BE8001860704710B4019C40EA04605B08014328
:101BF8004FF46054C4F20204013B41EA821242EA03
:101C0800034363605DF8044B704700BF6023C4F270
:101C180047231860704700BF4FF460530907C4F2A8
:101C2800020341EA8010C3F8840070476823C4F2B5
:101C380047231860704700BF4C23C4F2472318603D
:101C4800704700BF4FF46053C4F202039A6822F051
:101C5800EC62114308439860704700BF4FF460532B
:101C6800C4F202039A6822F078421143084398604C
:101C7800704700BF4FF46053C4F202039A6822F021
:101C880003021043986070474FF46053C4F2020394
:101C9800986800F00C0070474FF46053C4F20203D8
:101CA8009A6822F0F0021043986070474FF460532E
:101CB800C4F202039A6822F4E05210439860704715
:101CC8004FF46053C4F202039A6822F4604242EA75
:101CD800C0009860704700BF4FF46053C4F202031D
:101CE80010B49A6802F00C02042A24D0082A28D0DA
:101CF8004FF41051C0F2F40101604FF46052C4F285
:101D0800020240F2A4039468C2F20003C4F303146D
:101D18001C5DE14041609468C4F382241C5D21FA93
:101D280004F4846092685DF8044BC2F342329B5C11
:101D3800D940C16070474FF49051C0F27A010160F8
:101D4800DBE75C685A6814F4800F5C6815BF4FF4D1
:101D580090534FF41053C0F27A03C0F2F40302F028
:101D68003F02B3FBF2F14FF46053C4F20203C4F331
:101D780088145B68C3F30143013301FB04F15B0082
:101D8800B1FBF3F10160B8E700F44073B3F5407FAD
:101D98000CD14FF46053C4F2020320F070419A68EA
:101DA80021F4407122F4F8120A439A604FF4605308
:101DB800C4F20203C0F30B001A6F10431867704790
:101DC80040F63C63C4F24723186070474FF46463DD
:101DD800C4F24723186070474FF4AE73C4F2472328
:101DE800186070474FF46053C4F202031A6B19B9B4
:101DF80022EA00001863704710431863704700BF59
:101E08004FF46053C4F202035A6B19B922EA000076
:101E18005863704710435863704700BF4FF46053CE
:101E2800C4F202039A6B19B922EA0000986370475A
:101E380010439863704700BF4FF46053C4F2020325
:101E48001A6C19B922EA0000186470471043186424
:101E5800704700BF4FF46053C4F202035A6C19B9BB
:101E680022EA00005864704710435864704700BF66
:101E78004FF46053C4F202031A6919B922EA000048
:101E88001861704710431861704700BF4FF46053E2
:101E9800C4F202035A6919B922EA0000586170476E
:101EA80010435861704700BF4FF46053C4F20203F7
:101EB8009A6919B922EA000098617047104398613D
:101EC800704700BF4FF46053C4F202031A6A19B98D
:101ED80022EA00001862704710431862704700BF7A
:101EE8004FF46053C4F202035A6A19B922EA000097
:101EF8005862704710435862704700BF4FF46053F0
:101F0800C4F202031A6D19B922EA00001865704775
:101F180010431865704700BF4FF46053C4F20203C2
:101F28005A6D19B922EA0000586570471043586580
:101F3800704700BF4FF46053C4F202039A6D19B999
:101F480022EA00009865704710439865704700BF03
:101F58004FF46053C4F202031A6E19B922EA000062
:101F68001866704710431866704700BF4FF46053F7
:101F7800C4F202035A6E19B922EA00005866704783
:101F880010435866704700BF43F60D03C4F20203BE
:101F98001A7819B922EA00001870704710431870AF
:101FA800704700BF4309012B0ED0022B4FF460533A
:101FB800C4F2020300F01F000CBF1B6F5B6F23FA13
:101FC80000F000F0010070474FF46053C4F20203C0
:101FD80000F01F001B6823FA00F000F001007047B2
:101FE8004FF46053C4F202035A6F42F080725A678A
:101FF800704700BF4FF46053C4F20203DB68184215
:102008000CBF00200120704743F60E03C4F2020300
:10201800187070474FF47053C4F201034FF6FF7104
:102028000022C0F27F011A605A609A60DA60596132
:10203800704700BF837970B443B34FF47053C4F250
:10204800010301681E6802794579CC4326401E6069
:102058005E6802F1804202F59E3234405C6014688A
:102068002143116002689868D14308409860D86895
:10207800102D01EA0001D96014D005F1804505F55D
:102088009E352B681A432A6070BC70470379016833
:1020980003F1804303F59E3370BC1A6822EA0102FB
:1020A8001A607047996811439960D9680A43DA60E1
:1020B80070BC704700230C22427103600371837166
:1020C800704700BF4FF47053C4F201031A691043FC
:1020D800186170474FF47053C4F201035B691842EA
:1020E8000CBF0020012070474FF47053C4F2010365
:1020F800586170474FF47053C4F201031A685B6962
:10210800034004D010420CBF00200120704718463D
:10211800704700BF4FF47053C4F201035861704711
:1021280008B50023C4F2020398423CD04FF4806300
:10213800C4F20203984240D04FF40063C4F2020391
:10214800984244D04FF44063C4F20203984248D006
:102158004FF48053C4F2020398424CD04FF4A0537A
:10216800C4F20203984250D04FF4C053C4F20203A1
:10217800984254D04FF4E053C4F20203984258D026
:102188004FF40053C4F20203984200D008BD4FF444
:1021980080700121FFF76CFE4FF480700021BDE8CC
:1021A8000840FFF765BE01200146FFF761FE0120E8
:1021B8000021BDE80840FFF75BBE02200121FFF7C0
:1021C80057FE02200021BDE80840FFF751BE042059
:1021D8000121FFF74DFE04200021BDE80840FFF76C
:1021E80047BE08200121FFF743FE08200021BDE873
:1021F8000840FFF73DBE10200121FFF739FE1020EF
:102208000021BDE80840FFF733BE20200121FFF779
:102218002FFE20200021BDE80840FFF729BE4020FE
:102228000121FFF725FE40200021BDE80840FFF707
:102238001FBE80200121FFF71BFE80200021BDE882
:102248000840FFF715BE00BF00222DE9F0431346F2
:102258000E6801274FF0030C04E00133102B02F144
:1022680002022ED007FA03F404EA0605A542F4D1C7
:10227800D0F8008091F804E00CFA02F4E44304EA90
:102288000808C0F80080D0F800800EFA02F90EF1B4
:10229800FF3E5FFA8EFE49EA0808BEF1010FC0F85A
:1022A800008010D9C56891F807E02C40C460C56863
:1022B8000EFA02F401332C43102BC46002F102021F
:1022C800D0D1BDE8F083D0F8089091F8058091F856
:1022D80006E004EA0909C0F80890D0F8089008FA5E
:1022E80002F848EA0908C0F80880D0F8048028EA0B
:1022F8000505456045680EFA03FE1FFA8EFE4EEA94
:1023080005054560CEE700BF00234FF6FF72026067
:10231800037143718371C371704700BF82B04FF47A
:1023280080330193019B0B430193019BC361C161FE
:10233800019BC361C3690193C369019302B07047EC
:10234800036919420CBF002001207047006980B260
:10235800704700BF436919420CBF00200120704735
:10236800406980B2704700BF01837047418370475E
:102378000AB9418370470183704700BF41617047C4
:102388004369594041617047CB0800EB830001F075
:10239800070110B48900046A0F238B4024EA030361
:1023A8000362036A5DF8044B8A4013430362704773
:1023B80008B54FF44053C4F20103984218D04FF4C3
:1023C8006053C4F2000398421ED04FF47053C4F215
:1023D8000003984200D008BD4FF400400121FFF7E8
:1023E80071FD4FF400400021BDE80840FFF76ABDC9
:1023F8004FF480500121FFF773FD4FF48050002106
:10240800BDE80840FFF76CBD4FF480400121FFF79D
:1024180059FD4FF480400021BDE80840FFF752BD48
:102428002DE9F043B1F80290B1F80080B1F804C08A
:10243800B1F806E00F894E898D89CC890A8A03880C
:1024480049EA080141EA0C0141EA0E0139433143E6
:102458002943214303F441530B439BB20380838BED
:1024680023F400631B041B0C83830282BDE8F08302
:10247800838B8A6823F47B6323F00F031B042DE905
:10248800F0411B0C022483830484868BA242B6B2DB
:102498005ED04FF46053C4F202038C889D68002C10
:1024A8000CBF4FF0010C4FF0020C2D0242BF9D688B
:1024B80025F400059D604FF46053C4F202034FF405
:1024C8009055D3F884E0D3F88470D3F80480CB888F
:1024D80008F03F08C0F27A05CEF3881EB5FBF8F580
:1024E800B3F5007FC7F302770EFB05F5B5FBF7F5EB
:1024F80016BF4FEA4C1C2D0AB5FBFCF505EB85050C
:102508006D00B5FBF2F205324CF6CD45CCF6CC4564
:1025180092B2A5FB0272D2085508AF1EBFB202F0F4
:102528000102FD2F94BF45EA02220222B1F800E021
:102538004F888D8946EA0E0141F4006139432943E9
:10254800134389B29BB20C4303848483BDE8F081B2
:102558008C88CB88EAE700BF002307220282038029
:1025680043808380C380038143818381C381704713
:10257800002302228260038043808380C38083819A
:10258800704700BF038829B923F040031B041B0CC4
:10259800038070479BB243F040030380704700BF3D
:1025A800838B29B923F480631B041B0C8383704736
:1025B8009BB243F480638383704700BF038823F48E
:1025C80000631B041B0C038003889BB21943018022
:1025D800704700BF0388B1F5804F15BF23F48043CF
:1025E8009BB21B0443F4804318BF1B0C0380704745
:1025F8004FF6FF63994203880BBF23F480739BB2A5
:102608001B0443F4807308BF1B0C0380704700BF92
:10261800838829B923F004031B041B0C83807047AB
:102628009BB243F004038380704700BF838829B9B5
:1026380023F010031B041B0C838070479BB243F0EC
:1026480010038380704700BF838B23F47B6323F0E0
:102658000F031B0402221B0C83830284828B0B88CA
:1026680030B44D888C88898992B22A4342F400623A
:1026780023F4007322431B040A431B0C92B2002B61
:102688000CBF4FF4807300231343838330BC70471F
:10269800808980B2704700BF81817047038829B95B
:1026A80023F400531B041B0C038070479BB243F4B4
:1026B80000530380704700BF03889BB243F48053E4
:1026C80003807047012914BF008B808A80B270474D
:1026D800008A80B2704700BF83889BB21AB923EA88
:1026E80001018180704719438180704701230909DE
:1026F80003FA01F1838889B29BB21AB923EA01016E
:102708008180704719438180704700BF038919424F
:102718000CBF002001207047C94389B2018170476E
:1027280010B48488008901F00F03012280B202FAF4
:1027380003F31840A4B205D009098A4014420CBF1B
:10274800002001205DF8044B704700BF01F00F0125
:10275800012303FA01F1C94389B20181704700BF1F
:1027680008B50023C4F2010398425BD0B0F1804F52
:1027780062D04FF48063C4F20003984266D04FF4ED
:102788000063C4F2000398426AD04FF44063C4F275
:10279800000398426ED04FF48053C4F2000398426D
:1027A80072D04FF4A053C4F20003984276D04FF48D
:1027B8008063C4F2010398427AD04FF48043C4F294
:1027C800010398427ED04FF48843C4F20103984233
:1027D80000F084804FF49043C4F20103984200F063
:1027E80089804FF4C053C4F20003984200F08E80F1
:1027F8004FF4E053C4F20003984200F091804FF484
:102808000053C4F20003984200D008BD4FF4807012
:102818000121FFF757FB4FF480700021BDE8084005
:10282800FFF750BB01200146FFF75AFB01200021AA
:10283800BDE80840FFF754BB01200146FFF742FB03
:1028480001200021BDE80840FFF73CBB0220012120
:10285800FFF738FB02200021BDE80840FFF732BB34
:1028680004200121FFF72EFB04200021BDE80840C9
:10287800FFF728BB08200121FFF724FB08200021CF
:10288800BDE80840FFF71EBB10200121FFF71AFB27
:1028980010200021BDE80840FFF714BB20200121CB
:1028A800FFF710FB20200021BDE80840FFF70ABB16
:1028B80002200121FFF714FB02200021BDE8084097
:1028C800FFF70EBB4FF480300121FFF709FB4FF4EF
:1028D80080300021BDE80840FFF702BB4FF400300C
:1028E8000121FFF7FDFA4FF400300021BDE8084050
:1028F800FFF7F6BA4FF480200121FFF7F1FA4FF401
:1029080080200021BDE80840FFF7EABA40200121F5
:10291800FFF7D8FA40200021BDE80840FFF7D2BAF7
:1029280080200121FFF7CEFA80200021BDE8084071
:10293800FFF7C8BA70B400224FF48064C4F20102F1
:102948000388C4F20104904218BFA0429BB214BF8E
:102958000022012208D04FF48064C4F20004A0428F
:1029680018BFB0F1804F23D14FF68F754C881D40AA
:1029780045EA04034FF4A0564FF48055C4F200050D
:10298800C4F20006B04218BFA8421FBF0D894FF617
:10299800FF441C4044EA05034D680C880380C56267
:1029A80004850AB18B7A03860123838270BC704741
:1029B8004FF400654FF44064C4F20005C4F200040B
:1029C800A04218BFA842D5D1CEE700BF00234FF0E0
:1029D800FF3242600380038143808372704700BFE7
:1029E80001858282704700BF038823F070031B04AF
:1029F8001B0C19430180704741627047C1627047E0
:102A0800406A7047008D80B2704700BF038829B9BB
:102A180023F002031B041B0C038070479BB243F096
:102A280002030380704700BF038829B923F0040319
:102A38001B041B0C038070479BB243F00403038004
:102A4800704700BF038829B923F080031B041B0CBF
:102A5800038070479BB243F080030380704700BF38
:102A6800038823F008031B041B0C038003889BB214
:102A780019430180704700BF038823F440731B0487
:102A88001B0C038003889BB219430180704700BF69
:102A9800038829B923F001031B041B0C038070472A
:102AA8009BB243F001030380704700BFF0B5048C6C
:102AB8008D89B1F802E00F8824F001042404240C65
:102AC8000484028C8488038B4EEA050E22F00202ED
:102AD80023F073034FF48066002512041B04C4F22C
:102AE8000106C4F20105120C1FFA8EFE1B0CA84247
:102AF80018BFB0424EEA0202A4B243EA070317D154
:102B08004FF6F775B1F80EE0B1F812C00E8A8F884B
:102B1800154045EA0E0E4FF6FB724CEA06064FF6D4
:102B2800FF450EEA0202B6B225403A4346EA0504DA
:102B380089688480038341630284F0BD2DE9F041F4
:102B4800048C8D89B1F802E00F8824F01004240465
:102B5800240C0484028C8488038B22F02002120443
:102B680023F4E643120C42EA05121B044FF4806674
:102B780000251B0CC4F20106C4F2010542EA0E123C
:102B880043EA0723A84218BFB04292B2A4B29BB24C
:102B980019D14FF67F76B1F80E80B1F810C0B1F8B0
:102BA80004E04F8A16404FF2FF3546EA08164FF602
:102BB800BF722540324045EA8C0442EA0E1244EACC
:102BC800870492B2A4B289688480038381630284F3
:102BD800BDE8F0812DE9F041048C8D89B1F802E05F
:102BE8000F8824F480742404240C0484028C8488C0
:102BF800838B22F400721204120C42EA052223F09D
:102C080073034FF4806600251B04C4F20106C4F266
:102C1800010542EA0E221B0CA84218BFB04292B22C
:102C2800A4B243EA070319D14FF2FF76B1F80E8038
:102C3800B1F810C0B1F804E04F8A16404CF6FF75A1
:102C480046EA08264FF6FF322540324045EA0C1482
:102C580042EA0E2244EA071492B2A4B28968848038
:102C68008383C1630284BDE8F08100BFF0B5048CA2
:102C78008D89B1F802E00F8824F480542404240CD0
:102C88000484028C8488838B22F400521204120C70
:102C980042EA05324FF480660025C4F20105C4F209
:102CA8000106A84218BFB04223F4E64308BF0E8AC3
:102CB8008968A4B208BF4BF6FF754FEA034308BF03
:102CC80025404FEA134308BF45EA861442EA0E320C
:102CD80043EA072392B29BB208BFA4B284808383DD
:102CE80001640284F0BD00BF002303804380838019
:102CF80083608381C38103824382704730B4058C2B
:102D08000124ADB28C404FF6F77325EA04040B405A
:102D18000484183073B10439C1F34E0148F6FF73C7
:102D28000C5823400B5012020B5892B21A430A5007
:102D380030BC704749084FF68F73445823404350BE
:102D480043581A43425030BC704700BF4163704734
:102D580081637047C163704701647047038B23F038
:102D680070031B041B0C194301837047038B23F466
:102D7800E0431B041B0C43EA01218BB20383704719
:102D8800838B23F070031B041B0C1943818370474A
:102D9800838B23F4E0431B041B0C43EA01218BB211
:102DA80083837047038B23F008031B041B0C194310
:102DB80001837047038B23F400631B041B0C43EA55
:102DC80001218BB203837047838B23F008031B0414
:102DD8001B0C194381837047838B23F400631B0406
:102DE8001B0C43EA01218BB283837047038B23F0CA
:102DF80004031B041B0C194301837047038B23F442
:102E080080631B041B0C43EA01218BB203837047C8
:102E1800838B23F004031B041B0C19438183704725
:102E2800838B23F480631B041B0C43EA01218BB2C0
:102E380083837047038B23F080031B041B0C194307
:102E480001837047038BC3F30E0343EA01218BB25E
:102E580003837047838B23F080031B041B0C1943E7
:102E680081837047838BC3F30E0343EA01218BB23E
:102E780083837047038C23F002031B041B0C194344
:102E880001847047038C23F008031B041B0C1943AF
:102E980001847047038C23F020031B041B0C43EAB6
:102EA80001118BB203847047038C23F080031B0449
:102EB8001B0C43EA01118BB203847047038C23F483
:102EC80000731B041B0C43EA01218BB20384704777
:102ED800038C23F400631B041B0C43EA01218BB20F
:102EE80003847047038C23F400531B041B0C43EA30
:102EF80001318BB203847047038C10B401248C40D9
:102F08009BB223EA04030384038C5DF8044B8A40D4
:102F180013439BB203847047038C10B404248C4081
:102F28009BB223EA04030384038C5DF8044B8A40B4
:102F380013439BB2038470470B88F0B4002B32D044
:102F4800042B59D0082B4E88038C00F084808F887E
:102F58000D89CC8823F480510904090C0184828BE3
:102F6800038C22F4407223F4005312055B04120D03
:102F78005B0C42EA072243EA063342EA05329BB277
:102F880043F4805392B282830384838B23F4406397
:102F98001B041B0C8383838B9BB243EA04239BB2E1
:102FA8008383F0BC7047038C4E888D880F89CC884A
:102FB80023F001010904090C0184028B038C22F01F
:102FC800F3021204120C23F00A0342EA07121B044C
:102FD80046F0010192B21B0C2A430B43028303847F
:102FE800038B23F00C031B041B0C0383038B9BB282
:102FF80023430383F0BC7047038C4E888D880F8968
:10300800CC8823F010010904090C0184028B038C7D
:1030180022F44072120523F0A003120D1B0442EAA9
:1030280007321B0C43EA061392B242EA05229BB20E
:1030380043F0100392B202830384038B23F44063AA
:103048001B041B0C0383038B9BB243EA04239BB230
:103058000383F0BC70478D880F89CC8823F4807176
:103068000904090C0184828B038C22F0F30223F4F7
:10307800206312041B04120C1B0C42EA071243EAD9
:10308800062392B29BB243F480732A43828303845B
:10309800838B23F00C031B041B0C8383838B9BB251
:1030A800234383837DE700BF0023012282800380BE
:1030B8004380C380038170472DE9F0414B888E8897
:1030C8000A88002B0CBF02270027012E14BF4FF0DF
:1030D800010E4FF0020E002A55D0058CB1F8088079
:1030E800B1F806C025F010052D042D0C0584048BBD
:1030F800018C24F44074240521F0A001240D090456
:10310800090C44EA083441EA0313A4B244EA062647
:103118009BB243F01003B6B206830384018B21F4FB
:1031280040610904090C0183038B9BB243EA0C2319
:103138009BB20383018C21F001010904090C01846D
:10314800028B038C22F0F302120423F00A03120C00
:103158001B0442EA08121B0C43F0010392B21F43FE
:1031680042EA0E0EA0F818E00784038B23F00C0344
:103178001B041B0C0383038B9BB243EA0C0CA0F8C3
:1031880018C0BDE8F081028CB1F808C0CD8822F0E3
:1031980001021204120C0284018B048C21F0F30149
:1031A8000904090C24F00A0441EA0C11240443F030
:1031B800010389B2240C1C430E4306830484038B49
:1031C80023F00C031B041B0C0383038B9BB22B43C0
:1031D8000383038C23F010031B041B0C0384028B52
:1031E800038C22F44072120523F0A003120D1B0475
:1031F80042EA0C321B0C43F0100392B243EA071761
:1032080042EA0E2EA0F818E00784038B23F44063EB
:103218001B041B0C0383038B9BB243EA0525ADB249
:103228000583BDE8F08100BF406B7047806B704735
:10323800C06B7047006C7047038B23F00C031B04B2
:103248001B0C0383038B9BB219430183704700BF98
:10325800038B23F440631B041B0C0383038B9BB277
:1032680043EA01218BB20383704700BF838B23F0AD
:103278000C031B041B0C8383838B9BB21943818330
:10328800704700BF838B23F440631B041B0C8383AC
:10329800838B9BB243EA01218BB28383704700BFC3
:1032A800F0B50B88B1F802E08F88CE880D894C897B
:1032B8008A894EEA03033B4333432B432343134397
:1032C8009BB2A0F84430F0BD002303804380838084
:1032D800C380038143818381704700BFB0F84430C5
:1032E80021B9C3F30E03A0F8443070476FEA434393
:1032F8006FEA53439BB2A0F844307047838829B9DA
:1033080023F004031B041B0C838070479BB243F01B
:1033180004038380704700BF838829B923F0010321
:103328001B041B0C838070479BB243F0010383800E
:10333800704700BF83899BB21AB923EA01018181D2
:10334800704719438181704781827047038A194207
:103358000CBF002001207047C94389B20182704721
:10336800038A828911420CBF0020012019420CBF38
:10337800002000F001007047C94389B201827047FC
:103388000A43A0F84820704783899BB21AB923EAF8
:10339800010181817047194381817047838829B968
:1033A80023F008031B041B0C838070479BB243F077
:1033B80008038380704700BF038923F007031B04B9
:1033C8001B0C0381704700BF038923F070031B04A3
:1033D8001B0C1943018103899BB243F00703038146
:1033E800704700BF602970B427D0068C26F001060C
:1033F8003604360C0684058B048C25F0F3052D0461
:1034080024F00A042D0C240445F00105240C45EA97
:10341800031344F001049BB222430383028403890B
:1034280023F070031B041B0C0B43038103899BB21D
:1034380043F00703038170BC7047048C24F0100428
:103448002404240C0484058B048C25F4407524F092
:10345800A0042D0524042D0D240C45F4807544F09A
:10346800100445EA033344EA02129BB292B2038382
:103478000284D4E710B4048942EA0323E4B2234364
:103488009BB21943018103895DF8044B23F077034C
:103498001B041B0C43F077030381704710B40489A5
:1034A80042EA0323E4B223439BB21943018103890F
:1034B8005DF8044B9BB243F480430381704700BF1F
:1034C800038923F070031B041B0C19430181704707
:1034D800838823F070031B041B0C838083889BB2B2
:1034E80019438180704700BF038923F007031B0439
:1034F8001B0C038103899BB219430181704700BFEC
:10350800038923F080031B041B0C038103899BB2EE
:1035180019430181704700BF10B40489E4B2214304
:103528000A4342EA03239CB204815DF8044B7047C6
:1035380070B40589048B068C24F4407426F02206A6
:1035480024F003043604360C25F00705240432431E
:103558002D04240C2D0C44F4807442EA03132943EF
:1035680044F001049EB201810483068470BC704754
:10357800838829B923F080031B041B0C83807047C0
:103588009BB243F080038380704700BFA0F85010BF
:10359800704700BF08B54FF48053C4F20103984246
:1035A80028D04FF48843C4F2000398422CD04FF43B
:1035B8009043C4F20003984232D04FF49843C4F2C7
:1035C8000003984238D04FF4A043C4F20003984255
:1035D8003ED04FF4A053C4F20103984200D008BD76
:1035E80020200121FEF77CFC20200021BDE80840B6
:1035F800FEF776BC10200121FEF772FC1020002196
:10360800BDE80840FEF76CBC4FF400300121FEF71E
:1036180059FC4FF400300021BDE80840FEF752BCC9
:103628004FF480200121FEF74DFC4FF4802000214B
:10363800BDE80840FEF746BC4FF400200121FEF724
:1036480041FC4FF400200021BDE80840FEF73ABCD9
:103658004FF480100121FEF735FC4FF48010002153
:10366800BDE80840FEF72EBC028ACB8822F44052FF
:103678001204F0B5120C04461A430F898E88488943
:103688000D4689892282A38923F4B05347EA0602AA
:1036980023F00C0302431B0492B21B0C1343A381B7
:1036A800A38A23F440731B041B0C85B00B43A3822D
:1036B8006846FEF711FBA6890298039B4FF4A051B8
:1036C8004FF48052C4F20101C4F20102944218BFBF
:1036D8008C4232B218BF0346002A2A68A08903EB3D
:1036E8008303B4BF5200920003EB8303B3FBF2F3EE
:1036F80048F21F52C5F2EB12A2FB035100B2642537
:103708004909002801FB1533B5BFDB001B01323323
:103718003233B5BFA2FB0302A2FB0352C2F342122B
:10372800C2F343120901114389B2218105B0F0BDEA
:1037380000234FF416510C22016042818380C3801C
:1037480003818381704700BF30B40A884D888C8814
:10375800038AC9882A43224323F470630A431B045B
:1037680092B21B0C1343038230BC704700230380C2
:1037780043808380C3807047838929B923F4005329
:103788001B041B0C838170479BB243F40053838155
:10379800704700BF038B03F47F430383038B9BB203
:1037A80019430183704700BF838919B9C3F30E0316
:1037B800838170476FEA43436FEA53439BB2838127
:1037C800704700BF838A29B923F400631B041B0CCC
:1037D800838270479BB243F400638382704700BFC3
:1037E800C1F30801818070478088C0F308007047E2
:1037F800038A23F00F031B041B0C0382038A9BB26A
:1038080019430182704700BF838929B923F0020355
:103818001B041B0C838170479BB243F00203838116
:10382800704700BF838923F400631B041B0C83814A
:1038380083899BB219438181704700BF038A23F0B3
:1038480020031B041B0C0382038A9BB219430182C9
:10385800704700BF038A29B923F480431B041B0C5B
:10386800038270479BB243F480430382704700BFD2
:1038780083899BB243F0010383817047838A29B906
:1038880023F008031B041B0C838270479BB243F090
:1038980008038382704700BF038BDBB20383038B6B
:1038A8009BB243EA01210183704700BF838A29B98B
:1038B80023F020031B041B0C838270479BB243F048
:1038C80020038382704700BF838A29B923F010033D
:1038D8001B041B0C838270479BB243F01003838246
:1038E800704700BF838A23F004031B041B0C8382E8
:1038F800838A9BB219438182704700BF838A29B9A2
:1039080023F002031B041B0C838270479BB243F015
:1039180002038382704700BF838A9BB21AB923EAE5
:1039280001018182704719438182704701F01F03AA
:1039380010B4C1F342110124A14204FA03F308BFF1
:103948000C3003D002290CBF1030143004682AB997
:1039580024EA030303605DF8044B704723430360C4
:103968005DF8044B704700BF038819420CBF002064
:1039780001207047C94389B201807047C1F34213DF
:1039880030B401F01F020124012B04FA02F416D00E
:10399800022B0CBF028A828A92B222400388012538
:1039A800090A05FA01F19BB219420CBF0020012057
:1039B800002A0CBF002000F0010030BC704782894B
:1039C80092B22240EAE700BF090A012303FA01F193
:1039D800C94389B20180704708B54FF4A843C4F2BF
:1039E8000003984218D04FF4B043C4F20003984241
:1039F8001ED04FF4B843C4F20003984200D008BD6B
:103A08004FF400000121FEF75DFA4FF40000002199
:103A1800BDE80840FEF756BA4FF400100121FEF742
:103A280051FA4FF400100021BDE80840FEF74ABAE9
:103A38004FF480000121FEF745FA4FF48000002181
:103A4800BDE80840FEF73EBAF0B5044685B06846C2
:103A58000D46A688FEF740F94DF6836302992A6859
:103A6800C4F21B33A3FB010326F03F069F0C360468
:103A7800360C1FFA87FE4EEA0606A680238848F20F
:103A8800A06023F001031B04C0F201001B0C82425A
:103A9800238024D85300B1FBF3F39BB20EF1010E3F
:103AA800032B98BF0423A4F820E0A38323886E89FE
:103AB800A8882989AA899BB243F001032380238817
:103AC80023F4816323F002031B0430431B0C0343DC
:103AD8000A439BB292B22380228105B0F0BDE888E8
:103AE8004BF6FF7398421DBF02EB820202EB820283
:103AF800B1FBF2F302EB42020BBFB1FBF2F39BB254
:103B08009BB243F48043C3F30B020AB943F00103A9
:103B18004FF4967144F6D35201FB07F7C1F26202E3
:103B280082FB07129209013243F400432284BCE766
:103B3800002310B44BF6FF7141F288344FF48042F1
:103B48000460C18082818380038143815DF8044BD6
:103B5800704700BF038829B923F001031B041B0C1D
:103B6800038070479BB243F001030380704700BF96
:103B7800038829B923F480731B041B0C0380704746
:103B88009BB243F480730380704700BF038829B950
:103B980023F400731B041B0C038070479BB243F48F
:103BA80000730380704700BF1AB901F0FE0101825B
:103BB800704741F001010182704700BF038829B9AD
:103BC80023F480631B041B0C038070479BB243F4EF
:103BD80080630380704700BF838923F0FE031B04C2
:103BE80001F0FE011B0C0B4383817047838929B9BF
:103BF80023F001031B041B0C838170479BB243F025
:103C080001038381704700BF038829B923F040036B
:103C18001B041B0C038070479BB243F040030380D6
:103C2800704700BF038819B9C3F30E0303807047B8
:103C38006FEA43436FEA53439BB20380704700BF68
:103C4800038829B123F080031B041B0C03807047F1
:103C58009BB243F080030380704700BF838BB1F5AC
:103C6800804F1BBF23F480431B049BB21B0C08BF6F
:103C780043F48043838370470388B1F5006F15BF11
:103C880023F400639BB21B0443F4006318BF1B0CAE
:103C9800038070470388B1F5005F15BF23F4005314
:103CA8009BB21B0443F4005318BF1B0C03807047DE
:103CB800038829B923F010031B041B0C03807047E9
:103CC8009BB243F010030380704700BF0182704726
:103CD800008AC0B2704700BF038829B923F4805313
:103CE8001B041B0C038070479BB243F48053038072
:103CF800704700BF0388B1F5006F15BF23F4006358
:103D08009BB21B0443F4006318BF1B0C038070476D
:103D1800038829B923F020031B041B0C0380704778
:103D28009BB243F020030380704700BF008BC0F3B1
:103D380007207047838829B923F400631B041B0CF0
:103D4800838070479BB243F400638380704700BF51
:103D5800838829B923F480531B041B0C8380704784
:103D68009BB243F480538380704700BF82B0002326
:103D780001930190019B19440191019B188880B21D
:103D880002B0704783889BB21AB923EA0101818087
:103D98007047194381807047828A038B90B240EA4A
:103DA800034021F07F4318400B1A5842584170478E
:103DB800828A038B90B240EA034020F07F4070472C
:103DC80082B000230A0F0093019301900092009B98
:103DD80021F07F4153B1019B14330193019B1B6870
:103DE80019420CBF0020012002B07047019B183314
:103DF800090C0193F2E700BFC94389B28182704779
:103E08008388808A80B208409BB206D001F0E061C6
:103E180013EA11410CBF002001207047C94389B241
:103E28008182704710B5D0F8E43504461B6998477D
:103E3800032384F81231002010BD00BF08B5042206
:103E4800D0F8E43580F81221DB689847002008BDD7
:103E580008B5D0F8E035DB6903B19847002008BD04
:103E680008B5D0F8E0351B6A9847002008BD00BFA8
:103E780008B5D0F8E0355B6A9847002008BD00BF58
:103E8800002110B50B460446402201F0E7FA8021D4
:103E980020464022002301F0E1FA0122D4F8E4355B
:103EA80084F81221A0785B689847002010BD00BFF5
:103EB80010B582B06946044600F03AF99DF8001042
:103EC80001F01F03012B18D010D3022B07D0204676
:103ED80001F0800101F03CFB002002B010BD20463B
:103EE800694600F0F9FA002002B010BD2046694684
:103EF80000F05AF9002002B010BD2046694600F0D3
:103F0800D1FA002002B010BD70B5044629B990F866
:103F18001131022B0CD0002070BDD0F8E0355B6960
:103F2800002BF8D090F81221032AF4D19847F2E731
:103F3800D0F83421D0F820319A4210D9C17801291B
:103F4800D0F82411C3EB020208BFC918C0F8342105
:103F580008BFC0F8241192B200F0A2F8DBE7D0F84D
:103F68003851B5FBF3F603FB16565EB9AB4209D8D8
:103F7800D0F83C319D4205D2324600F091F8C4F8A1
:103F88003C61C8E7D4F8E035DB681BB194F812212E
:103F9800032A03D0204600F0B3F8BCE72046984730
:103FA800F8E700BF10B5044629B990F81131032B82
:103FB8000CD0002010BDD0F8E0359B69002BF8D05C
:103FC80090F81221032AF4D19847F2E7D0F88C230D
:103FD800D0F878339A4212D9C1780129D0F87C13E5
:103FE800C3EB020204BFC918C0F87C13C0F88C23C5
:103FF8009A4228BF1A4692B200F06AF8D9E7D0F878
:10400800E0351B691BB190F81221032A03D0204622
:1040180000F066F8CDE79847F9E700BF2DE9F041D1
:10402800069D0446174698460E46FCF797FC204620
:104038003146C4F8E085C4F8E455C4F8E87501F0E1
:10404800BFF9D4F8E4351B6898472046BDE8F0412D
:10405800FCF7DABC00207047D0F8E03510B504460C
:104068001B689847D4F8E4359B689847002010BD32
:1040780008B5D0F8E0355B689847002008BD00BF58
:1040880038B5134602250A46C0F83831C0F834312D
:1040980080F81151002101F03FFA002038BD00BF1F
:1040A80008B513460A46002101F036FA002008BD7B
:1040B80038B5134603250A46C0F89033C0F88C3348
:1040C80080F81151002101F00BFA002038BD00BF23
:1040D80008B513460A46002101F002FA002008BD7F
:1040E80010B50021042304460A4680F811310B4616
:1040F80001F012FA204601F069F8002010BD00BF57
:1041080010B50021052304460A4680F811310B46F4
:1041180001F0E6F9204601F059F8002010BD00BF73
:1041280001EB810100EBC100B0F88803704700BFC4
:1041380090F8C8350B7090F8C9354B7090F8CB25BE
:1041480090F8CA3503EB02234B8090F8CD2590F800
:10415800CC3503EB02238B8090F8CF2590F8CE3531
:1041680003EB02239BB20122CB80C0F83C3180F8DC
:104178001121704710B591F90030002B044609DB76
:10418800CB883BB1002101F0E3F92046BDE810409F
:1041980001F01CB82046802101F0DAF92046BDE87C
:1041A800104001F013B800BF70B54B7882B00C46D0
:1041B8000546092B0CD8DFE803F0354C0B600B05DE
:1041C800770B8D12A3881BB9E388002B00F0988029
:1041D80028462146FFF7CEFF002002B070BDA17827
:1041E80040F6C416C2F2000601293170F0D890F8E2
:1041F8001231022B00F09F80032BE9D1002900F037
:104208003F8190F81011012900F03281FFF730FF4B
:104218003178284685F81011FFF71EFF2846FFF76A
:104228005FFFD9E790F812310122023B93424FF029
:104238000301CDD8D0F81431002B5BD140F6C4135C
:10424800C2F200039A60284694490122FFF718FF3A
:10425800C2E790F81231023B012BB9D86388012BD1
:10426800BAD1D0F8E03500229B68C0F81421214665
:1042780098472846FFF734FFAEE76388012B00F024
:10428800F080022BA8D1A38813F0FF0FA4D10269F4
:104298001B0A5068013B0146042B00F2FC80DFE852
:1042A80003F09E9A92A6A2006288130A013B062B8D
:1042B8008ED801A151F823F0AD4300086F430008E0
:1042C8005D430008D9410008D9410008D9410008D8
:1042D800D9410008E288012A7FF47AAF90F81231B8
:1042E800022B24D0032B7FF473AF00F58871FFF7FE
:1042F800C7FE71E740F6C413C2F200039960A2E753
:1043080090F81231A678032B06F07F063FF460AFD1
:1043180080F81361314601F065F92846FFF7E0FEA1
:10432800002E00F0A980022385F8123154E75C4979
:10433800FFF7A6FE50E7002900F09A800121032329
:1043480080F8101180F81231FFF786FE2846FFF733
:10435800C7FE41E7D2B2052A3FF63AAFDFE802F0DE
:10436800786F665D544BD0F8E03580789B6A0DF124
:1043780006019847022343700146C5F8EC05BDF8CD
:104388000630002B3FF428AFE288002A3FF424AF20
:10439800934228BF13461A462846ADF80630FFF761
:1043A8006FFE19E7D0F8E83580781B680DF1060133
:1043B8009847E288402A014603D095F81231012B2C
:1043C800DDD10823E1E7032363F306115160284692
:1043D800FFF786FE00E7022363F30611F6E70123E1
:1043E80063F30611F2E7052363F30611EEE70423EE
:1043F80063F30611EAE7D0F8E83580789B690DF198
:10440800060198470146BAE7D0F8E83580785B6935
:104418000DF1060198470146B1E7D0F8E8358078F4
:104428001B690DF1060198470146A8E7D0F8E83561
:104438008078DB680DF10601984701469FE7D0F8C0
:10444800E83580789B680DF106019847014696E7A4
:10445800D0F8E83580785B680DF106019847014689
:104468008DE7D0F8E025C0F81431214693689847C5
:104478002846FFF735FEAFE6012385F81231ABE693
:10448800022380F8101180F81231FFF7F1FD284659
:10449800FFF726FEA0E6014698E700BFCC090020FA
:1044A800C809002038B590F81231032B04460D4690
:1044B80002D10B79012B03D9FFF75CFE002038BD30
:1044C800D0F8E0359B689847EB88002BF6D120465A
:1044D800FFF706FEF2E700BF70B54B788A88012B1C
:1044E8000C460546D6B221D016D3032B12D190F82C
:1044F8001231022B14D0032B3ED14B880BB9730613
:104508004FD1D5F8E03521469B682846984728467C
:10451800FFF7E6FD002070BD90F81231022B14D190
:104528007206F7D0314601F013F8F3E790F812312C
:10453800022BF5D0032B1FD14B88002BEAD1710633
:10454800E5D0314601F022F8DBE7032B14D113063E
:1045580016D406EB860600EBC60696F87233CBB97E
:1045680040F6C413C2F200030022DA6028460F495D
:104578000222FFF785FDCDE7FFF7FCFD002070BDA7
:1045880006F07F0606EB860600EBC60696F81A319B
:10459800002BE5D040F6C413C2F200030122DA6012
:1045A800E4E7314600F0D4FFABE700BFD0090020B4
:1045B80030B4F0B10378F3B10446002314F8015F76
:1045C8000133DBB2002DF9D15B000233DCB20325E5
:1045D80013800C704D7002785AB1022300255C1CC0
:1045E800E4B2CA540D5510F8012F0233DBB2002A89
:1045F800F5D130BC704702242346E8E738B540F2CD
:10460800E404C2F200042068FF2810D040F2380207
:1046180040F6D413C2F20003C2F2000241F238217C
:1046280095681A68C2F20001A847FF23236000209A
:1046380038BD00BF43230B8000487047E8000020C6
:1046480070B540F6D414C2F2000463685A1C052BF6
:10465800626001D0002070BD227A0023012A6360C5
:10466800F8D0E1682569B1F5006F29D0A9422CD0AE
:1046780098BF8EB221D9C1F5006565618EB2D0F8B8
:10468800EC35B3F83930AB4224BF0022626141F205
:1046980040222EBF4919C918C3EB0505C2F2000212
:1046A80039BFE1606561E160ABB232440125812127
:1046B800257200F031FF002070BD6D1A6561DEE7DC
:1046C800E3601E461946002DF7D100232372C1E787
:1046D80038B501EB810140F2380300EBC101C2F2A9
:1046E800000341F2F8140546C2F20004B1F8881339
:1046F8001B6920469847D5F8EC352246B3F8403078
:104708002846012100F0ECFE002038BD70B50B787A
:1047180013F060050C4606461ED0202D18D1CD8812
:10472800002D54D01B0636D440F2E40640F6D413CC
:104738004C78C2F20006C2F2000341F238212A4640
:10474800C2F2000134601D60FFF7B2FC002070BDAA
:10475800FFF710FD022070BD4B780A2B31D00B2BD0
:104768000FD0062BF2D14B881B0A212B03D1CA8804
:104778003A2A28BF3A2230461C49FFF781FC00201C
:1047880070BD8B78002B2DD140F6D412C2F20002F6
:104798001846936170BD40F23803C2F2000341F23B
:1047A80038212A469B686078C2F20001984741F296
:1047B80038213046E288C2F20001FFF761FC002090
:1047C80070BD0B490122FFF75BFC284670BD40F223
:1047D8003803C2F2000348789B6829462A4698475E
:1047E800284670BDFFF7C6FC284670BDFA000020B9
:1047F800EC09002010B58121044600F055FE204642
:10480800012100F051FE8221204600F04DFE40F2C9
:104818003803C2F200035B689847002010BD00BF50
:10482800D0F8EC2538B5044681210223B2F83920A6
:1048380000F014FED4F8EC352046B3F840200121EE
:10484800022300F00BFE204682210822032300F0F9
:1048580005FE40F24C0340F23802C2F20003C2F2F5
:1048680000020221002519715D7113689847D4F878
:10487800EC3541F2F812B3F840302046C2F200029B
:10488800012100F02DFE284638BD00BF38B540F69E
:10489800D411C2F200010B7A012B01D0002038BDDF
:1048A8004C69E4B1D0F8EC35CD68B3F839309C42A6
:1048B8000FD82B190022CB60ADB223464A6141F2D2
:1048C8004022C2F200022A44812100F025FE002085
:1048D80038BD5A19E41A4C61CA60ADB2EFE70C72E0
:1048E800002038BD30B5054683B00023032001936E
:1048F800FCF7A2F82B681A694FF454640192C0F2CD
:10490800030406E0FCF798F82B681A69013C019249
:104918001BD0019A002A4FF00300F3DA019A42F003
:1049280001020192019A1A6119694FF454620191C6
:10493800C0F2030203E01969013A019102D001991A
:10494800C907F8D40320FCF777F8002003B030BD7E
:1049580030B4C5786DB900EB820003339B10D0F8F2
:10496800D04006D02A4651F8040B01329342206009
:10497800F9D1002030BC7047033270B49510D0F8DC
:10498800D06009D00A460023346801339D4242F8BA
:10499800044BF9D101EB8501084670BC704700BF94
:1049A8002DE9F047012440220023A142847082802F
:1049B800C37068D0002945D04278C3604FF40061C5
:1049C800016190F80080002A7DD09C464FF4606712
:1049D8004FF4886A4FF480694FEA421E002302466A
:1049E8000CF510660CF53065F418E918203373459A
:1049F8009461516502F10402F6D10CF5A062C0F889
:104A08001490C0F8CCA002EB48140146B8F1000F8E
:104A180013D0C1F890202032A24201F10401F8D14C
:104A28000CF5805303EB08310246C2F8D03003F589
:104A380080538B4202F10402F7D1C0F80C710020B8
:104A4800BDE8F0870023C4F204034FF00C080622E7
:104A58004FF4A0654FF460674FF4886A4FF480699B
:104A68004FF40064C1729C4680F800804270C58093
:104A7800C4F20407C4F2040AC4F20409C4F2040428
:104A8800C3600461A8E74FF0080804224FF4A07639
:104A980002254FF460674FF4886A4FF480694FF439
:104AA80000644FF0A043C17280F800804270C68055
:104AB8000572C5F20007C5F2000AC5F20009C5F281
:104AC80000049C46DCE794464FF460674FF4886A1C
:104AD8004FF4806991E700BF38B5037A012B04468B
:104AE8004FF0000530D050F80C2FD36843F0400346
:104AF800D360FFF7F7FE237A627A032B14BF4FF4D3
:104B080034134FF43C130AB143F48013E2681420C1
:104B18009363FBF7A3FFE368227AD968032A0CBFE3
:104B280041F480320A46DA60227A032A37D0E378E1
:104B3800012B07D1E3689D68052262F3440545F01F
:104B480020059D60002038BDC268417A936B65F3EB
:104B5800104309B143F480139363D36823F48003AB
:104B680023F0500343F010036FF3C3036FF3C7132D
:104B78006FF351436FF3D343D36004F10C00FFF795
:104B8800B1FEE378012BDDD1052363F34405E36827
:104B980045F020059D60E378012BCBD0D2E71D6B53
:104BA800012262F39B656FF3D7552D2245F080559E
:104BB80062F316451D63C820FBF750FFE36845F410
:104BC80000051D63C820FBF749FFB0E7C3689A6872
:104BD80042F001029A600020704700BFC3689A68DB
:104BE80022F001029A600020704700BF00B583B030
:104BF80000230193019B43F020030193019B61F380
:104C08008A130193019BC1680B610A694FF45463CD
:104C18000192C0F2030303E00A69013B019202D04A
:104C2800019A9006F8D40320FBF706FF002003B092
:104C38005DF804FB00B583B000230193019B43F0AA
:104C480010030193019BC1680B610A694FF4546317
:104C58000192C0F2030303E00A69013B019202D00A
:104C6800019AD206F8D40320FBF7E6FE002003B031
:104C78005DF804FBC26808B5D3686FF35D736FF322
:104C88009E73012908BF43F0005302D009B943F0CD
:104C98008043D3603220FBF7E1FE002008BD00BF4F
:104CA800C368586900F00100704700BFC3685869BD
:104CB80000F0010080F00100704700BFC368586928
:104CC80000F00100704700BFC3685A699869104036
:104CD800704700BFC3685868704700BF03691A6807
:104CE80061F301021A60704710B4C2684FF400649F
:104CF8004FF0FF310023C8F2000493615161516005
:104D080051619461C07891695DF8044B984208BF7D
:104D1800102343F4701343F4605343F008030B4328
:104D280000209361704700BFF8B50446D0F80C0125
:104D38002269002101600B46116863F3CC211160E0
:104D4800E17A01294DD010212046FFF74FFF204678
:104D5800FFF770FF256900224FF0FF332A616A616F
:104D6800AB61EA6163783BB317462146FF268B693E
:104D780018680028B4BF4FF09040002018601F61E9
:104D88009E6063780132934201F10401EFD89BB130
:104D9800002217462146FF264B6D18680028B4BF2D
:104DA8004FF09040002018601F619E6063780132C8
:104DB800934201F10401EFD82B6943F480732B610E
:104DC800E378012B01BF03F58173C0F20103402290
:104DD80062F3594308BF2B632046FFF785FF002085
:104DE800F8BD1768E068C021802561F30F034FF410
:104DF800800165F31F4347F0030765F30F014FF484
:104E0800A076176045628162C0F8043166F30F032B
:104E18006FF31F43C0F80831C0F80C3193E700BFA7
:104E280003699B68C3F34103022B07D0032B03D00C
:104E3800012B01D0032070470220704701207047E2
:104E48000369826998681168C0F34100022806BFA7
:104E5800032060F30A016FF30A0111605A6842F4F3
:104E680080725A600020704770B44B78012B4FF065
:104E7800000220D00B7800EB8304012505FA03F328
:104E8800646D63F31F4223681D040DD48E68CD78CA
:104E9800C98866F30A0365F3934361F3995343F0B2
:104EA800805343F4004323600369D9690A4300200F
:104EB800DA6170BC70470C7800EB8405A34063F39B
:104EC8000F02AC69DFE700BF30B44A780023012A3B
:104ED8001C4613D00A7800EB8201012505FA02F27C
:104EE800496D62F31F4402696FF3CF330B60D369D6
:104EF80023EA0404D461002030BC7047097800EB31
:104F080081058A4062F30F04A969ECE7F0B54C7893
:104F18000B784D69012C00EB83032ED05C6D236860
:104F280022691DB38E683544013DB5FBF6F5C5F31E
:104F3800090765F3DC4206FB07F666F312022261F5
:104F4800C278012A01BF0C780A6900EB8404646DF9
:104F580008BF6261CA78012A55D00A7800EB82003E
:104F680043F00443426D13600020F0BD8D680126B4
:104F780065F3120266F3DC42E1E79E693368326941
:104F8800002D45D08C68CF7805EB040E0EF1FF3E5E
:104F980065F31202BEFBF4F464F3DC42012F08BF90
:104FA80067F35E723261C278012A43D0CA78012A57
:104FB80036D055B102690C78566B012707FA04F40C
:104FC80034435463CA78012A2AD00A7800EB820253
:104FD80043F0044392691360CB78012BC4D1C378A2
:104FE800CA680978002BBFD1ADB200EB8100033548
:104FF800AD10D0F8D000B7D052F8041B01339D4251
:105008000160F9D1B0E74A793AB143F00053A4E717
:1050180065F3120264F3DC42C4E743F080539CE773
:1050280002699268D60558BF43F00053CDD543F0C6
:105038008053CAE70C780A6900EB8404A4696261AA
:10504800C0E700BFF0B44A78012A82B031D00B78AB
:105058004C698E6800EB83035A6D136815690095D7
:105068009DF8005014B39DF802404E61012767F384
:10507800C40466F306058DF800508DF80240009CC4
:105088001461C278012A02BF0C780A6900EB840413
:1050980043F0044304BF646D62610A7800EB820048
:1050A800426D1360002002B0F0BC70479DF80240CA
:1050B800DCE784694D69236826690096002D36D09F
:1050C8008A68954293BF9DF800209DF800504A6178
:1050D80065F306028CBF62F306058DF800209DF883
:1050E800022088BF8DF80050012565F3C4028DF8B1
:1050F8000220009A2261C278012A02BF0D780A694B
:1051080000EB850543F0044304BFAD696A61236081
:10511800C378002BC6D14B69002BC3D003690A782A
:10512800596B012000FA02F20A435A63BAE79DF864
:1051380000709DF8026065F3060762F3C4068DF8F7
:1051480000708DF80260D4E74B78012B0B7800EBE8
:10515800830006D0426D136843F4001313600020E7
:10516800704782691368002BB8BF43F0804343F44B
:1051780000131360002070474B78012B0B78C97817
:1051880000EB8300A1F102010CBF8269426D136834
:10519800C9B26FF35553012998BF43F08053136088
:1051A8000020704703699A69D8691040000C70475D
:1051B80000EB810102694B6D9B685069184070478C
:1051C80003699869DB69184080B2704710B40122FE
:1051D80083B04FF0000362F3C403C02100241822F7
:1051E80000948DF802308DF803108DF80020436D7F
:1051F800009A1A61C278012A01BF00F5B9605861A6
:1052080019684FF0802208BF1A6003B05DF8044B9C
:10521800704700BFD0F8143110B504461BB10369BC
:105228009A68D20700D410BD827A42B1D0F80C2116
:10523800D0F80C116FF341026FF300020A605A684C
:1052480042F001025A600520FBF708FC23695A68FE
:1052580022F001025A6010BD837A6BB103699B6822
:10526800D90741BFD0F80C31D0F80C216FF34103B6
:105278006FF3000348BF1360704700BF38B5437829
:105288000122054680F8122163B103460022FF215E
:105298009C69A1605C6DA1606C780132944203F155
:1052A8000403F5D82B6900224FF0FF311A61284614
:1052B8005A61DA619961FFF7BDFC28461021BDE803
:1052C8003840FFF793BC00BF4B78012B0B7800EBFD
:1052D80083000BD0436D1B68980211D413F4003F70
:1052E8000CBF4FF440504FF40050704783691B685F
:1052F8009A0208D413F4003F0CBF302020207047D6
:105308004FF4805070471020704700BFF0B44D78BC
:10531800012D0B4604461BD0087804EB8000B2F53B
:10532800805F446D21680D4608BF41F400110CD020
:10533800B2F5005F08BF41F0006106D0B2F5405FEA
:1053480019D012B962F3CF3529462160F0BC7047F5
:105358000F7800EB8707102ABC69266835462BD0E2
:10536800202A08BF46F00061EFD0302A19D0314614
:10537800002AE7D0E9E78D025CBF41F0806545F07F
:105388008021E2D500215971426DD878136802381E
:10539800C0B261F35553012898BF43F0805313609E
:1053A800D4E7B2025CBF46F0806545F08021CCD5D9
:1053B80000215971BA69E8E7F0BCFFF7C5BE00BF24
:1053C80070B50446FFF7ECFA63780126002284F8EA
:1053D800126184F813217BB311462346402583F8D4
:1053E8001821A3F81E2183F8196183F81B11C3F84B
:1053F8002051C3F82411C3F82C116078013290426F
:1054080003F12803EBD8B8B1002211462346402502
:1054180083F87023A3F8762383F8711383F8731342
:10542800C3F87853C3F87C13C3F884136078013247
:10543800904203F12803EBD82046FFF7CFFB204624
:10544800FFF74AFB20460021FFF714FC2046FFF730
:105458006BFC2046BDE87040FFF7B8BB70B50C0682
:1054680013D401EB8105ED0005F55C7544190026A0
:105478004155A260E3706670022B04BF00232371BC
:105488002146FFF7F1FC002070BD01F07F0101EB20
:105498008105ED0005F58C75441901264155A2607A
:1054A800E370E1806670E7E7CAB208B5130645BF46
:1054B80001F07F0101EB810301EB810300EBC303E2
:1054C80056BF00EBC30303F58C7303F55C73D20975
:1054D80019705A701946FFF7F7FC002008BD00BF85
:1054E80070B501F07F0404EB8405ED0005F55C75EB
:1054F80041190026CA604B618E614E704455C378CD
:10550800012B08BF0A611CB1FFF700FD002070BD28
:10551800FFF798FD002070BDF8B501F07F0404EB9B
:105528008405ED0005F58C7541194FF0010E002733
:1055380081F801E04455CA600A614B618F611CB172
:10554800FFF7E4FC0020F8BDFFF77CFD0020F8BD64
:10555800CAB210B5140645BF01F07F0101EB810303
:1055680001EB810300EBC30356BF00EBC30303F554
:105578008C7303F55C73D209012419705A709C70FE
:105588001946FFF7E1FD002010BD00BFCAB213069F
:1055980046BF01F07F0101EB810301EB810310B5E8
:1055A8004BBF00EBC30300EBC30303F58C7303F598
:1055B8005C73D209002419705A709C701946FFF761
:1055C800DBFD204610BD00BF0A0608B503D4FFF76F
:1055D80031FB002008BD01F07F01FFF707FB002029
:1055E80008BD00BF03690022186861F30A1202436C
:1055F8001A60704703695A686FF341025A600320C2
:10560800FBF72CBA03695A6842F002025A60032079
:10561800FBF724BA0B0645BF01F07F0101EB8101BE
:1056280001EB810100EBC10156BF00EBC10101F59F
:105638008C7101F55C71FFF747BE00BF0B0645BFD3
:1056480001F07F0101EB810101EB810100EBC10158
:1056580056BF00EBC10101F58C7101F55C71FFF7D4
:1056680055BE00BF2DE9F04F83B00446FFF71EFB7F
:1056780018B9002003B0BDE8F08F2046FFF724FBDF
:1056880005460028F5D0C0F3C04000282AD16F0392
:1056980000F16581AE0742BFE36802225A61002D1E
:1056A800C0F23F81290500F116812B0700F1068120
:1056B800EF0600F1DC80EE0400F19D80A9047DD4A2
:1056C800EA026DD4AB02D5D540F2B403C2F20003AE
:1056D80020461B681B6A9847E3684FF400125A611A
:1056E8000120C7E72046FFF75DFD0646002855D094
:1056F80040F2B409C2F200092746A2464FF000085A
:10570800019507E0760808F1010807F104070AF196
:10571800280A42D0F307F5D55FFA88F529462046CE
:10572800FFF746FD10F0010F83461AD07A6D01236A
:105738009360E178994201BF1169DAF87823C1F3DF
:105748001201C1EB020208BFCAF88823D9F8002069
:105758009B462946136820469847E378012B00F0BA
:10576800D5811BF0020F1FBF4FF0020B7B6D5A460D
:105778009A601BF0040F1FBF7B6D4FF0040B5A4655
:105788009A601BF0080FBDD0D9F8003020469B68FE
:1057980098477B6D08229A60B4E7019D012076E75F
:1057A80040F2B403C2F2000320461B68DB69984745
:1057B800E3684FF480125A61012083E72046FFF71F
:1057C8003FFBE3682046DE68FFF72AFB03280BBF90
:1057D800092305234FF40072402263F38D26E36802
:1057E800A2800CBF002101214FF40052A1700120BA
:1057F800DE605A6164E723695A68002722F00102D3
:105808005A6039462046FFF7F1F9637863B12346B9
:105818003A46FF2099698860596D8860617801323D
:105828008A4203F10403F5D30126236966F30F07BF
:105838000F214FF0FF302F2266F31F479861DF6179
:1058480059611A611A686FF30A121A602046FFF745
:10585800BDFC40F2B403C2F20003E2681B684FF4D7
:1058680080511B69516120469847304626E7E36816
:105878009A6922F010029A611E6A06F00F0202EB82
:105888008202C6F3434104EBC207022907F55C779D
:1058980000F0E88006290BD10822204604F5B961FA
:1058A800FFF76AF8BA69E368C6F30A163244BA61C0
:1058B8009A6942F010029A610120FCE640F2B403B2
:1058C800C2F2000320461B68DB689847E368082299
:1058D8005A610120ECE640F2B403C2F2000320460C
:1058E8001B685B6998472269E36891684FF4006216
:1058F8005A61A37A9BB1CA0711D5D4F80C311A683A
:1059080042F001021A6019684FF46D42CEF20002AB
:1059180041F003011960136943F006031361012084
:10592800C3E6A37A43B1D4F80C31D4F80C216FF351
:1059380041036FF300031360226940F2B403C2F21B
:10594800000351681B6821F0010151609B692046E2
:105958009847E3684FF000425A610120A2E62046CA
:10596800FFF72EFC804600287AD040F2B403C2F23A
:1059780000030195274626464FF0000A1D4637E0EA
:105988001BF0040F1EBFBB694FF0040BC3F808B02F
:105998001BF0080F1EBFBB694FF0080BC3F808B017
:1059A8001BF0100F1FBF1022BB6993469A601BF0B3
:1059B800200F1FBF2022BB6993469A601BF0400F3F
:1059C8001FBF4022BB6993469A601BF0020F1FBF9E
:1059D8000222BB6993469A601BF0800F54D15FEA9C
:1059E80058080AF1010A07F1040706F1280636D01B
:1059F80018F0010FF3D023695FFA8AF91969586B17
:105A080004EB890220FA09FB92694FEACB1B5FFA83
:105A18008BFB92684BEA010B0BEA020B1BF0010FA0
:105A2800AED05A6B29684FF0010B0BFA0AF022EA44
:105A380000025A63BA694B68C2F808B02046494662
:105A48009847E3785B459BD1BAF1000F98D194F859
:105A58001131042B94D12046FFF7B8FB90E7019D44
:105A6800012017E6C6F30A16002E3FF421AFF968A5
:105A780032462046FEF780FFF968BA69E368314488
:105A88003244F960BA6113E7D6F82C11D6F830E140
:105A9800B869D6F82021D0F818C0CEEB010393429C
:105AA80034BF9B4693460BF1030B1FFA8CFCBCEBEF
:105AB8009B0F28D9714526D929B3D6F8241106E0B9
:105AC800D6F82C219A421ED9D31AD6F820219A4208
